{
	"data": {
		"bytecode": {
			"linkReferences": {},
			"object": "6080604052348015600e575f80fd5b50610c648061001c5f395ff3fe608060405234801561000f575f80fd5b506004361061003f575f3560e01c8063570b261a146100435780635d65875f1461005f57806377ec2b551461007f575b5f80fd5b61005d600480360381019061005891906106df565b61009f565b005b610067610148565b60405161007693929190610826565b60405180910390f35b61008761030a565b60405161009693929190610922565b60405180910390f35b60405180606001604052808681526020018581526020016040518060600160405280868152602001858152602001848152508152505f80820151815f0190816100e89190610b5f565b50602082015181600101556040820151816002015f820151815f01908161010f9190610b5f565b5060208201518160010190816101259190610b5f565b50604082015181600201908161013b9190610b5f565b5050509050505050505050565b60608060605f6002015f015f6002016001015f60020160020182805461016d90610992565b80601f016020809104026020016040519081016040528092919081815260200182805461019990610992565b80156101e45780601f106101bb576101008083540402835291602001916101e4565b820191905f5260205f20905b8154815290600101906020018083116101c757829003601f168201915b505050505092508180546101f790610992565b80601f016020809104026020016040519081016040528092919081815260200182805461022390610992565b801561026e5780601f106102455761010080835404028352916020019161026e565b820191905f5260205f20905b81548152906001019060200180831161025157829003601f168201915b5050505050915080805461028190610992565b80601f01602080910402602001604051908101604052809291908181526020018280546102ad90610992565b80156102f85780601f106102cf576101008083540402835291602001916102f8565b820191905f5260205f20905b8154815290600101906020018083116102db57829003601f168201915b50505050509050925092509250909192565b5f805f01805461031990610992565b80601f016020809104026020016040519081016040528092919081815260200182805461034590610992565b80156103905780601f1061036757610100808354040283529160200191610390565b820191905f5260205f20905b81548152906001019060200180831161037357829003601f168201915b505050505090806001015490806002016040518060600160405290815f820180546103ba90610992565b80601f01602080910402602001604051908101604052809291908181526020018280546103e690610992565b80156104315780601f1061040857610100808354040283529160200191610431565b820191905f5260205f20905b81548152906001019060200180831161041457829003601f168201915b5050505050815260200160018201805461044a90610992565b80601f016020809104026020016040519081016040528092919081815260200182805461047690610992565b80156104c15780601f10610498576101008083540402835291602001916104c1565b820191905f5260205f20905b8154815290600101906020018083116104a457829003601f168201915b505050505081526020016002820180546104da90610992565b80601f016020809104026020016040519081016040528092919081815260200182805461050690610992565b80156105515780601f1061052857610100808354040283529160200191610551565b820191905f5260205f20905b81548152906001019060200180831161053457829003601f168201915b505050505081525050905083565b5f604051905090565b5f80fd5b5f80fd5b5f80fd5b5f80fd5b5f601f19601f8301169050919050565b7f4e487b71000000000000000000000000000000000000000000000000000000005f52604160045260245ffd5b6105be82610578565b810181811067ffffffffffffffff821117156105dd576105dc610588565b5b80604052505050565b5f6105ef61055f565b90506105fb82826105b5565b919050565b5f67ffffffffffffffff82111561061a57610619610588565b5b61062382610578565b9050602081019050919050565b828183375f83830152505050565b5f61065061064b84610600565b6105e6565b90508281526020810184848401111561066c5761066b610574565b5b610677848285610630565b509392505050565b5f82601f83011261069357610692610570565b5b81356106a384826020860161063e565b91505092915050565b5f819050919050565b6106be816106ac565b81146106c8575f80fd5b50565b5f813590506106d9816106b5565b92915050565b5f805f805f60a086880312156106f8576106f7610568565b5b5f86013567ffffffffffffffff8111156107155761071461056c565b5b6107218882890161067f565b9550506020610732888289016106cb565b945050604086013567ffffffffffffffff8111156107535761075261056c565b5b61075f8882890161067f565b935050606086013567ffffffffffffffff8111156107805761077f61056c565b5b61078c8882890161067f565b925050608086013567ffffffffffffffff8111156107ad576107ac61056c565b5b6107b98882890161067f565b9150509295509295909350565b5f81519050919050565b5f82825260208201905092915050565b8281835e5f83830152505050565b5f6107f8826107c6565b61080281856107d0565b93506108128185602086016107e0565b61081b81610578565b840191505092915050565b5f6060820190508181035f83015261083e81866107ee565b9050818103602083015261085281856107ee565b9050818103604083015261086681846107ee565b9050949350505050565b610879816106ac565b82525050565b5f82825260208201905092915050565b5f610899826107c6565b6108a3818561087f565b93506108b38185602086016107e0565b6108bc81610578565b840191505092915050565b5f606083015f8301518482035f8601526108e1828261088f565b915050602083015184820360208601526108fb828261088f565b91505060408301518482036040860152610915828261088f565b9150508091505092915050565b5f6060820190508181035f83015261093a81866107ee565b90506109496020830185610870565b818103604083015261095b81846108c7565b9050949350505050565b7f4e487b71000000000000000000000000000000000000000000000000000000005f52602260045260245ffd5b5f60028204905060018216806109a957607f821691505b6020821081036109bc576109bb610965565b5b50919050565b5f819050815f5260205f209050919050565b5f6020601f8301049050919050565b5f82821b905092915050565b5f60088302610a1e7fffffffffffffffffffffffffffffffffffffffffffffffffffffffffffffffff826109e3565b610a2886836109e3565b95508019841693508086168417925050509392505050565b5f819050919050565b5f610a63610a5e610a59846106ac565b610a40565b6106ac565b9050919050565b5f819050919050565b610a7c83610a49565b610a90610a8882610a6a565b8484546109ef565b825550505050565b5f90565b610aa4610a98565b610aaf818484610a73565b505050565b5b81811015610ad257610ac75f82610a9c565b600181019050610ab5565b5050565b601f821115610b1757610ae8816109c2565b610af1846109d4565b81016020851015610b00578190505b610b14610b0c856109d4565b830182610ab4565b50505b505050565b5f82821c905092915050565b5f610b375f1984600802610b1c565b1980831691505092915050565b5f610b4f8383610b28565b9150826002028217905092915050565b610b68826107c6565b67ffffffffffffffff811115610b8157610b80610588565b5b610b8b8254610992565b610b96828285610ad6565b5f60209050601f831160018114610bc7575f8415610bb5578287015190505b610bbf8582610b44565b865550610c26565b601f198416610bd5866109c2565b5f5b82811015610bfc57848901518255600182019150602085019450602081019050610bd7565b86831015610c195784890151610c15601f891682610b28565b8355505b6001600288020188555050505b50505050505056fea2646970667358221220577463558c56248222521b4aed9534a08444834138ceb78eb8389b16155e8f3664736f6c634300081a0033",
			"opcodes": "PUSH1 0x80 PUSH1 0x40 MSTORE CALLVALUE DUP1 ISZERO PUSH1 0xE JUMPI PUSH0 DUP1 REVERT JUMPDEST POP PUSH2 0xC64 DUP1 PUSH2 0x1C PUSH0 CODECOPY PUSH0 RETURN INVALID PUSH1 0x80 PUSH1 0x40 MSTORE CALLVALUE DUP1 ISZERO PUSH2 0xF JUMPI PUSH0 DUP1 REVERT JUMPDEST POP PUSH1 0x4 CALLDATASIZE LT PUSH2 0x3F JUMPI PUSH0 CALLDATALOAD PUSH1 0xE0 SHR DUP1 PUSH4 0x570B261A EQ PUSH2 0x43 JUMPI DUP1 PUSH4 0x5D65875F EQ PUSH2 0x5F JUMPI DUP1 PUSH4 0x77EC2B55 EQ PUSH2 0x7F JUMPI JUMPDEST PUSH0 DUP1 REVERT JUMPDEST PUSH2 0x5D PUSH1 0x4 DUP1 CALLDATASIZE SUB DUP2 ADD SWAP1 PUSH2 0x58 SWAP2 SWAP1 PUSH2 0x6DF JUMP JUMPDEST PUSH2 0x9F JUMP JUMPDEST STOP JUMPDEST PUSH2 0x67 PUSH2 0x148 JUMP JUMPDEST PUSH1 0x40 MLOAD PUSH2 0x76 SWAP4 SWAP3 SWAP2 SWAP1 PUSH2 0x826 JUMP JUMPDEST PUSH1 0x40 MLOAD DUP1 SWAP2 SUB SWAP1 RETURN JUMPDEST PUSH2 0x87 PUSH2 0x30A JUMP JUMPDEST PUSH1 0x40 MLOAD PUSH2 0x96 SWAP4 SWAP3 SWAP2 SWAP1 PUSH2 0x922 JUMP JUMPDEST PUSH1 0x40 MLOAD DUP1 SWAP2 SUB SWAP1 RETURN JUMPDEST PUSH1 0x40 MLOAD DUP1 PUSH1 0x60 ADD PUSH1 0x40 MSTORE DUP1 DUP7 DUP2 MSTORE PUSH1 0x20 ADD DUP6 DUP2 MSTORE PUSH1 0x20 ADD PUSH1 0x40 MLOAD DUP1 PUSH1 0x60 ADD PUSH1 0x40 MSTORE DUP1 DUP7 DUP2 MSTORE PUSH1 0x20 ADD DUP6 DUP2 MSTORE PUSH1 0x20 ADD DUP5 DUP2 MSTORE POP DUP2 MSTORE POP PUSH0 DUP1 DUP3 ADD MLOAD DUP2 PUSH0 ADD SWAP1 DUP2 PUSH2 0xE8 SWAP2 SWAP1 PUSH2 0xB5F JUMP JUMPDEST POP PUSH1 0x20 DUP3 ADD MLOAD DUP2 PUSH1 0x1 ADD SSTORE PUSH1 0x40 DUP3 ADD MLOAD DUP2 PUSH1 0x2 ADD PUSH0 DUP3 ADD MLOAD DUP2 PUSH0 ADD SWAP1 DUP2 PUSH2 0x10F SWAP2 SWAP1 PUSH2 0xB5F JUMP JUMPDEST POP PUSH1 0x20 DUP3 ADD MLOAD DUP2 PUSH1 0x1 ADD SWAP1 DUP2 PUSH2 0x125 SWAP2 SWAP1 PUSH2 0xB5F JUMP JUMPDEST POP PUSH1 0x40 DUP3 ADD MLOAD DUP2 PUSH1 0x2 ADD SWAP1 DUP2 PUSH2 0x13B SWAP2 SWAP1 PUSH2 0xB5F JUMP JUMPDEST POP POP POP SWAP1 POP POP POP POP POP POP POP JUMP JUMPDEST PUSH1 0x60 DUP1 PUSH1 0x60 PUSH0 PUSH1 0x2 ADD PUSH0 ADD PUSH0 PUSH1 0x2 ADD PUSH1 0x1 ADD PUSH0 PUSH1 0x2 ADD PUSH1 0x2 ADD DUP3 DUP1 SLOAD PUSH2 0x16D SWAP1 PUSH2 0x992 JUMP JUMPDEST DUP1 PUSH1 0x1F ADD PUSH1 0x20 DUP1 SWAP2 DIV MUL PUSH1 0x20 ADD PUSH1 0x40 MLOAD SWAP1 DUP2 ADD PUSH1 0x40 MSTORE DUP1 SWAP3 SWAP2 SWAP1 DUP2 DUP2 MSTORE PUSH1 0x20 ADD DUP3 DUP1 SLOAD PUSH2 0x199 SWAP1 PUSH2 0x992 JUMP JUMPDEST DUP1 ISZERO PUSH2 0x1E4 JUMPI DUP1 PUSH1 0x1F LT PUSH2 0x1BB JUMPI PUSH2 0x100 DUP1 DUP4 SLOAD DIV MUL DUP4 MSTORE SWAP2 PUSH1 0x20 ADD SWAP2 PUSH2 0x1E4 JUMP JUMPDEST DUP3 ADD SWAP2 SWAP1 PUSH0 MSTORE PUSH1 0x20 PUSH0 KECCAK256 SWAP1 JUMPDEST DUP2 SLOAD DUP2 MSTORE SWAP1 PUSH1 0x1 ADD SWAP1 PUSH1 0x20 ADD DUP1 DUP4 GT PUSH2 0x1C7 JUMPI DUP3 SWAP1 SUB PUSH1 0x1F AND DUP3 ADD SWAP2 JUMPDEST POP POP POP POP POP SWAP3 POP DUP2 DUP1 SLOAD PUSH2 0x1F7 SWAP1 PUSH2 0x992 JUMP JUMPDEST DUP1 PUSH1 0x1F ADD PUSH1 0x20 DUP1 SWAP2 DIV MUL PUSH1 0x20 ADD PUSH1 0x40 MLOAD SWAP1 DUP2 ADD PUSH1 0x40 MSTORE DUP1 SWAP3 SWAP2 SWAP1 DUP2 DUP2 MSTORE PUSH1 0x20 ADD DUP3 DUP1 SLOAD PUSH2 0x223 SWAP1 PUSH2 0x992 JUMP JUMPDEST DUP1 ISZERO PUSH2 0x26E JUMPI DUP1 PUSH1 0x1F LT PUSH2 0x245 JUMPI PUSH2 0x100 DUP1 DUP4 SLOAD DIV MUL DUP4 MSTORE SWAP2 PUSH1 0x20 ADD SWAP2 PUSH2 0x26E JUMP JUMPDEST DUP3 ADD SWAP2 SWAP1 PUSH0 MSTORE PUSH1 0x20 PUSH0 KECCAK256 SWAP1 JUMPDEST DUP2 SLOAD DUP2 MSTORE SWAP1 PUSH1 0x1 ADD SWAP1 PUSH1 0x20 ADD DUP1 DUP4 GT PUSH2 0x251 JUMPI DUP3 SWAP1 SUB PUSH1 0x1F AND DUP3 ADD SWAP2 JUMPDEST POP POP POP POP POP SWAP2 POP DUP1 DUP1 SLOAD PUSH2 0x281 SWAP1 PUSH2 0x992 JUMP JUMPDEST DUP1 PUSH1 0x1F ADD PUSH1 0x20 DUP1 SWAP2 DIV MUL PUSH1 0x20 ADD PUSH1 0x40 MLOAD SWAP1 DUP2 ADD PUSH1 0x40 MSTORE DUP1 SWAP3 SWAP2 SWAP1 DUP2 DUP2 MSTORE PUSH1 0x20 ADD DUP3 DUP1 SLOAD PUSH2 0x2AD SWAP1 PUSH2 0x992 JUMP JUMPDEST DUP1 ISZERO PUSH2 0x2F8 JUMPI DUP1 PUSH1 0x1F LT PUSH2 0x2CF JUMPI PUSH2 0x100 DUP1 DUP4 SLOAD DIV MUL DUP4 MSTORE SWAP2 PUSH1 0x20 ADD SWAP2 PUSH2 0x2F8 JUMP JUMPDEST DUP3 ADD SWAP2 SWAP1 PUSH0 MSTORE PUSH1 0x20 PUSH0 KECCAK256 SWAP1 JUMPDEST DUP2 SLOAD DUP2 MSTORE SWAP1 PUSH1 0x1 ADD SWAP1 PUSH1 0x20 ADD DUP1 DUP4 GT PUSH2 0x2DB JUMPI DUP3 SWAP1 SUB PUSH1 0x1F AND DUP3 ADD SWAP2 JUMPDEST POP POP POP POP POP SWAP1 POP SWAP3 POP SWAP3 POP SWAP3 POP SWAP1 SWAP2 SWAP3 JUMP JUMPDEST PUSH0 DUP1 PUSH0 ADD DUP1 SLOAD PUSH2 0x319 SWAP1 PUSH2 0x992 JUMP JUMPDEST DUP1 PUSH1 0x1F ADD PUSH1 0x20 DUP1 SWAP2 DIV MUL PUSH1 0x20 ADD PUSH1 0x40 MLOAD SWAP1 DUP2 ADD PUSH1 0x40 MSTORE DUP1 SWAP3 SWAP2 SWAP1 DUP2 DUP2 MSTORE PUSH1 0x20 ADD DUP3 DUP1 SLOAD PUSH2 0x345 SWAP1 PUSH2 0x992 JUMP JUMPDEST DUP1 ISZERO PUSH2 0x390 JUMPI DUP1 PUSH1 0x1F LT PUSH2 0x367 JUMPI PUSH2 0x100 DUP1 DUP4 SLOAD DIV MUL DUP4 MSTORE SWAP2 PUSH1 0x20 ADD SWAP2 PUSH2 0x390 JUMP JUMPDEST DUP3 ADD SWAP2 SWAP1 PUSH0 MSTORE PUSH1 0x20 PUSH0 KECCAK256 SWAP1 JUMPDEST DUP2 SLOAD DUP2 MSTORE SWAP1 PUSH1 0x1 ADD SWAP1 PUSH1 0x20 ADD DUP1 DUP4 GT PUSH2 0x373 JUMPI DUP3 SWAP1 SUB PUSH1 0x1F AND DUP3 ADD SWAP2 JUMPDEST POP POP POP POP POP SWAP1 DUP1 PUSH1 0x1 ADD SLOAD SWAP1 DUP1 PUSH1 0x2 ADD PUSH1 0x40 MLOAD DUP1 PUSH1 0x60 ADD PUSH1 0x40 MSTORE SWAP1 DUP2 PUSH0 DUP3 ADD DUP1 SLOAD PUSH2 0x3BA SWAP1 PUSH2 0x992 JUMP JUMPDEST DUP1 PUSH1 0x1F ADD PUSH1 0x20 DUP1 SWAP2 DIV MUL PUSH1 0x20 ADD PUSH1 0x40 MLOAD SWAP1 DUP2 ADD PUSH1 0x40 MSTORE DUP1 SWAP3 SWAP2 SWAP1 DUP2 DUP2 MSTORE PUSH1 0x20 ADD DUP3 DUP1 SLOAD PUSH2 0x3E6 SWAP1 PUSH2 0x992 JUMP JUMPDEST DUP1 ISZERO PUSH2 0x431 JUMPI DUP1 PUSH1 0x1F LT PUSH2 0x408 JUMPI PUSH2 0x100 DUP1 DUP4 SLOAD DIV MUL DUP4 MSTORE SWAP2 PUSH1 0x20 ADD SWAP2 PUSH2 0x431 JUMP JUMPDEST DUP3 ADD SWAP2 SWAP1 PUSH0 MSTORE PUSH1 0x20 PUSH0 KECCAK256 SWAP1 JUMPDEST DUP2 SLOAD DUP2 MSTORE SWAP1 PUSH1 0x1 ADD SWAP1 PUSH1 0x20 ADD DUP1 DUP4 GT PUSH2 0x414 JUMPI DUP3 SWAP1 SUB PUSH1 0x1F AND DUP3 ADD SWAP2 JUMPDEST POP POP POP POP POP DUP2 MSTORE PUSH1 0x20 ADD PUSH1 0x1 DUP3 ADD DUP1 SLOAD PUSH2 0x44A SWAP1 PUSH2 0x992 JUMP JUMPDEST DUP1 PUSH1 0x1F ADD PUSH1 0x20 DUP1 SWAP2 DIV MUL PUSH1 0x20 ADD PUSH1 0x40 MLOAD SWAP1 DUP2 ADD PUSH1 0x40 MSTORE DUP1 SWAP3 SWAP2 SWAP1 DUP2 DUP2 MSTORE PUSH1 0x20 ADD DUP3 DUP1 SLOAD PUSH2 0x476 SWAP1 PUSH2 0x992 JUMP JUMPDEST DUP1 ISZERO PUSH2 0x4C1 JUMPI DUP1 PUSH1 0x1F LT PUSH2 0x498 JUMPI PUSH2 0x100 DUP1 DUP4 SLOAD DIV MUL DUP4 MSTORE SWAP2 PUSH1 0x20 ADD SWAP2 PUSH2 0x4C1 JUMP JUMPDEST DUP3 ADD SWAP2 SWAP1 PUSH0 MSTORE PUSH1 0x20 PUSH0 KECCAK256 SWAP1 JUMPDEST DUP2 SLOAD DUP2 MSTORE SWAP1 PUSH1 0x1 ADD SWAP1 PUSH1 0x20 ADD DUP1 DUP4 GT PUSH2 0x4A4 JUMPI DUP3 SWAP1 SUB PUSH1 0x1F AND DUP3 ADD SWAP2 JUMPDEST POP POP POP POP POP DUP2 MSTORE PUSH1 0x20 ADD PUSH1 0x2 DUP3 ADD DUP1 SLOAD PUSH2 0x4DA SWAP1 PUSH2 0x992 JUMP JUMPDEST DUP1 PUSH1 0x1F ADD PUSH1 0x20 DUP1 SWAP2 DIV MUL PUSH1 0x20 ADD PUSH1 0x40 MLOAD SWAP1 DUP2 ADD PUSH1 0x40 MSTORE DUP1 SWAP3 SWAP2 SWAP1 DUP2 DUP2 MSTORE PUSH1 0x20 ADD DUP3 DUP1 SLOAD PUSH2 0x506 SWAP1 PUSH2 0x992 JUMP JUMPDEST DUP1 ISZERO PUSH2 0x551 JUMPI DUP1 PUSH1 0x1F LT PUSH2 0x528 JUMPI PUSH2 0x100 DUP1 DUP4 SLOAD DIV MUL DUP4 MSTORE SWAP2 PUSH1 0x20 ADD SWAP2 PUSH2 0x551 JUMP JUMPDEST DUP3 ADD SWAP2 SWAP1 PUSH0 MSTORE PUSH1 0x20 PUSH0 KECCAK256 SWAP1 JUMPDEST DUP2 SLOAD DUP2 MSTORE SWAP1 PUSH1 0x1 ADD SWAP1 PUSH1 0x20 ADD DUP1 DUP4 GT PUSH2 0x534 JUMPI DUP3 SWAP1 SUB PUSH1 0x1F AND DUP3 ADD SWAP2 JUMPDEST POP POP POP POP POP DUP2 MSTORE POP POP SWAP1 POP DUP4 JUMP JUMPDEST PUSH0 PUSH1 0x40 MLOAD SWAP1 POP SWAP1 JUMP JUMPDEST PUSH0 DUP1 REVERT JUMPDEST PUSH0 DUP1 REVERT JUMPDEST PUSH0 DUP1 REVERT JUMPDEST PUSH0 DUP1 REVERT JUMPDEST PUSH0 PUSH1 0x1F NOT PUSH1 0x1F DUP4 ADD AND SWAP1 POP SWAP2 SWAP1 POP JUMP JUMPDEST PUSH32 0x4E487B7100000000000000000000000000000000000000000000000000000000 PUSH0 MSTORE PUSH1 0x41 PUSH1 0x4 MSTORE PUSH1 0x24 PUSH0 REVERT JUMPDEST PUSH2 0x5BE DUP3 PUSH2 0x578 JUMP JUMPDEST DUP2 ADD DUP2 DUP2 LT PUSH8 0xFFFFFFFFFFFFFFFF DUP3 GT OR ISZERO PUSH2 0x5DD JUMPI PUSH2 0x5DC PUSH2 0x588 JUMP JUMPDEST JUMPDEST DUP1 PUSH1 0x40 MSTORE POP POP POP JUMP JUMPDEST PUSH0 PUSH2 0x5EF PUSH2 0x55F JUMP JUMPDEST SWAP1 POP PUSH2 0x5FB DUP3 DUP3 PUSH2 0x5B5 JUMP JUMPDEST SWAP2 SWAP1 POP JUMP JUMPDEST PUSH0 PUSH8 0xFFFFFFFFFFFFFFFF DUP3 GT ISZERO PUSH2 0x61A JUMPI PUSH2 0x619 PUSH2 0x588 JUMP JUMPDEST JUMPDEST PUSH2 0x623 DUP3 PUSH2 0x578 JUMP JUMPDEST SWAP1 POP PUSH1 0x20 DUP2 ADD SWAP1 POP SWAP2 SWAP1 POP JUMP JUMPDEST DUP3 DUP2 DUP4 CALLDATACOPY PUSH0 DUP4 DUP4 ADD MSTORE POP POP POP JUMP JUMPDEST PUSH0 PUSH2 0x650 PUSH2 0x64B DUP5 PUSH2 0x600 JUMP JUMPDEST PUSH2 0x5E6 JUMP JUMPDEST SWAP1 POP DUP3 DUP2 MSTORE PUSH1 0x20 DUP2 ADD DUP5 DUP5 DUP5 ADD GT ISZERO PUSH2 0x66C JUMPI PUSH2 0x66B PUSH2 0x574 JUMP JUMPDEST JUMPDEST PUSH2 0x677 DUP5 DUP3 DUP6 PUSH2 0x630 JUMP JUMPDEST POP SWAP4 SWAP3 POP POP POP JUMP JUMPDEST PUSH0 DUP3 PUSH1 0x1F DUP4 ADD SLT PUSH2 0x693 JUMPI PUSH2 0x692 PUSH2 0x570 JUMP JUMPDEST JUMPDEST DUP2 CALLDATALOAD PUSH2 0x6A3 DUP5 DUP3 PUSH1 0x20 DUP7 ADD PUSH2 0x63E JUMP JUMPDEST SWAP2 POP POP SWAP3 SWAP2 POP POP JUMP JUMPDEST PUSH0 DUP2 SWAP1 POP SWAP2 SWAP1 POP JUMP JUMPDEST PUSH2 0x6BE DUP2 PUSH2 0x6AC JUMP JUMPDEST DUP2 EQ PUSH2 0x6C8 JUMPI PUSH0 DUP1 REVERT JUMPDEST POP JUMP JUMPDEST PUSH0 DUP2 CALLDATALOAD SWAP1 POP PUSH2 0x6D9 DUP2 PUSH2 0x6B5 JUMP JUMPDEST SWAP3 SWAP2 POP POP JUMP JUMPDEST PUSH0 DUP1 PUSH0 DUP1 PUSH0 PUSH1 0xA0 DUP7 DUP9 SUB SLT ISZERO PUSH2 0x6F8 JUMPI PUSH2 0x6F7 PUSH2 0x568 JUMP JUMPDEST JUMPDEST PUSH0 DUP7 ADD CALLDATALOAD PUSH8 0xFFFFFFFFFFFFFFFF DUP2 GT ISZERO PUSH2 0x715 JUMPI PUSH2 0x714 PUSH2 0x56C JUMP JUMPDEST JUMPDEST PUSH2 0x721 DUP9 DUP3 DUP10 ADD PUSH2 0x67F JUMP JUMPDEST SWAP6 POP POP PUSH1 0x20 PUSH2 0x732 DUP9 DUP3 DUP10 ADD PUSH2 0x6CB JUMP JUMPDEST SWAP5 POP POP PUSH1 0x40 DUP7 ADD CALLDATALOAD PUSH8 0xFFFFFFFFFFFFFFFF DUP2 GT ISZERO PUSH2 0x753 JUMPI PUSH2 0x752 PUSH2 0x56C JUMP JUMPDEST JUMPDEST PUSH2 0x75F DUP9 DUP3 DUP10 ADD PUSH2 0x67F JUMP JUMPDEST SWAP4 POP POP PUSH1 0x60 DUP7 ADD CALLDATALOAD PUSH8 0xFFFFFFFFFFFFFFFF DUP2 GT ISZERO PUSH2 0x780 JUMPI PUSH2 0x77F PUSH2 0x56C JUMP JUMPDEST JUMPDEST PUSH2 0x78C DUP9 DUP3 DUP10 ADD PUSH2 0x67F JUMP JUMPDEST SWAP3 POP POP PUSH1 0x80 DUP7 ADD CALLDATALOAD PUSH8 0xFFFFFFFFFFFFFFFF DUP2 GT ISZERO PUSH2 0x7AD JUMPI PUSH2 0x7AC PUSH2 0x56C JUMP JUMPDEST JUMPDEST PUSH2 0x7B9 DUP9 DUP3 DUP10 ADD PUSH2 0x67F JUMP JUMPDEST SWAP2 POP POP SWAP3 SWAP6 POP SWAP3 SWAP6 SWAP1 SWAP4 POP JUMP JUMPDEST PUSH0 DUP2 MLOAD SWAP1 POP SWAP2 SWAP1 POP JUMP JUMPDEST PUSH0 DUP3 DUP3 MSTORE PUSH1 0x20 DUP3 ADD SWAP1 POP SWAP3 SWAP2 POP POP JUMP JUMPDEST DUP3 DUP2 DUP4 MCOPY PUSH0 DUP4 DUP4 ADD MSTORE POP POP POP JUMP JUMPDEST PUSH0 PUSH2 0x7F8 DUP3 PUSH2 0x7C6 JUMP JUMPDEST PUSH2 0x802 DUP2 DUP6 PUSH2 0x7D0 JUMP JUMPDEST SWAP4 POP PUSH2 0x812 DUP2 DUP6 PUSH1 0x20 DUP7 ADD PUSH2 0x7E0 JUMP JUMPDEST PUSH2 0x81B DUP2 PUSH2 0x578 JUMP JUMPDEST DUP5 ADD SWAP2 POP POP SWAP3 SWAP2 POP POP JUMP JUMPDEST PUSH0 PUSH1 0x60 DUP3 ADD SWAP1 POP DUP2 DUP2 SUB PUSH0 DUP4 ADD MSTORE PUSH2 0x83E DUP2 DUP7 PUSH2 0x7EE JUMP JUMPDEST SWAP1 POP DUP2 DUP2 SUB PUSH1 0x20 DUP4 ADD MSTORE PUSH2 0x852 DUP2 DUP6 PUSH2 0x7EE JUMP JUMPDEST SWAP1 POP DUP2 DUP2 SUB PUSH1 0x40 DUP4 ADD MSTORE PUSH2 0x866 DUP2 DUP5 PUSH2 0x7EE JUMP JUMPDEST SWAP1 POP SWAP5 SWAP4 POP POP POP POP JUMP JUMPDEST PUSH2 0x879 DUP2 PUSH2 0x6AC JUMP JUMPDEST DUP3 MSTORE POP POP JUMP JUMPDEST PUSH0 DUP3 DUP3 MSTORE PUSH1 0x20 DUP3 ADD SWAP1 POP SWAP3 SWAP2 POP POP JUMP JUMPDEST PUSH0 PUSH2 0x899 DUP3 PUSH2 0x7C6 JUMP JUMPDEST PUSH2 0x8A3 DUP2 DUP6 PUSH2 0x87F JUMP JUMPDEST SWAP4 POP PUSH2 0x8B3 DUP2 DUP6 PUSH1 0x20 DUP7 ADD PUSH2 0x7E0 JUMP JUMPDEST PUSH2 0x8BC DUP2 PUSH2 0x578 JUMP JUMPDEST DUP5 ADD SWAP2 POP POP SWAP3 SWAP2 POP POP JUMP JUMPDEST PUSH0 PUSH1 0x60 DUP4 ADD PUSH0 DUP4 ADD MLOAD DUP5 DUP3 SUB PUSH0 DUP7 ADD MSTORE PUSH2 0x8E1 DUP3 DUP3 PUSH2 0x88F JUMP JUMPDEST SWAP2 POP POP PUSH1 0x20 DUP4 ADD MLOAD DUP5 DUP3 SUB PUSH1 0x20 DUP7 ADD MSTORE PUSH2 0x8FB DUP3 DUP3 PUSH2 0x88F JUMP JUMPDEST SWAP2 POP POP PUSH1 0x40 DUP4 ADD MLOAD DUP5 DUP3 SUB PUSH1 0x40 DUP7 ADD MSTORE PUSH2 0x915 DUP3 DUP3 PUSH2 0x88F JUMP JUMPDEST SWAP2 POP POP DUP1 SWAP2 POP POP SWAP3 SWAP2 POP POP JUMP JUMPDEST PUSH0 PUSH1 0x60 DUP3 ADD SWAP1 POP DUP2 DUP2 SUB PUSH0 DUP4 ADD MSTORE PUSH2 0x93A DUP2 DUP7 PUSH2 0x7EE JUMP JUMPDEST SWAP1 POP PUSH2 0x949 PUSH1 0x20 DUP4 ADD DUP6 PUSH2 0x870 JUMP JUMPDEST DUP2 DUP2 SUB PUSH1 0x40 DUP4 ADD MSTORE PUSH2 0x95B DUP2 DUP5 PUSH2 0x8C7 JUMP JUMPDEST SWAP1 POP SWAP5 SWAP4 POP POP POP POP JUMP JUMPDEST PUSH32 0x4E487B7100000000000000000000000000000000000000000000000000000000 PUSH0 MSTORE PUSH1 0x22 PUSH1 0x4 MSTORE PUSH1 0x24 PUSH0 REVERT JUMPDEST PUSH0 PUSH1 0x2 DUP3 DIV SWAP1 POP PUSH1 0x1 DUP3 AND DUP1 PUSH2 0x9A9 JUMPI PUSH1 0x7F DUP3 AND SWAP2 POP JUMPDEST PUSH1 0x20 DUP3 LT DUP2 SUB PUSH2 0x9BC JUMPI PUSH2 0x9BB PUSH2 0x965 JUMP JUMPDEST JUMPDEST POP SWAP2 SWAP1 POP JUMP JUMPDEST PUSH0 DUP2 SWAP1 POP DUP2 PUSH0 MSTORE PUSH1 0x20 PUSH0 KECCAK256 SWAP1 POP SWAP2 SWAP1 POP JUMP JUMPDEST PUSH0 PUSH1 0x20 PUSH1 0x1F DUP4 ADD DIV SWAP1 POP SWAP2 SWAP1 POP JUMP JUMPDEST PUSH0 DUP3 DUP3 SHL SWAP1 POP SWAP3 SWAP2 POP POP JUMP JUMPDEST PUSH0 PUSH1 0x8 DUP4 MUL PUSH2 0xA1E PUSH32 0xFFFFFFFFFFFFFFFFFFFFFFFFFFFFFFFFFFFFFFFFFFFFFFFFFFFFFFFFFFFFFFFF DUP3 PUSH2 0x9E3 JUMP JUMPDEST PUSH2 0xA28 DUP7 DUP4 PUSH2 0x9E3 JUMP JUMPDEST SWAP6 POP DUP1 NOT DUP5 AND SWAP4 POP DUP1 DUP7 AND DUP5 OR SWAP3 POP POP POP SWAP4 SWAP3 POP POP POP JUMP JUMPDEST PUSH0 DUP2 SWAP1 POP SWAP2 SWAP1 POP JUMP JUMPDEST PUSH0 PUSH2 0xA63 PUSH2 0xA5E PUSH2 0xA59 DUP5 PUSH2 0x6AC JUMP JUMPDEST PUSH2 0xA40 JUMP JUMPDEST PUSH2 0x6AC JUMP JUMPDEST SWAP1 POP SWAP2 SWAP1 POP JUMP JUMPDEST PUSH0 DUP2 SWAP1 POP SWAP2 SWAP1 POP JUMP JUMPDEST PUSH2 0xA7C DUP4 PUSH2 0xA49 JUMP JUMPDEST PUSH2 0xA90 PUSH2 0xA88 DUP3 PUSH2 0xA6A JUMP JUMPDEST DUP5 DUP5 SLOAD PUSH2 0x9EF JUMP JUMPDEST DUP3 SSTORE POP POP POP POP JUMP JUMPDEST PUSH0 SWAP1 JUMP JUMPDEST PUSH2 0xAA4 PUSH2 0xA98 JUMP JUMPDEST PUSH2 0xAAF DUP2 DUP5 DUP5 PUSH2 0xA73 JUMP JUMPDEST POP POP POP JUMP JUMPDEST JUMPDEST DUP2 DUP2 LT ISZERO PUSH2 0xAD2 JUMPI PUSH2 0xAC7 PUSH0 DUP3 PUSH2 0xA9C JUMP JUMPDEST PUSH1 0x1 DUP2 ADD SWAP1 POP PUSH2 0xAB5 JUMP JUMPDEST POP POP JUMP JUMPDEST PUSH1 0x1F DUP3 GT ISZERO PUSH2 0xB17 JUMPI PUSH2 0xAE8 DUP2 PUSH2 0x9C2 JUMP JUMPDEST PUSH2 0xAF1 DUP5 PUSH2 0x9D4 JUMP JUMPDEST DUP2 ADD PUSH1 0x20 DUP6 LT ISZERO PUSH2 0xB00 JUMPI DUP2 SWAP1 POP JUMPDEST PUSH2 0xB14 PUSH2 0xB0C DUP6 PUSH2 0x9D4 JUMP JUMPDEST DUP4 ADD DUP3 PUSH2 0xAB4 JUMP JUMPDEST POP POP JUMPDEST POP POP POP JUMP JUMPDEST PUSH0 DUP3 DUP3 SHR SWAP1 POP SWAP3 SWAP2 POP POP JUMP JUMPDEST PUSH0 PUSH2 0xB37 PUSH0 NOT DUP5 PUSH1 0x8 MUL PUSH2 0xB1C JUMP JUMPDEST NOT DUP1 DUP4 AND SWAP2 POP POP SWAP3 SWAP2 POP POP JUMP JUMPDEST PUSH0 PUSH2 0xB4F DUP4 DUP4 PUSH2 0xB28 JUMP JUMPDEST SWAP2 POP DUP3 PUSH1 0x2 MUL DUP3 OR SWAP1 POP SWAP3 SWAP2 POP POP JUMP JUMPDEST PUSH2 0xB68 DUP3 PUSH2 0x7C6 JUMP JUMPDEST PUSH8 0xFFFFFFFFFFFFFFFF DUP2 GT ISZERO PUSH2 0xB81 JUMPI PUSH2 0xB80 PUSH2 0x588 JUMP JUMPDEST JUMPDEST PUSH2 0xB8B DUP3 SLOAD PUSH2 0x992 JUMP JUMPDEST PUSH2 0xB96 DUP3 DUP3 DUP6 PUSH2 0xAD6 JUMP JUMPDEST PUSH0 PUSH1 0x20 SWAP1 POP PUSH1 0x1F DUP4 GT PUSH1 0x1 DUP2 EQ PUSH2 0xBC7 JUMPI PUSH0 DUP5 ISZERO PUSH2 0xBB5 JUMPI DUP3 DUP8 ADD MLOAD SWAP1 POP JUMPDEST PUSH2 0xBBF DUP6 DUP3 PUSH2 0xB44 JUMP JUMPDEST DUP7 SSTORE POP PUSH2 0xC26 JUMP JUMPDEST PUSH1 0x1F NOT DUP5 AND PUSH2 0xBD5 DUP7 PUSH2 0x9C2 JUMP JUMPDEST PUSH0 JUMPDEST DUP3 DUP2 LT ISZERO PUSH2 0xBFC JUMPI DUP5 DUP10 ADD MLOAD DUP3 SSTORE PUSH1 0x1 DUP3 ADD SWAP2 POP PUSH1 0x20 DUP6 ADD SWAP5 POP PUSH1 0x20 DUP2 ADD SWAP1 POP PUSH2 0xBD7 JUMP JUMPDEST DUP7 DUP4 LT ISZERO PUSH2 0xC19 JUMPI DUP5 DUP10 ADD MLOAD PUSH2 0xC15 PUSH1 0x1F DUP10 AND DUP3 PUSH2 0xB28 JUMP JUMPDEST DUP4 SSTORE POP JUMPDEST PUSH1 0x1 PUSH1 0x2 DUP9 MUL ADD DUP9 SSTORE POP POP POP JUMPDEST POP POP POP POP POP POP JUMP INVALID LOG2 PUSH5 0x6970667358 0x22 SLT KECCAK256 JUMPI PUSH21 0x63558C56248222521B4AED9534A08444834138CEB7 DUP15 0xB8 CODESIZE SWAP12 AND ISZERO MCOPY DUP16 CALLDATASIZE PUSH5 0x736F6C6343 STOP ADDMOD BYTE STOP CALLER "
		},
		"gasEstimates": {
			"creation": {
				"codeDepositCost": "634400",
				"executionCost": "668",
				"totalCost": "635068"
			},
			"external": {
				"getPersonAddress()": "infinite",
				"person()": "infinite",
				"setPerson(string,uint256,string,string,string)": "infinite"
			}
		},
		"methodIdentifiers": {
			"getPersonAddress()": "5d65875f",
			"person()": "77ec2b55",
			"setPerson(string,uint256,string,string,string)": "570b261a"
		}
	},
	"abi": [
		{
			"inputs": [],
			"name": "getPersonAddress",
			"outputs": [
				{
					"internalType": "string",
					"name": "",
					"type": "string"
				},
				{
					"internalType": "string",
					"name": "",
					"type": "string"
				},
				{
					"internalType": "string",
					"name": "",
					"type": "string"
				}
			],
			"stateMutability": "view",
			"type": "function"
		},
		{
			"inputs": [],
			"name": "person",
			"outputs": [
				{
					"internalType": "string",
					"name": "name",
					"type": "string"
				},
				{
					"internalType": "uint256",
					"name": "age",
					"type": "uint256"
				},
				{
					"components": [
						{
							"internalType": "string",
							"name": "street",
							"type": "string"
						},
						{
							"internalType": "string",
							"name": "city",
							"type": "string"
						},
						{
							"internalType": "string",
							"name": "state",
							"type": "string"
						}
					],
					"internalType": "struct ExampleContract.Address",
					"name": "addressInfo",
					"type": "tuple"
				}
			],
			"stateMutability": "view",
			"type": "function"
		},
		{
			"inputs": [
				{
					"internalType": "string",
					"name": "_name",
					"type": "string"
				},
				{
					"internalType": "uint256",
					"name": "_age",
					"type": "uint256"
				},
				{
					"internalType": "string",
					"name": "_street",
					"type": "string"
				},
				{
					"internalType": "string",
					"name": "_city",
					"type": "string"
				},
				{
					"internalType": "string",
					"name": "_state",
					"type": "string"
				}
			],
			"name": "setPerson",
			"outputs": [],
			"stateMutability": "nonpayable",
			"type": "function"
		}
	]
}