{
	"data": {
		"bytecode": {
			"linkReferences": {},
			"object": "6080604052348015600e575f80fd5b506109048061001c5f395ff3fe608060405234801561000f575f80fd5b506004361061004a575f3560e01c806377ec2b551461004e578063ae512f911461006e578063b55003fa1461008a578063cd4161ec146100a8575b5f80fd5b6100566100c4565b60405161006593929190610381565b60405180910390f35b610088600480360381019061008391906103f8565b61017f565b005b61009261018b565b60405161009f9190610423565b60405180910390f35b6100c260048036038101906100bd9190610599565b61021c565b005b5f805f0180546100d390610632565b80601f01602080910402602001604051908101604052809291908181526020018280546100ff90610632565b801561014a5780601f106101215761010080835404028352916020019161014a565b820191905f5260205f20905b81548152906001019060200180831161012d57829003601f168201915b505050505090806001015490806002015f9054906101000a900473ffffffffffffffffffffffffffffffffffffffff16905083565b805f6001018190555050565b60605f8001805461019b90610632565b80601f01602080910402602001604051908101604052809291908181526020018280546101c790610632565b80156102125780601f106101e957610100808354040283529160200191610212565b820191905f5260205f20905b8154815290600101906020018083116101f557829003601f168201915b5050505050905090565b60405180606001604052808481526020018381526020018273ffffffffffffffffffffffffffffffffffffffff168152505f80820151815f01908161026191906107ff565b50602082015181600101556040820151816002015f6101000a81548173ffffffffffffffffffffffffffffffffffffffff021916908373ffffffffffffffffffffffffffffffffffffffff160217905550905050505050565b5f81519050919050565b5f82825260208201905092915050565b8281835e5f83830152505050565b5f601f19601f8301169050919050565b5f6102fc826102ba565b61030681856102c4565b93506103168185602086016102d4565b61031f816102e2565b840191505092915050565b5f819050919050565b61033c8161032a565b82525050565b5f73ffffffffffffffffffffffffffffffffffffffff82169050919050565b5f61036b82610342565b9050919050565b61037b81610361565b82525050565b5f6060820190508181035f83015261039981866102f2565b90506103a86020830185610333565b6103b56040830184610372565b949350505050565b5f604051905090565b5f80fd5b5f80fd5b6103d78161032a565b81146103e1575f80fd5b50565b5f813590506103f2816103ce565b92915050565b5f6020828403121561040d5761040c6103c6565b5b5f61041a848285016103e4565b91505092915050565b5f6020820190508181035f83015261043b81846102f2565b905092915050565b5f80fd5b5f80fd5b7f4e487b71000000000000000000000000000000000000000000000000000000005f52604160045260245ffd5b610481826102e2565b810181811067ffffffffffffffff821117156104a05761049f61044b565b5b80604052505050565b5f6104b26103bd565b90506104be8282610478565b919050565b5f67ffffffffffffffff8211156104dd576104dc61044b565b5b6104e6826102e2565b9050602081019050919050565b828183375f83830152505050565b5f61051361050e846104c3565b6104a9565b90508281526020810184848401111561052f5761052e610447565b5b61053a8482856104f3565b509392505050565b5f82601f83011261055657610555610443565b5b8135610566848260208601610501565b91505092915050565b61057881610361565b8114610582575f80fd5b50565b5f813590506105938161056f565b92915050565b5f805f606084860312156105b0576105af6103c6565b5b5f84013567ffffffffffffffff8111156105cd576105cc6103ca565b5b6105d986828701610542565b93505060206105ea868287016103e4565b92505060406105fb86828701610585565b9150509250925092565b7f4e487b71000000000000000000000000000000000000000000000000000000005f52602260045260245ffd5b5f600282049050600182168061064957607f821691505b60208210810361065c5761065b610605565b5b50919050565b5f819050815f5260205f209050919050565b5f6020601f8301049050919050565b5f82821b905092915050565b5f600883026106be7fffffffffffffffffffffffffffffffffffffffffffffffffffffffffffffffff82610683565b6106c88683610683565b95508019841693508086168417925050509392505050565b5f819050919050565b5f6107036106fe6106f98461032a565b6106e0565b61032a565b9050919050565b5f819050919050565b61071c836106e9565b6107306107288261070a565b84845461068f565b825550505050565b5f90565b610744610738565b61074f818484610713565b505050565b5b81811015610772576107675f8261073c565b600181019050610755565b5050565b601f8211156107b75761078881610662565b61079184610674565b810160208510156107a0578190505b6107b46107ac85610674565b830182610754565b50505b505050565b5f82821c905092915050565b5f6107d75f19846008026107bc565b1980831691505092915050565b5f6107ef83836107c8565b9150826002028217905092915050565b610808826102ba565b67ffffffffffffffff8111156108215761082061044b565b5b61082b8254610632565b610836828285610776565b5f60209050601f831160018114610867575f8415610855578287015190505b61085f85826107e4565b8655506108c6565b601f19841661087586610662565b5f5b8281101561089c57848901518255600182019150602085019450602081019050610877565b868310156108b957848901516108b5601f8916826107c8565b8355505b6001600288020188555050505b50505050505056fea264697066735822122007635cad81b5816e737f4348acdae8c24ceb45c6efcfe6aa31f22dd64852443e64736f6c634300081a0033",
			"opcodes": "PUSH1 0x80 PUSH1 0x40 MSTORE CALLVALUE DUP1 ISZERO PUSH1 0xE JUMPI PUSH0 DUP1 REVERT JUMPDEST POP PUSH2 0x904 DUP1 PUSH2 0x1C PUSH0 CODECOPY PUSH0 RETURN INVALID PUSH1 0x80 PUSH1 0x40 MSTORE CALLVALUE DUP1 ISZERO PUSH2 0xF JUMPI PUSH0 DUP1 REVERT JUMPDEST POP PUSH1 0x4 CALLDATASIZE LT PUSH2 0x4A JUMPI PUSH0 CALLDATALOAD PUSH1 0xE0 SHR DUP1 PUSH4 0x77EC2B55 EQ PUSH2 0x4E JUMPI DUP1 PUSH4 0xAE512F91 EQ PUSH2 0x6E JUMPI DUP1 PUSH4 0xB55003FA EQ PUSH2 0x8A JUMPI DUP1 PUSH4 0xCD4161EC EQ PUSH2 0xA8 JUMPI JUMPDEST PUSH0 DUP1 REVERT JUMPDEST PUSH2 0x56 PUSH2 0xC4 JUMP JUMPDEST PUSH1 0x40 MLOAD PUSH2 0x65 SWAP4 SWAP3 SWAP2 SWAP1 PUSH2 0x381 JUMP JUMPDEST PUSH1 0x40 MLOAD DUP1 SWAP2 SUB SWAP1 RETURN JUMPDEST PUSH2 0x88 PUSH1 0x4 DUP1 CALLDATASIZE SUB DUP2 ADD SWAP1 PUSH2 0x83 SWAP2 SWAP1 PUSH2 0x3F8 JUMP JUMPDEST PUSH2 0x17F JUMP JUMPDEST STOP JUMPDEST PUSH2 0x92 PUSH2 0x18B JUMP JUMPDEST PUSH1 0x40 MLOAD PUSH2 0x9F SWAP2 SWAP1 PUSH2 0x423 JUMP JUMPDEST PUSH1 0x40 MLOAD DUP1 SWAP2 SUB SWAP1 RETURN JUMPDEST PUSH2 0xC2 PUSH1 0x4 DUP1 CALLDATASIZE SUB DUP2 ADD SWAP1 PUSH2 0xBD SWAP2 SWAP1 PUSH2 0x599 JUMP JUMPDEST PUSH2 0x21C JUMP JUMPDEST STOP JUMPDEST PUSH0 DUP1 PUSH0 ADD DUP1 SLOAD PUSH2 0xD3 SWAP1 PUSH2 0x632 JUMP JUMPDEST DUP1 PUSH1 0x1F ADD PUSH1 0x20 DUP1 SWAP2 DIV MUL PUSH1 0x20 ADD PUSH1 0x40 MLOAD SWAP1 DUP2 ADD PUSH1 0x40 MSTORE DUP1 SWAP3 SWAP2 SWAP1 DUP2 DUP2 MSTORE PUSH1 0x20 ADD DUP3 DUP1 SLOAD PUSH2 0xFF SWAP1 PUSH2 0x632 JUMP JUMPDEST DUP1 ISZERO PUSH2 0x14A JUMPI DUP1 PUSH1 0x1F LT PUSH2 0x121 JUMPI PUSH2 0x100 DUP1 DUP4 SLOAD DIV MUL DUP4 MSTORE SWAP2 PUSH1 0x20 ADD SWAP2 PUSH2 0x14A JUMP JUMPDEST DUP3 ADD SWAP2 SWAP1 PUSH0 MSTORE PUSH1 0x20 PUSH0 KECCAK256 SWAP1 JUMPDEST DUP2 SLOAD DUP2 MSTORE SWAP1 PUSH1 0x1 ADD SWAP1 PUSH1 0x20 ADD DUP1 DUP4 GT PUSH2 0x12D JUMPI DUP3 SWAP1 SUB PUSH1 0x1F AND DUP3 ADD SWAP2 JUMPDEST POP POP POP POP POP SWAP1 DUP1 PUSH1 0x1 ADD SLOAD SWAP1 DUP1 PUSH1 0x2 ADD PUSH0 SWAP1 SLOAD SWAP1 PUSH2 0x100 EXP SWAP1 DIV PUSH20 0xFFFFFFFFFFFFFFFFFFFFFFFFFFFFFFFFFFFFFFFF AND SWAP1 POP DUP4 JUMP JUMPDEST DUP1 PUSH0 PUSH1 0x1 ADD DUP2 SWAP1 SSTORE POP POP JUMP JUMPDEST PUSH1 0x60 PUSH0 DUP1 ADD DUP1 SLOAD PUSH2 0x19B SWAP1 PUSH2 0x632 JUMP JUMPDEST DUP1 PUSH1 0x1F ADD PUSH1 0x20 DUP1 SWAP2 DIV MUL PUSH1 0x20 ADD PUSH1 0x40 MLOAD SWAP1 DUP2 ADD PUSH1 0x40 MSTORE DUP1 SWAP3 SWAP2 SWAP1 DUP2 DUP2 MSTORE PUSH1 0x20 ADD DUP3 DUP1 SLOAD PUSH2 0x1C7 SWAP1 PUSH2 0x632 JUMP JUMPDEST DUP1 ISZERO PUSH2 0x212 JUMPI DUP1 PUSH1 0x1F LT PUSH2 0x1E9 JUMPI PUSH2 0x100 DUP1 DUP4 SLOAD DIV MUL DUP4 MSTORE SWAP2 PUSH1 0x20 ADD SWAP2 PUSH2 0x212 JUMP JUMPDEST DUP3 ADD SWAP2 SWAP1 PUSH0 MSTORE PUSH1 0x20 PUSH0 KECCAK256 SWAP1 JUMPDEST DUP2 SLOAD DUP2 MSTORE SWAP1 PUSH1 0x1 ADD SWAP1 PUSH1 0x20 ADD DUP1 DUP4 GT PUSH2 0x1F5 JUMPI DUP3 SWAP1 SUB PUSH1 0x1F AND DUP3 ADD SWAP2 JUMPDEST POP POP POP POP POP SWAP1 POP SWAP1 JUMP JUMPDEST PUSH1 0x40 MLOAD DUP1 PUSH1 0x60 ADD PUSH1 0x40 MSTORE DUP1 DUP5 DUP2 MSTORE PUSH1 0x20 ADD DUP4 DUP2 MSTORE PUSH1 0x20 ADD DUP3 PUSH20 0xFFFFFFFFFFFFFFFFFFFFFFFFFFFFFFFFFFFFFFFF AND DUP2 MSTORE POP PUSH0 DUP1 DUP3 ADD MLOAD DUP2 PUSH0 ADD SWAP1 DUP2 PUSH2 0x261 SWAP2 SWAP1 PUSH2 0x7FF JUMP JUMPDEST POP PUSH1 0x20 DUP3 ADD MLOAD DUP2 PUSH1 0x1 ADD SSTORE PUSH1 0x40 DUP3 ADD MLOAD DUP2 PUSH1 0x2 ADD PUSH0 PUSH2 0x100 EXP DUP2 SLOAD DUP2 PUSH20 0xFFFFFFFFFFFFFFFFFFFFFFFFFFFFFFFFFFFFFFFF MUL NOT AND SWAP1 DUP4 PUSH20 0xFFFFFFFFFFFFFFFFFFFFFFFFFFFFFFFFFFFFFFFF AND MUL OR SWAP1 SSTORE POP SWAP1 POP POP POP POP POP JUMP JUMPDEST PUSH0 DUP2 MLOAD SWAP1 POP SWAP2 SWAP1 POP JUMP JUMPDEST PUSH0 DUP3 DUP3 MSTORE PUSH1 0x20 DUP3 ADD SWAP1 POP SWAP3 SWAP2 POP POP JUMP JUMPDEST DUP3 DUP2 DUP4 MCOPY PUSH0 DUP4 DUP4 ADD MSTORE POP POP POP JUMP JUMPDEST PUSH0 PUSH1 0x1F NOT PUSH1 0x1F DUP4 ADD AND SWAP1 POP SWAP2 SWAP1 POP JUMP JUMPDEST PUSH0 PUSH2 0x2FC DUP3 PUSH2 0x2BA JUMP JUMPDEST PUSH2 0x306 DUP2 DUP6 PUSH2 0x2C4 JUMP JUMPDEST SWAP4 POP PUSH2 0x316 DUP2 DUP6 PUSH1 0x20 DUP7 ADD PUSH2 0x2D4 JUMP JUMPDEST PUSH2 0x31F DUP2 PUSH2 0x2E2 JUMP JUMPDEST DUP5 ADD SWAP2 POP POP SWAP3 SWAP2 POP POP JUMP JUMPDEST PUSH0 DUP2 SWAP1 POP SWAP2 SWAP1 POP JUMP JUMPDEST PUSH2 0x33C DUP2 PUSH2 0x32A JUMP JUMPDEST DUP3 MSTORE POP POP JUMP JUMPDEST PUSH0 PUSH20 0xFFFFFFFFFFFFFFFFFFFFFFFFFFFFFFFFFFFFFFFF DUP3 AND SWAP1 POP SWAP2 SWAP1 POP JUMP JUMPDEST PUSH0 PUSH2 0x36B DUP3 PUSH2 0x342 JUMP JUMPDEST SWAP1 POP SWAP2 SWAP1 POP JUMP JUMPDEST PUSH2 0x37B DUP2 PUSH2 0x361 JUMP JUMPDEST DUP3 MSTORE POP POP JUMP JUMPDEST PUSH0 PUSH1 0x60 DUP3 ADD SWAP1 POP DUP2 DUP2 SUB PUSH0 DUP4 ADD MSTORE PUSH2 0x399 DUP2 DUP7 PUSH2 0x2F2 JUMP JUMPDEST SWAP1 POP PUSH2 0x3A8 PUSH1 0x20 DUP4 ADD DUP6 PUSH2 0x333 JUMP JUMPDEST PUSH2 0x3B5 PUSH1 0x40 DUP4 ADD DUP5 PUSH2 0x372 JUMP JUMPDEST SWAP5 SWAP4 POP POP POP POP JUMP JUMPDEST PUSH0 PUSH1 0x40 MLOAD SWAP1 POP SWAP1 JUMP JUMPDEST PUSH0 DUP1 REVERT JUMPDEST PUSH0 DUP1 REVERT JUMPDEST PUSH2 0x3D7 DUP2 PUSH2 0x32A JUMP JUMPDEST DUP2 EQ PUSH2 0x3E1 JUMPI PUSH0 DUP1 REVERT JUMPDEST POP JUMP JUMPDEST PUSH0 DUP2 CALLDATALOAD SWAP1 POP PUSH2 0x3F2 DUP2 PUSH2 0x3CE JUMP JUMPDEST SWAP3 SWAP2 POP POP JUMP JUMPDEST PUSH0 PUSH1 0x20 DUP3 DUP5 SUB SLT ISZERO PUSH2 0x40D JUMPI PUSH2 0x40C PUSH2 0x3C6 JUMP JUMPDEST JUMPDEST PUSH0 PUSH2 0x41A DUP5 DUP3 DUP6 ADD PUSH2 0x3E4 JUMP JUMPDEST SWAP2 POP POP SWAP3 SWAP2 POP POP JUMP JUMPDEST PUSH0 PUSH1 0x20 DUP3 ADD SWAP1 POP DUP2 DUP2 SUB PUSH0 DUP4 ADD MSTORE PUSH2 0x43B DUP2 DUP5 PUSH2 0x2F2 JUMP JUMPDEST SWAP1 POP SWAP3 SWAP2 POP POP JUMP JUMPDEST PUSH0 DUP1 REVERT JUMPDEST PUSH0 DUP1 REVERT JUMPDEST PUSH32 0x4E487B7100000000000000000000000000000000000000000000000000000000 PUSH0 MSTORE PUSH1 0x41 PUSH1 0x4 MSTORE PUSH1 0x24 PUSH0 REVERT JUMPDEST PUSH2 0x481 DUP3 PUSH2 0x2E2 JUMP JUMPDEST DUP2 ADD DUP2 DUP2 LT PUSH8 0xFFFFFFFFFFFFFFFF DUP3 GT OR ISZERO PUSH2 0x4A0 JUMPI PUSH2 0x49F PUSH2 0x44B JUMP JUMPDEST JUMPDEST DUP1 PUSH1 0x40 MSTORE POP POP POP JUMP JUMPDEST PUSH0 PUSH2 0x4B2 PUSH2 0x3BD JUMP JUMPDEST SWAP1 POP PUSH2 0x4BE DUP3 DUP3 PUSH2 0x478 JUMP JUMPDEST SWAP2 SWAP1 POP JUMP JUMPDEST PUSH0 PUSH8 0xFFFFFFFFFFFFFFFF DUP3 GT ISZERO PUSH2 0x4DD JUMPI PUSH2 0x4DC PUSH2 0x44B JUMP JUMPDEST JUMPDEST PUSH2 0x4E6 DUP3 PUSH2 0x2E2 JUMP JUMPDEST SWAP1 POP PUSH1 0x20 DUP2 ADD SWAP1 POP SWAP2 SWAP1 POP JUMP JUMPDEST DUP3 DUP2 DUP4 CALLDATACOPY PUSH0 DUP4 DUP4 ADD MSTORE POP POP POP JUMP JUMPDEST PUSH0 PUSH2 0x513 PUSH2 0x50E DUP5 PUSH2 0x4C3 JUMP JUMPDEST PUSH2 0x4A9 JUMP JUMPDEST SWAP1 POP DUP3 DUP2 MSTORE PUSH1 0x20 DUP2 ADD DUP5 DUP5 DUP5 ADD GT ISZERO PUSH2 0x52F JUMPI PUSH2 0x52E PUSH2 0x447 JUMP JUMPDEST JUMPDEST PUSH2 0x53A DUP5 DUP3 DUP6 PUSH2 0x4F3 JUMP JUMPDEST POP SWAP4 SWAP3 POP POP POP JUMP JUMPDEST PUSH0 DUP3 PUSH1 0x1F DUP4 ADD SLT PUSH2 0x556 JUMPI PUSH2 0x555 PUSH2 0x443 JUMP JUMPDEST JUMPDEST DUP2 CALLDATALOAD PUSH2 0x566 DUP5 DUP3 PUSH1 0x20 DUP7 ADD PUSH2 0x501 JUMP JUMPDEST SWAP2 POP POP SWAP3 SWAP2 POP POP JUMP JUMPDEST PUSH2 0x578 DUP2 PUSH2 0x361 JUMP JUMPDEST DUP2 EQ PUSH2 0x582 JUMPI PUSH0 DUP1 REVERT JUMPDEST POP JUMP JUMPDEST PUSH0 DUP2 CALLDATALOAD SWAP1 POP PUSH2 0x593 DUP2 PUSH2 0x56F JUMP JUMPDEST SWAP3 SWAP2 POP POP JUMP JUMPDEST PUSH0 DUP1 PUSH0 PUSH1 0x60 DUP5 DUP7 SUB SLT ISZERO PUSH2 0x5B0 JUMPI PUSH2 0x5AF PUSH2 0x3C6 JUMP JUMPDEST JUMPDEST PUSH0 DUP5 ADD CALLDATALOAD PUSH8 0xFFFFFFFFFFFFFFFF DUP2 GT ISZERO PUSH2 0x5CD JUMPI PUSH2 0x5CC PUSH2 0x3CA JUMP JUMPDEST JUMPDEST PUSH2 0x5D9 DUP7 DUP3 DUP8 ADD PUSH2 0x542 JUMP JUMPDEST SWAP4 POP POP PUSH1 0x20 PUSH2 0x5EA DUP7 DUP3 DUP8 ADD PUSH2 0x3E4 JUMP JUMPDEST SWAP3 POP POP PUSH1 0x40 PUSH2 0x5FB DUP7 DUP3 DUP8 ADD PUSH2 0x585 JUMP JUMPDEST SWAP2 POP POP SWAP3 POP SWAP3 POP SWAP3 JUMP JUMPDEST PUSH32 0x4E487B7100000000000000000000000000000000000000000000000000000000 PUSH0 MSTORE PUSH1 0x22 PUSH1 0x4 MSTORE PUSH1 0x24 PUSH0 REVERT JUMPDEST PUSH0 PUSH1 0x2 DUP3 DIV SWAP1 POP PUSH1 0x1 DUP3 AND DUP1 PUSH2 0x649 JUMPI PUSH1 0x7F DUP3 AND SWAP2 POP JUMPDEST PUSH1 0x20 DUP3 LT DUP2 SUB PUSH2 0x65C JUMPI PUSH2 0x65B PUSH2 0x605 JUMP JUMPDEST JUMPDEST POP SWAP2 SWAP1 POP JUMP JUMPDEST PUSH0 DUP2 SWAP1 POP DUP2 PUSH0 MSTORE PUSH1 0x20 PUSH0 KECCAK256 SWAP1 POP SWAP2 SWAP1 POP JUMP JUMPDEST PUSH0 PUSH1 0x20 PUSH1 0x1F DUP4 ADD DIV SWAP1 POP SWAP2 SWAP1 POP JUMP JUMPDEST PUSH0 DUP3 DUP3 SHL SWAP1 POP SWAP3 SWAP2 POP POP JUMP JUMPDEST PUSH0 PUSH1 0x8 DUP4 MUL PUSH2 0x6BE PUSH32 0xFFFFFFFFFFFFFFFFFFFFFFFFFFFFFFFFFFFFFFFFFFFFFFFFFFFFFFFFFFFFFFFF DUP3 PUSH2 0x683 JUMP JUMPDEST PUSH2 0x6C8 DUP7 DUP4 PUSH2 0x683 JUMP JUMPDEST SWAP6 POP DUP1 NOT DUP5 AND SWAP4 POP DUP1 DUP7 AND DUP5 OR SWAP3 POP POP POP SWAP4 SWAP3 POP POP POP JUMP JUMPDEST PUSH0 DUP2 SWAP1 POP SWAP2 SWAP1 POP JUMP JUMPDEST PUSH0 PUSH2 0x703 PUSH2 0x6FE PUSH2 0x6F9 DUP5 PUSH2 0x32A JUMP JUMPDEST PUSH2 0x6E0 JUMP JUMPDEST PUSH2 0x32A JUMP JUMPDEST SWAP1 POP SWAP2 SWAP1 POP JUMP JUMPDEST PUSH0 DUP2 SWAP1 POP SWAP2 SWAP1 POP JUMP JUMPDEST PUSH2 0x71C DUP4 PUSH2 0x6E9 JUMP JUMPDEST PUSH2 0x730 PUSH2 0x728 DUP3 PUSH2 0x70A JUMP JUMPDEST DUP5 DUP5 SLOAD PUSH2 0x68F JUMP JUMPDEST DUP3 SSTORE POP POP POP POP JUMP JUMPDEST PUSH0 SWAP1 JUMP JUMPDEST PUSH2 0x744 PUSH2 0x738 JUMP JUMPDEST PUSH2 0x74F DUP2 DUP5 DUP5 PUSH2 0x713 JUMP JUMPDEST POP POP POP JUMP JUMPDEST JUMPDEST DUP2 DUP2 LT ISZERO PUSH2 0x772 JUMPI PUSH2 0x767 PUSH0 DUP3 PUSH2 0x73C JUMP JUMPDEST PUSH1 0x1 DUP2 ADD SWAP1 POP PUSH2 0x755 JUMP JUMPDEST POP POP JUMP JUMPDEST PUSH1 0x1F DUP3 GT ISZERO PUSH2 0x7B7 JUMPI PUSH2 0x788 DUP2 PUSH2 0x662 JUMP JUMPDEST PUSH2 0x791 DUP5 PUSH2 0x674 JUMP JUMPDEST DUP2 ADD PUSH1 0x20 DUP6 LT ISZERO PUSH2 0x7A0 JUMPI DUP2 SWAP1 POP JUMPDEST PUSH2 0x7B4 PUSH2 0x7AC DUP6 PUSH2 0x674 JUMP JUMPDEST DUP4 ADD DUP3 PUSH2 0x754 JUMP JUMPDEST POP POP JUMPDEST POP POP POP JUMP JUMPDEST PUSH0 DUP3 DUP3 SHR SWAP1 POP SWAP3 SWAP2 POP POP JUMP JUMPDEST PUSH0 PUSH2 0x7D7 PUSH0 NOT DUP5 PUSH1 0x8 MUL PUSH2 0x7BC JUMP JUMPDEST NOT DUP1 DUP4 AND SWAP2 POP POP SWAP3 SWAP2 POP POP JUMP JUMPDEST PUSH0 PUSH2 0x7EF DUP4 DUP4 PUSH2 0x7C8 JUMP JUMPDEST SWAP2 POP DUP3 PUSH1 0x2 MUL DUP3 OR SWAP1 POP SWAP3 SWAP2 POP POP JUMP JUMPDEST PUSH2 0x808 DUP3 PUSH2 0x2BA JUMP JUMPDEST PUSH8 0xFFFFFFFFFFFFFFFF DUP2 GT ISZERO PUSH2 0x821 JUMPI PUSH2 0x820 PUSH2 0x44B JUMP JUMPDEST JUMPDEST PUSH2 0x82B DUP3 SLOAD PUSH2 0x632 JUMP JUMPDEST PUSH2 0x836 DUP3 DUP3 DUP6 PUSH2 0x776 JUMP JUMPDEST PUSH0 PUSH1 0x20 SWAP1 POP PUSH1 0x1F DUP4 GT PUSH1 0x1 DUP2 EQ PUSH2 0x867 JUMPI PUSH0 DUP5 ISZERO PUSH2 0x855 JUMPI DUP3 DUP8 ADD MLOAD SWAP1 POP JUMPDEST PUSH2 0x85F DUP6 DUP3 PUSH2 0x7E4 JUMP JUMPDEST DUP7 SSTORE POP PUSH2 0x8C6 JUMP JUMPDEST PUSH1 0x1F NOT DUP5 AND PUSH2 0x875 DUP7 PUSH2 0x662 JUMP JUMPDEST PUSH0 JUMPDEST DUP3 DUP2 LT ISZERO PUSH2 0x89C JUMPI DUP5 DUP10 ADD MLOAD DUP3 SSTORE PUSH1 0x1 DUP3 ADD SWAP2 POP PUSH1 0x20 DUP6 ADD SWAP5 POP PUSH1 0x20 DUP2 ADD SWAP1 POP PUSH2 0x877 JUMP JUMPDEST DUP7 DUP4 LT ISZERO PUSH2 0x8B9 JUMPI DUP5 DUP10 ADD MLOAD PUSH2 0x8B5 PUSH1 0x1F DUP10 AND DUP3 PUSH2 0x7C8 JUMP JUMPDEST DUP4 SSTORE POP JUMPDEST PUSH1 0x1 PUSH1 0x2 DUP9 MUL ADD DUP9 SSTORE POP POP POP JUMPDEST POP POP POP POP POP POP JUMP INVALID LOG2 PUSH5 0x6970667358 0x22 SLT KECCAK256 SMOD PUSH4 0x5CAD81B5 DUP2 PUSH15 0x737F4348ACDAE8C24CEB45C6EFCFE6 0xAA BALANCE CALLCODE 0x2D 0xD6 BASEFEE MSTORE PREVRANDAO RETURNDATACOPY PUSH5 0x736F6C6343 STOP ADDMOD BYTE STOP CALLER "
		},
		"gasEstimates": {
			"creation": {
				"codeDepositCost": "461600",
				"executionCost": "497",
				"totalCost": "462097"
			},
			"external": {
				"getPersonName()": "infinite",
				"person()": "infinite",
				"setPerson(string,uint256,address)": "infinite",
				"updatePersonAge(uint256)": "22520"
			}
		},
		"methodIdentifiers": {
			"getPersonName()": "b55003fa",
			"person()": "77ec2b55",
			"setPerson(string,uint256,address)": "cd4161ec",
			"updatePersonAge(uint256)": "ae512f91"
		}
	},
	"abi": [
		{
			"inputs": [],
			"name": "getPersonName",
			"outputs": [
				{
					"internalType": "string",
					"name": "",
					"type": "string"
				}
			],
			"stateMutability": "view",
			"type": "function"
		},
		{
			"inputs": [],
			"name": "person",
			"outputs": [
				{
					"internalType": "string",
					"name": "name",
					"type": "string"
				},
				{
					"internalType": "uint256",
					"name": "age",
					"type": "uint256"
				},
				{
					"internalType": "address",
					"name": "wallet",
					"type": "address"
				}
			],
			"stateMutability": "view",
			"type": "function"
		},
		{
			"inputs": [
				{
					"internalType": "string",
					"name": "_name",
					"type": "string"
				},
				{
					"internalType": "uint256",
					"name": "_age",
					"type": "uint256"
				},
				{
					"internalType": "address",
					"name": "_wallet",
					"type": "address"
				}
			],
			"name": "setPerson",
			"outputs": [],
			"stateMutability": "nonpayable",
			"type": "function"
		},
		{
			"inputs": [
				{
					"internalType": "uint256",
					"name": "_newAge",
					"type": "uint256"
				}
			],
			"name": "updatePersonAge",
			"outputs": [],
			"stateMutability": "nonpayable",
			"type": "function"
		}
	]
}