{
	"solidity/3.1.4/Sender.sol": {
		"Sender": {
			"abi": [
				{
					"inputs": [
						{
							"internalType": "address payable",
							"name": "_to",
							"type": "address"
						}
					],
					"name": "sendEther",
					"outputs": [
						{
							"internalType": "bool",
							"name": "",
							"type": "bool"
						}
					],
					"stateMutability": "payable",
					"type": "function"
				}
			],
			"devdoc": {
				"kind": "dev",
				"methods": {},
				"version": 1
			},
			"evm": {
				"assembly": "    /* \"solidity/3.1.4/Sender.sol\":60:249  contract Sender {... */\n  mstore(0x40, 0x80)\n  callvalue\n  dup1\n  iszero\n  tag_1\n  jumpi\n  0x00\n  dup1\n  revert\ntag_1:\n  pop\n  dataSize(sub_0)\n  dup1\n  dataOffset(sub_0)\n  0x00\n  codecopy\n  0x00\n  return\nstop\n\nsub_0: assembly {\n        /* \"solidity/3.1.4/Sender.sol\":60:249  contract Sender {... */\n      mstore(0x40, 0x80)\n      jumpi(tag_1, lt(calldatasize, 0x04))\n      shr(0xe0, calldataload(0x00))\n      dup1\n      0x48c981e2\n      eq\n      tag_2\n      jumpi\n    tag_1:\n      0x00\n      dup1\n      revert\n        /* \"solidity/3.1.4/Sender.sol\":85:246  function sendEther(address payable _to) public payable returns (bool) {... */\n    tag_2:\n      tag_3\n      0x04\n      dup1\n      calldatasize\n      sub\n      dup2\n      add\n      swap1\n      tag_4\n      swap2\n      swap1\n      tag_5\n      jump\t// in\n    tag_4:\n      tag_6\n      jump\t// in\n    tag_3:\n      mload(0x40)\n      tag_7\n      swap2\n      swap1\n      tag_8\n      jump\t// in\n    tag_7:\n      mload(0x40)\n      dup1\n      swap2\n      sub\n      swap1\n      return\n    tag_6:\n        /* \"solidity/3.1.4/Sender.sol\":149:153  bool */\n      0x00\n        /* \"solidity/3.1.4/Sender.sol\":166:177  bool status */\n      dup1\n        /* \"solidity/3.1.4/Sender.sol\":180:183  _to */\n      dup3\n        /* \"solidity/3.1.4/Sender.sol\":180:188  _to.send */\n      0xffffffffffffffffffffffffffffffffffffffff\n      and\n        /* \"solidity/3.1.4/Sender.sol\":180:191  _to.send(5) */\n      0x08fc\n        /* \"solidity/3.1.4/Sender.sol\":189:190  5 */\n      0x05\n        /* \"solidity/3.1.4/Sender.sol\":180:191  _to.send(5) */\n      swap1\n      dup2\n      iszero\n      mul\n      swap1\n      mload(0x40)\n      0x00\n      mload(0x40)\n      dup1\n      dup4\n      sub\n      dup2\n      dup6\n      dup9\n      dup9\n      call\n      swap4\n      pop\n      pop\n      pop\n      pop\n        /* \"solidity/3.1.4/Sender.sol\":166:191  bool status = _to.send(5) */\n      swap1\n      pop\n        /* \"solidity/3.1.4/Sender.sol\":210:216  status */\n      dup1\n        /* \"solidity/3.1.4/Sender.sol\":202:238  require(status, \"An error occurred\") */\n      tag_11\n      jumpi\n      mload(0x40)\n      0x08c379a000000000000000000000000000000000000000000000000000000000\n      dup2\n      mstore\n      0x04\n      add\n      tag_12\n      swap1\n      tag_13\n      jump\t// in\n    tag_12:\n      mload(0x40)\n      dup1\n      swap2\n      sub\n      swap1\n      revert\n    tag_11:\n        /* \"solidity/3.1.4/Sender.sol\":155:246  {... */\n      pop\n        /* \"solidity/3.1.4/Sender.sol\":85:246  function sendEther(address payable _to) public payable returns (bool) {... */\n      swap2\n      swap1\n      pop\n      jump\t// out\n        /* \"#utility.yul\":88:205   */\n    tag_15:\n        /* \"#utility.yul\":197:198   */\n      0x00\n        /* \"#utility.yul\":194:195   */\n      dup1\n        /* \"#utility.yul\":187:199   */\n      revert\n        /* \"#utility.yul\":334:460   */\n    tag_17:\n        /* \"#utility.yul\":371:378   */\n      0x00\n        /* \"#utility.yul\":411:453   */\n      0xffffffffffffffffffffffffffffffffffffffff\n        /* \"#utility.yul\":404:409   */\n      dup3\n        /* \"#utility.yul\":400:454   */\n      and\n        /* \"#utility.yul\":389:454   */\n      swap1\n      pop\n        /* \"#utility.yul\":334:460   */\n      swap2\n      swap1\n      pop\n      jump\t// out\n        /* \"#utility.yul\":466:570   */\n    tag_18:\n        /* \"#utility.yul\":511:518   */\n      0x00\n        /* \"#utility.yul\":540:564   */\n      tag_32\n        /* \"#utility.yul\":558:563   */\n      dup3\n        /* \"#utility.yul\":540:564   */\n      tag_17\n      jump\t// in\n    tag_32:\n        /* \"#utility.yul\":529:564   */\n      swap1\n      pop\n        /* \"#utility.yul\":466:570   */\n      swap2\n      swap1\n      pop\n      jump\t// out\n        /* \"#utility.yul\":576:714   */\n    tag_19:\n        /* \"#utility.yul\":657:689   */\n      tag_34\n        /* \"#utility.yul\":683:688   */\n      dup2\n        /* \"#utility.yul\":657:689   */\n      tag_18\n      jump\t// in\n    tag_34:\n        /* \"#utility.yul\":650:655   */\n      dup2\n        /* \"#utility.yul\":647:690   */\n      eq\n        /* \"#utility.yul\":637:708   */\n      tag_35\n      jumpi\n        /* \"#utility.yul\":704:705   */\n      0x00\n        /* \"#utility.yul\":701:702   */\n      dup1\n        /* \"#utility.yul\":694:706   */\n      revert\n        /* \"#utility.yul\":637:708   */\n    tag_35:\n        /* \"#utility.yul\":576:714   */\n      pop\n      jump\t// out\n        /* \"#utility.yul\":720:875   */\n    tag_20:\n        /* \"#utility.yul\":774:779   */\n      0x00\n        /* \"#utility.yul\":812:818   */\n      dup2\n        /* \"#utility.yul\":799:819   */\n      calldataload\n        /* \"#utility.yul\":790:819   */\n      swap1\n      pop\n        /* \"#utility.yul\":828:869   */\n      tag_37\n        /* \"#utility.yul\":863:868   */\n      dup2\n        /* \"#utility.yul\":828:869   */\n      tag_19\n      jump\t// in\n    tag_37:\n        /* \"#utility.yul\":720:875   */\n      swap3\n      swap2\n      pop\n      pop\n      jump\t// out\n        /* \"#utility.yul\":881:1226   */\n    tag_5:\n        /* \"#utility.yul\":948:954   */\n      0x00\n        /* \"#utility.yul\":997:999   */\n      0x20\n        /* \"#utility.yul\":985:994   */\n      dup3\n        /* \"#utility.yul\":976:983   */\n      dup5\n        /* \"#utility.yul\":972:995   */\n      sub\n        /* \"#utility.yul\":968:1000   */\n      slt\n        /* \"#utility.yul\":965:1084   */\n      iszero\n      tag_39\n      jumpi\n        /* \"#utility.yul\":1003:1082   */\n      tag_40\n      tag_15\n      jump\t// in\n    tag_40:\n        /* \"#utility.yul\":965:1084   */\n    tag_39:\n        /* \"#utility.yul\":1123:1124   */\n      0x00\n        /* \"#utility.yul\":1148:1209   */\n      tag_41\n        /* \"#utility.yul\":1201:1208   */\n      dup5\n        /* \"#utility.yul\":1192:1198   */\n      dup3\n        /* \"#utility.yul\":1181:1190   */\n      dup6\n        /* \"#utility.yul\":1177:1199   */\n      add\n        /* \"#utility.yul\":1148:1209   */\n      tag_20\n      jump\t// in\n    tag_41:\n        /* \"#utility.yul\":1138:1209   */\n      swap2\n      pop\n        /* \"#utility.yul\":1094:1219   */\n      pop\n        /* \"#utility.yul\":881:1226   */\n      swap3\n      swap2\n      pop\n      pop\n      jump\t// out\n        /* \"#utility.yul\":1232:1322   */\n    tag_21:\n        /* \"#utility.yul\":1266:1273   */\n      0x00\n        /* \"#utility.yul\":1309:1314   */\n      dup2\n        /* \"#utility.yul\":1302:1315   */\n      iszero\n        /* \"#utility.yul\":1295:1316   */\n      iszero\n        /* \"#utility.yul\":1284:1316   */\n      swap1\n      pop\n        /* \"#utility.yul\":1232:1322   */\n      swap2\n      swap1\n      pop\n      jump\t// out\n        /* \"#utility.yul\":1328:1437   */\n    tag_22:\n        /* \"#utility.yul\":1409:1430   */\n      tag_44\n        /* \"#utility.yul\":1424:1429   */\n      dup2\n        /* \"#utility.yul\":1409:1430   */\n      tag_21\n      jump\t// in\n    tag_44:\n        /* \"#utility.yul\":1404:1407   */\n      dup3\n        /* \"#utility.yul\":1397:1431   */\n      mstore\n        /* \"#utility.yul\":1328:1437   */\n      pop\n      pop\n      jump\t// out\n        /* \"#utility.yul\":1443:1653   */\n    tag_8:\n        /* \"#utility.yul\":1530:1534   */\n      0x00\n        /* \"#utility.yul\":1568:1570   */\n      0x20\n        /* \"#utility.yul\":1557:1566   */\n      dup3\n        /* \"#utility.yul\":1553:1571   */\n      add\n        /* \"#utility.yul\":1545:1571   */\n      swap1\n      pop\n        /* \"#utility.yul\":1581:1646   */\n      tag_46\n        /* \"#utility.yul\":1643:1644   */\n      0x00\n        /* \"#utility.yul\":1632:1641   */\n      dup4\n        /* \"#utility.yul\":1628:1645   */\n      add\n        /* \"#utility.yul\":1619:1625   */\n      dup5\n        /* \"#utility.yul\":1581:1646   */\n      tag_22\n      jump\t// in\n    tag_46:\n        /* \"#utility.yul\":1443:1653   */\n      swap3\n      swap2\n      pop\n      pop\n      jump\t// out\n        /* \"#utility.yul\":1659:1828   */\n    tag_23:\n        /* \"#utility.yul\":1743:1754   */\n      0x00\n        /* \"#utility.yul\":1777:1783   */\n      dup3\n        /* \"#utility.yul\":1772:1775   */\n      dup3\n        /* \"#utility.yul\":1765:1784   */\n      mstore\n        /* \"#utility.yul\":1817:1821   */\n      0x20\n        /* \"#utility.yul\":1812:1815   */\n      dup3\n        /* \"#utility.yul\":1808:1822   */\n      add\n        /* \"#utility.yul\":1793:1822   */\n      swap1\n      pop\n        /* \"#utility.yul\":1659:1828   */\n      swap3\n      swap2\n      pop\n      pop\n      jump\t// out\n        /* \"#utility.yul\":1834:2001   */\n    tag_24:\n        /* \"#utility.yul\":1974:1993   */\n      0x416e206572726f72206f63637572726564000000000000000000000000000000\n        /* \"#utility.yul\":1970:1971   */\n      0x00\n        /* \"#utility.yul\":1962:1968   */\n      dup3\n        /* \"#utility.yul\":1958:1972   */\n      add\n        /* \"#utility.yul\":1951:1994   */\n      mstore\n        /* \"#utility.yul\":1834:2001   */\n      pop\n      jump\t// out\n        /* \"#utility.yul\":2007:2373   */\n    tag_25:\n        /* \"#utility.yul\":2149:2152   */\n      0x00\n        /* \"#utility.yul\":2170:2237   */\n      tag_50\n        /* \"#utility.yul\":2234:2236   */\n      0x11\n        /* \"#utility.yul\":2229:2232   */\n      dup4\n        /* \"#utility.yul\":2170:2237   */\n      tag_23\n      jump\t// in\n    tag_50:\n        /* \"#utility.yul\":2163:2237   */\n      swap2\n      pop\n        /* \"#utility.yul\":2246:2339   */\n      tag_51\n        /* \"#utility.yul\":2335:2338   */\n      dup3\n        /* \"#utility.yul\":2246:2339   */\n      tag_24\n      jump\t// in\n    tag_51:\n        /* \"#utility.yul\":2364:2366   */\n      0x20\n        /* \"#utility.yul\":2359:2362   */\n      dup3\n        /* \"#utility.yul\":2355:2367   */\n      add\n        /* \"#utility.yul\":2348:2367   */\n      swap1\n      pop\n        /* \"#utility.yul\":2007:2373   */\n      swap2\n      swap1\n      pop\n      jump\t// out\n        /* \"#utility.yul\":2379:2798   */\n    tag_13:\n        /* \"#utility.yul\":2545:2549   */\n      0x00\n        /* \"#utility.yul\":2583:2585   */\n      0x20\n        /* \"#utility.yul\":2572:2581   */\n      dup3\n        /* \"#utility.yul\":2568:2586   */\n      add\n        /* \"#utility.yul\":2560:2586   */\n      swap1\n      pop\n        /* \"#utility.yul\":2632:2641   */\n      dup2\n        /* \"#utility.yul\":2626:2630   */\n      dup2\n        /* \"#utility.yul\":2622:2642   */\n      sub\n        /* \"#utility.yul\":2618:2619   */\n      0x00\n        /* \"#utility.yul\":2607:2616   */\n      dup4\n        /* \"#utility.yul\":2603:2620   */\n      add\n        /* \"#utility.yul\":2596:2643   */\n      mstore\n        /* \"#utility.yul\":2660:2791   */\n      tag_53\n        /* \"#utility.yul\":2786:2790   */\n      dup2\n        /* \"#utility.yul\":2660:2791   */\n      tag_25\n      jump\t// in\n    tag_53:\n        /* \"#utility.yul\":2652:2791   */\n      swap1\n      pop\n        /* \"#utility.yul\":2379:2798   */\n      swap2\n      swap1\n      pop\n      jump\t// out\n\n    auxdata: 0xa26469706673582212207787f0f77de0139c2bcbb86e34f817c0d2e54426b8f73c927e55bda8306bea7b64736f6c634300081a0033\n}\n",
				"bytecode": {
					"linkReferences": {},
					"object": "6080604052348015600e575f80fd5b5061023a8061001c5f395ff3fe60806040526004361061001d575f3560e01c806348c981e214610021575b5f80fd5b61003b6004803603810190610036919061012e565b610051565b6040516100489190610173565b60405180910390f35b5f808273ffffffffffffffffffffffffffffffffffffffff166108fc600590811502906040515f60405180830381858888f193505050509050806100ca576040517f08c379a00000000000000000000000000000000000000000000000000000000081526004016100c1906101e6565b60405180910390fd5b50919050565b5f80fd5b5f73ffffffffffffffffffffffffffffffffffffffff82169050919050565b5f6100fd826100d4565b9050919050565b61010d816100f3565b8114610117575f80fd5b50565b5f8135905061012881610104565b92915050565b5f60208284031215610143576101426100d0565b5b5f6101508482850161011a565b91505092915050565b5f8115159050919050565b61016d81610159565b82525050565b5f6020820190506101865f830184610164565b92915050565b5f82825260208201905092915050565b7f416e206572726f72206f636375727265640000000000000000000000000000005f82015250565b5f6101d060118361018c565b91506101db8261019c565b602082019050919050565b5f6020820190508181035f8301526101fd816101c4565b905091905056fea26469706673582212207787f0f77de0139c2bcbb86e34f817c0d2e54426b8f73c927e55bda8306bea7b64736f6c634300081a0033",
					"opcodes": "PUSH1 0x80 PUSH1 0x40 MSTORE CALLVALUE DUP1 ISZERO PUSH1 0xE JUMPI PUSH0 DUP1 REVERT JUMPDEST POP PUSH2 0x23A DUP1 PUSH2 0x1C PUSH0 CODECOPY PUSH0 RETURN INVALID PUSH1 0x80 PUSH1 0x40 MSTORE PUSH1 0x4 CALLDATASIZE LT PUSH2 0x1D JUMPI PUSH0 CALLDATALOAD PUSH1 0xE0 SHR DUP1 PUSH4 0x48C981E2 EQ PUSH2 0x21 JUMPI JUMPDEST PUSH0 DUP1 REVERT JUMPDEST PUSH2 0x3B PUSH1 0x4 DUP1 CALLDATASIZE SUB DUP2 ADD SWAP1 PUSH2 0x36 SWAP2 SWAP1 PUSH2 0x12E JUMP JUMPDEST PUSH2 0x51 JUMP JUMPDEST PUSH1 0x40 MLOAD PUSH2 0x48 SWAP2 SWAP1 PUSH2 0x173 JUMP JUMPDEST PUSH1 0x40 MLOAD DUP1 SWAP2 SUB SWAP1 RETURN JUMPDEST PUSH0 DUP1 DUP3 PUSH20 0xFFFFFFFFFFFFFFFFFFFFFFFFFFFFFFFFFFFFFFFF AND PUSH2 0x8FC PUSH1 0x5 SWAP1 DUP2 ISZERO MUL SWAP1 PUSH1 0x40 MLOAD PUSH0 PUSH1 0x40 MLOAD DUP1 DUP4 SUB DUP2 DUP6 DUP9 DUP9 CALL SWAP4 POP POP POP POP SWAP1 POP DUP1 PUSH2 0xCA JUMPI PUSH1 0x40 MLOAD PUSH32 0x8C379A000000000000000000000000000000000000000000000000000000000 DUP2 MSTORE PUSH1 0x4 ADD PUSH2 0xC1 SWAP1 PUSH2 0x1E6 JUMP JUMPDEST PUSH1 0x40 MLOAD DUP1 SWAP2 SUB SWAP1 REVERT JUMPDEST POP SWAP2 SWAP1 POP JUMP JUMPDEST PUSH0 DUP1 REVERT JUMPDEST PUSH0 PUSH20 0xFFFFFFFFFFFFFFFFFFFFFFFFFFFFFFFFFFFFFFFF DUP3 AND SWAP1 POP SWAP2 SWAP1 POP JUMP JUMPDEST PUSH0 PUSH2 0xFD DUP3 PUSH2 0xD4 JUMP JUMPDEST SWAP1 POP SWAP2 SWAP1 POP JUMP JUMPDEST PUSH2 0x10D DUP2 PUSH2 0xF3 JUMP JUMPDEST DUP2 EQ PUSH2 0x117 JUMPI PUSH0 DUP1 REVERT JUMPDEST POP JUMP JUMPDEST PUSH0 DUP2 CALLDATALOAD SWAP1 POP PUSH2 0x128 DUP2 PUSH2 0x104 JUMP JUMPDEST SWAP3 SWAP2 POP POP JUMP JUMPDEST PUSH0 PUSH1 0x20 DUP3 DUP5 SUB SLT ISZERO PUSH2 0x143 JUMPI PUSH2 0x142 PUSH2 0xD0 JUMP JUMPDEST JUMPDEST PUSH0 PUSH2 0x150 DUP5 DUP3 DUP6 ADD PUSH2 0x11A JUMP JUMPDEST SWAP2 POP POP SWAP3 SWAP2 POP POP JUMP JUMPDEST PUSH0 DUP2 ISZERO ISZERO SWAP1 POP SWAP2 SWAP1 POP JUMP JUMPDEST PUSH2 0x16D DUP2 PUSH2 0x159 JUMP JUMPDEST DUP3 MSTORE POP POP JUMP JUMPDEST PUSH0 PUSH1 0x20 DUP3 ADD SWAP1 POP PUSH2 0x186 PUSH0 DUP4 ADD DUP5 PUSH2 0x164 JUMP JUMPDEST SWAP3 SWAP2 POP POP JUMP JUMPDEST PUSH0 DUP3 DUP3 MSTORE PUSH1 0x20 DUP3 ADD SWAP1 POP SWAP3 SWAP2 POP POP JUMP JUMPDEST PUSH32 0x416E206572726F72206F63637572726564000000000000000000000000000000 PUSH0 DUP3 ADD MSTORE POP JUMP JUMPDEST PUSH0 PUSH2 0x1D0 PUSH1 0x11 DUP4 PUSH2 0x18C JUMP JUMPDEST SWAP2 POP PUSH2 0x1DB DUP3 PUSH2 0x19C JUMP JUMPDEST PUSH1 0x20 DUP3 ADD SWAP1 POP SWAP2 SWAP1 POP JUMP JUMPDEST PUSH0 PUSH1 0x20 DUP3 ADD SWAP1 POP DUP2 DUP2 SUB PUSH0 DUP4 ADD MSTORE PUSH2 0x1FD DUP2 PUSH2 0x1C4 JUMP JUMPDEST SWAP1 POP SWAP2 SWAP1 POP JUMP INVALID LOG2 PUSH5 0x6970667358 0x22 SLT KECCAK256 PUSH24 0x87F0F77DE0139C2BCBB86E34F817C0D2E54426B8F73C927E SSTORE 0xBD 0xA8 ADDRESS PUSH12 0xEA7B64736F6C634300081A00 CALLER "
				},
				"gasEstimates": {
					"creation": {
						"codeDepositCost": "114000",
						"executionCost": "157",
						"totalCost": "114157"
					},
					"external": {
						"sendEther(address)": "infinite"
					}
				},
				"methodIdentifiers": {
					"sendEther(address)": "48c981e2"
				}
			},
			"storageLayout": {
				"storage": [],
				"types": null
			},
			"userdoc": {
				"kind": "user",
				"methods": {},
				"version": 1
			}
		}
	}
}