{
	"data": {
		"bytecode": {
			"linkReferences": {},
			"object": "608060405234801561000f575f80fd5b506040516108a83803806108a8833981810160405281019061003191906100d4565b805f806101000a81548173ffffffffffffffffffffffffffffffffffffffff021916908373ffffffffffffffffffffffffffffffffffffffff160217905550506100ff565b5f80fd5b5f73ffffffffffffffffffffffffffffffffffffffff82169050919050565b5f6100a38261007a565b9050919050565b6100b381610099565b81146100bd575f80fd5b50565b5f815190506100ce816100aa565b92915050565b5f602082840312156100e9576100e8610076565b5b5f6100f6848285016100c0565b91505092915050565b61079c8061010c5f395ff3fe608060405260043610610033575f3560e01c8063051eeba01461003757806370ce036c14610041578063ceee2e201461005f575b5f80fd5b61003f610089565b005b6100496101d8565b60405161005691906103e6565b60405180910390f35b34801561006a575f80fd5b50610073610353565b6040516100809190610445565b60405180910390f35b5f805f9054906101000a900473ffffffffffffffffffffffffffffffffffffffff1673ffffffffffffffffffffffffffffffffffffffff16346040516024016040516020818303038152906040527fa3912ec8000000000000000000000000000000000000000000000000000000007bffffffffffffffffffffffffffffffffffffffffffffffffffffffff19166020820180517bffffffffffffffffffffffffffffffffffffffffffffffffffffffff838183161783525050505060405161015291906104a2565b5f6040518083038185875af1925050503d805f811461018c576040519150601f19603f3d011682016040523d82523d5f602084013e610191565b606091505b50509050806101d5576040517f08c379a00000000000000000000000000000000000000000000000000000000081526004016101cc90610502565b60405180910390fd5b50565b60605f6040516024016101ea9061056a565b6040516020818303038152906040527ff2c298be000000000000000000000000000000000000000000000000000000007bffffffffffffffffffffffffffffffffffffffffffffffffffffffff19166020820180517bffffffffffffffffffffffffffffffffffffffffffffffffffffffff838183161783525050505090505f805f8054906101000a900473ffffffffffffffffffffffffffffffffffffffff1673ffffffffffffffffffffffffffffffffffffffff16836040516102af91906104a2565b5f604051808303815f865af19150503d805f81146102e8576040519150601f19603f3d011682016040523d82523d5f602084013e6102ed565b606091505b509150915081610332576040517f08c379a0000000000000000000000000000000000000000000000000000000008152600401610329906105d2565b60405180910390fd5b5f81806020019051810190610347919061071f565b90508094505050505090565b5f8054906101000a900473ffffffffffffffffffffffffffffffffffffffff1681565b5f81519050919050565b5f82825260208201905092915050565b8281835e5f83830152505050565b5f601f19601f8301169050919050565b5f6103b882610376565b6103c28185610380565b93506103d2818560208601610390565b6103db8161039e565b840191505092915050565b5f6020820190508181035f8301526103fe81846103ae565b905092915050565b5f73ffffffffffffffffffffffffffffffffffffffff82169050919050565b5f61042f82610406565b9050919050565b61043f81610425565b82525050565b5f6020820190506104585f830184610436565b92915050565b5f81519050919050565b5f81905092915050565b5f61047c8261045e565b6104868185610468565b9350610496818560208601610390565b80840191505092915050565b5f6104ad8284610472565b915081905092915050565b7f43616c6c206661696c65640000000000000000000000000000000000000000005f82015250565b5f6104ec600b83610380565b91506104f7826104b8565b602082019050919050565b5f6020820190508181035f830152610519816104e0565b9050919050565b7f4d794e616d6500000000000000000000000000000000000000000000000000005f82015250565b5f610554600683610380565b915061055f82610520565b602082019050919050565b5f6020820190508181035f83015261058181610548565b9050919050565b7f5468652063616c6c20776173206e6f74207375636365737366756c00000000005f82015250565b5f6105bc601b83610380565b91506105c782610588565b602082019050919050565b5f6020820190508181035f8301526105e9816105b0565b9050919050565b5f604051905090565b5f80fd5b5f80fd5b5f80fd5b5f80fd5b7f4e487b71000000000000000000000000000000000000000000000000000000005f52604160045260245ffd5b61063f8261039e565b810181811067ffffffffffffffff8211171561065e5761065d610609565b5b80604052505050565b5f6106706105f0565b905061067c8282610636565b919050565b5f67ffffffffffffffff82111561069b5761069a610609565b5b6106a48261039e565b9050602081019050919050565b5f6106c36106be84610681565b610667565b9050828152602081018484840111156106df576106de610605565b5b6106ea848285610390565b509392505050565b5f82601f83011261070657610705610601565b5b81516107168482602086016106b1565b91505092915050565b5f60208284031215610734576107336105f9565b5b5f82015167ffffffffffffffff811115610751576107506105fd565b5b61075d848285016106f2565b9150509291505056fea26469706673582212205234bca641bc1e22cea7270478a6c451c4cce0e3269cd12c8857a4aa7d14a00d64736f6c634300081a0033",
			"opcodes": "PUSH1 0x80 PUSH1 0x40 MSTORE CALLVALUE DUP1 ISZERO PUSH2 0xF JUMPI PUSH0 DUP1 REVERT JUMPDEST POP PUSH1 0x40 MLOAD PUSH2 0x8A8 CODESIZE SUB DUP1 PUSH2 0x8A8 DUP4 CODECOPY DUP2 DUP2 ADD PUSH1 0x40 MSTORE DUP2 ADD SWAP1 PUSH2 0x31 SWAP2 SWAP1 PUSH2 0xD4 JUMP JUMPDEST DUP1 PUSH0 DUP1 PUSH2 0x100 EXP DUP2 SLOAD DUP2 PUSH20 0xFFFFFFFFFFFFFFFFFFFFFFFFFFFFFFFFFFFFFFFF MUL NOT AND SWAP1 DUP4 PUSH20 0xFFFFFFFFFFFFFFFFFFFFFFFFFFFFFFFFFFFFFFFF AND MUL OR SWAP1 SSTORE POP POP PUSH2 0xFF JUMP JUMPDEST PUSH0 DUP1 REVERT JUMPDEST PUSH0 PUSH20 0xFFFFFFFFFFFFFFFFFFFFFFFFFFFFFFFFFFFFFFFF DUP3 AND SWAP1 POP SWAP2 SWAP1 POP JUMP JUMPDEST PUSH0 PUSH2 0xA3 DUP3 PUSH2 0x7A JUMP JUMPDEST SWAP1 POP SWAP2 SWAP1 POP JUMP JUMPDEST PUSH2 0xB3 DUP2 PUSH2 0x99 JUMP JUMPDEST DUP2 EQ PUSH2 0xBD JUMPI PUSH0 DUP1 REVERT JUMPDEST POP JUMP JUMPDEST PUSH0 DUP2 MLOAD SWAP1 POP PUSH2 0xCE DUP2 PUSH2 0xAA JUMP JUMPDEST SWAP3 SWAP2 POP POP JUMP JUMPDEST PUSH0 PUSH1 0x20 DUP3 DUP5 SUB SLT ISZERO PUSH2 0xE9 JUMPI PUSH2 0xE8 PUSH2 0x76 JUMP JUMPDEST JUMPDEST PUSH0 PUSH2 0xF6 DUP5 DUP3 DUP6 ADD PUSH2 0xC0 JUMP JUMPDEST SWAP2 POP POP SWAP3 SWAP2 POP POP JUMP JUMPDEST PUSH2 0x79C DUP1 PUSH2 0x10C PUSH0 CODECOPY PUSH0 RETURN INVALID PUSH1 0x80 PUSH1 0x40 MSTORE PUSH1 0x4 CALLDATASIZE LT PUSH2 0x33 JUMPI PUSH0 CALLDATALOAD PUSH1 0xE0 SHR DUP1 PUSH4 0x51EEBA0 EQ PUSH2 0x37 JUMPI DUP1 PUSH4 0x70CE036C EQ PUSH2 0x41 JUMPI DUP1 PUSH4 0xCEEE2E20 EQ PUSH2 0x5F JUMPI JUMPDEST PUSH0 DUP1 REVERT JUMPDEST PUSH2 0x3F PUSH2 0x89 JUMP JUMPDEST STOP JUMPDEST PUSH2 0x49 PUSH2 0x1D8 JUMP JUMPDEST PUSH1 0x40 MLOAD PUSH2 0x56 SWAP2 SWAP1 PUSH2 0x3E6 JUMP JUMPDEST PUSH1 0x40 MLOAD DUP1 SWAP2 SUB SWAP1 RETURN JUMPDEST CALLVALUE DUP1 ISZERO PUSH2 0x6A JUMPI PUSH0 DUP1 REVERT JUMPDEST POP PUSH2 0x73 PUSH2 0x353 JUMP JUMPDEST PUSH1 0x40 MLOAD PUSH2 0x80 SWAP2 SWAP1 PUSH2 0x445 JUMP JUMPDEST PUSH1 0x40 MLOAD DUP1 SWAP2 SUB SWAP1 RETURN JUMPDEST PUSH0 DUP1 PUSH0 SWAP1 SLOAD SWAP1 PUSH2 0x100 EXP SWAP1 DIV PUSH20 0xFFFFFFFFFFFFFFFFFFFFFFFFFFFFFFFFFFFFFFFF AND PUSH20 0xFFFFFFFFFFFFFFFFFFFFFFFFFFFFFFFFFFFFFFFF AND CALLVALUE PUSH1 0x40 MLOAD PUSH1 0x24 ADD PUSH1 0x40 MLOAD PUSH1 0x20 DUP2 DUP4 SUB SUB DUP2 MSTORE SWAP1 PUSH1 0x40 MSTORE PUSH32 0xA3912EC800000000000000000000000000000000000000000000000000000000 PUSH28 0xFFFFFFFFFFFFFFFFFFFFFFFFFFFFFFFFFFFFFFFFFFFFFFFFFFFFFFFF NOT AND PUSH1 0x20 DUP3 ADD DUP1 MLOAD PUSH28 0xFFFFFFFFFFFFFFFFFFFFFFFFFFFFFFFFFFFFFFFFFFFFFFFFFFFFFFFF DUP4 DUP2 DUP4 AND OR DUP4 MSTORE POP POP POP POP PUSH1 0x40 MLOAD PUSH2 0x152 SWAP2 SWAP1 PUSH2 0x4A2 JUMP JUMPDEST PUSH0 PUSH1 0x40 MLOAD DUP1 DUP4 SUB DUP2 DUP6 DUP8 GAS CALL SWAP3 POP POP POP RETURNDATASIZE DUP1 PUSH0 DUP2 EQ PUSH2 0x18C JUMPI PUSH1 0x40 MLOAD SWAP2 POP PUSH1 0x1F NOT PUSH1 0x3F RETURNDATASIZE ADD AND DUP3 ADD PUSH1 0x40 MSTORE RETURNDATASIZE DUP3 MSTORE RETURNDATASIZE PUSH0 PUSH1 0x20 DUP5 ADD RETURNDATACOPY PUSH2 0x191 JUMP JUMPDEST PUSH1 0x60 SWAP2 POP JUMPDEST POP POP SWAP1 POP DUP1 PUSH2 0x1D5 JUMPI PUSH1 0x40 MLOAD PUSH32 0x8C379A000000000000000000000000000000000000000000000000000000000 DUP2 MSTORE PUSH1 0x4 ADD PUSH2 0x1CC SWAP1 PUSH2 0x502 JUMP JUMPDEST PUSH1 0x40 MLOAD DUP1 SWAP2 SUB SWAP1 REVERT JUMPDEST POP JUMP JUMPDEST PUSH1 0x60 PUSH0 PUSH1 0x40 MLOAD PUSH1 0x24 ADD PUSH2 0x1EA SWAP1 PUSH2 0x56A JUMP JUMPDEST PUSH1 0x40 MLOAD PUSH1 0x20 DUP2 DUP4 SUB SUB DUP2 MSTORE SWAP1 PUSH1 0x40 MSTORE PUSH32 0xF2C298BE00000000000000000000000000000000000000000000000000000000 PUSH28 0xFFFFFFFFFFFFFFFFFFFFFFFFFFFFFFFFFFFFFFFFFFFFFFFFFFFFFFFF NOT AND PUSH1 0x20 DUP3 ADD DUP1 MLOAD PUSH28 0xFFFFFFFFFFFFFFFFFFFFFFFFFFFFFFFFFFFFFFFFFFFFFFFFFFFFFFFF DUP4 DUP2 DUP4 AND OR DUP4 MSTORE POP POP POP POP SWAP1 POP PUSH0 DUP1 PUSH0 DUP1 SLOAD SWAP1 PUSH2 0x100 EXP SWAP1 DIV PUSH20 0xFFFFFFFFFFFFFFFFFFFFFFFFFFFFFFFFFFFFFFFF AND PUSH20 0xFFFFFFFFFFFFFFFFFFFFFFFFFFFFFFFFFFFFFFFF AND DUP4 PUSH1 0x40 MLOAD PUSH2 0x2AF SWAP2 SWAP1 PUSH2 0x4A2 JUMP JUMPDEST PUSH0 PUSH1 0x40 MLOAD DUP1 DUP4 SUB DUP2 PUSH0 DUP7 GAS CALL SWAP2 POP POP RETURNDATASIZE DUP1 PUSH0 DUP2 EQ PUSH2 0x2E8 JUMPI PUSH1 0x40 MLOAD SWAP2 POP PUSH1 0x1F NOT PUSH1 0x3F RETURNDATASIZE ADD AND DUP3 ADD PUSH1 0x40 MSTORE RETURNDATASIZE DUP3 MSTORE RETURNDATASIZE PUSH0 PUSH1 0x20 DUP5 ADD RETURNDATACOPY PUSH2 0x2ED JUMP JUMPDEST PUSH1 0x60 SWAP2 POP JUMPDEST POP SWAP2 POP SWAP2 POP DUP2 PUSH2 0x332 JUMPI PUSH1 0x40 MLOAD PUSH32 0x8C379A000000000000000000000000000000000000000000000000000000000 DUP2 MSTORE PUSH1 0x4 ADD PUSH2 0x329 SWAP1 PUSH2 0x5D2 JUMP JUMPDEST PUSH1 0x40 MLOAD DUP1 SWAP2 SUB SWAP1 REVERT JUMPDEST PUSH0 DUP2 DUP1 PUSH1 0x20 ADD SWAP1 MLOAD DUP2 ADD SWAP1 PUSH2 0x347 SWAP2 SWAP1 PUSH2 0x71F JUMP JUMPDEST SWAP1 POP DUP1 SWAP5 POP POP POP POP POP SWAP1 JUMP JUMPDEST PUSH0 DUP1 SLOAD SWAP1 PUSH2 0x100 EXP SWAP1 DIV PUSH20 0xFFFFFFFFFFFFFFFFFFFFFFFFFFFFFFFFFFFFFFFF AND DUP2 JUMP JUMPDEST PUSH0 DUP2 MLOAD SWAP1 POP SWAP2 SWAP1 POP JUMP JUMPDEST PUSH0 DUP3 DUP3 MSTORE PUSH1 0x20 DUP3 ADD SWAP1 POP SWAP3 SWAP2 POP POP JUMP JUMPDEST DUP3 DUP2 DUP4 MCOPY PUSH0 DUP4 DUP4 ADD MSTORE POP POP POP JUMP JUMPDEST PUSH0 PUSH1 0x1F NOT PUSH1 0x1F DUP4 ADD AND SWAP1 POP SWAP2 SWAP1 POP JUMP JUMPDEST PUSH0 PUSH2 0x3B8 DUP3 PUSH2 0x376 JUMP JUMPDEST PUSH2 0x3C2 DUP2 DUP6 PUSH2 0x380 JUMP JUMPDEST SWAP4 POP PUSH2 0x3D2 DUP2 DUP6 PUSH1 0x20 DUP7 ADD PUSH2 0x390 JUMP JUMPDEST PUSH2 0x3DB DUP2 PUSH2 0x39E JUMP JUMPDEST DUP5 ADD SWAP2 POP POP SWAP3 SWAP2 POP POP JUMP JUMPDEST PUSH0 PUSH1 0x20 DUP3 ADD SWAP1 POP DUP2 DUP2 SUB PUSH0 DUP4 ADD MSTORE PUSH2 0x3FE DUP2 DUP5 PUSH2 0x3AE JUMP JUMPDEST SWAP1 POP SWAP3 SWAP2 POP POP JUMP JUMPDEST PUSH0 PUSH20 0xFFFFFFFFFFFFFFFFFFFFFFFFFFFFFFFFFFFFFFFF DUP3 AND SWAP1 POP SWAP2 SWAP1 POP JUMP JUMPDEST PUSH0 PUSH2 0x42F DUP3 PUSH2 0x406 JUMP JUMPDEST SWAP1 POP SWAP2 SWAP1 POP JUMP JUMPDEST PUSH2 0x43F DUP2 PUSH2 0x425 JUMP JUMPDEST DUP3 MSTORE POP POP JUMP JUMPDEST PUSH0 PUSH1 0x20 DUP3 ADD SWAP1 POP PUSH2 0x458 PUSH0 DUP4 ADD DUP5 PUSH2 0x436 JUMP JUMPDEST SWAP3 SWAP2 POP POP JUMP JUMPDEST PUSH0 DUP2 MLOAD SWAP1 POP SWAP2 SWAP1 POP JUMP JUMPDEST PUSH0 DUP2 SWAP1 POP SWAP3 SWAP2 POP POP JUMP JUMPDEST PUSH0 PUSH2 0x47C DUP3 PUSH2 0x45E JUMP JUMPDEST PUSH2 0x486 DUP2 DUP6 PUSH2 0x468 JUMP JUMPDEST SWAP4 POP PUSH2 0x496 DUP2 DUP6 PUSH1 0x20 DUP7 ADD PUSH2 0x390 JUMP JUMPDEST DUP1 DUP5 ADD SWAP2 POP POP SWAP3 SWAP2 POP POP JUMP JUMPDEST PUSH0 PUSH2 0x4AD DUP3 DUP5 PUSH2 0x472 JUMP JUMPDEST SWAP2 POP DUP2 SWAP1 POP SWAP3 SWAP2 POP POP JUMP JUMPDEST PUSH32 0x43616C6C206661696C6564000000000000000000000000000000000000000000 PUSH0 DUP3 ADD MSTORE POP JUMP JUMPDEST PUSH0 PUSH2 0x4EC PUSH1 0xB DUP4 PUSH2 0x380 JUMP JUMPDEST SWAP2 POP PUSH2 0x4F7 DUP3 PUSH2 0x4B8 JUMP JUMPDEST PUSH1 0x20 DUP3 ADD SWAP1 POP SWAP2 SWAP1 POP JUMP JUMPDEST PUSH0 PUSH1 0x20 DUP3 ADD SWAP1 POP DUP2 DUP2 SUB PUSH0 DUP4 ADD MSTORE PUSH2 0x519 DUP2 PUSH2 0x4E0 JUMP JUMPDEST SWAP1 POP SWAP2 SWAP1 POP JUMP JUMPDEST PUSH32 0x4D794E616D650000000000000000000000000000000000000000000000000000 PUSH0 DUP3 ADD MSTORE POP JUMP JUMPDEST PUSH0 PUSH2 0x554 PUSH1 0x6 DUP4 PUSH2 0x380 JUMP JUMPDEST SWAP2 POP PUSH2 0x55F DUP3 PUSH2 0x520 JUMP JUMPDEST PUSH1 0x20 DUP3 ADD SWAP1 POP SWAP2 SWAP1 POP JUMP JUMPDEST PUSH0 PUSH1 0x20 DUP3 ADD SWAP1 POP DUP2 DUP2 SUB PUSH0 DUP4 ADD MSTORE PUSH2 0x581 DUP2 PUSH2 0x548 JUMP JUMPDEST SWAP1 POP SWAP2 SWAP1 POP JUMP JUMPDEST PUSH32 0x5468652063616C6C20776173206E6F74207375636365737366756C0000000000 PUSH0 DUP3 ADD MSTORE POP JUMP JUMPDEST PUSH0 PUSH2 0x5BC PUSH1 0x1B DUP4 PUSH2 0x380 JUMP JUMPDEST SWAP2 POP PUSH2 0x5C7 DUP3 PUSH2 0x588 JUMP JUMPDEST PUSH1 0x20 DUP3 ADD SWAP1 POP SWAP2 SWAP1 POP JUMP JUMPDEST PUSH0 PUSH1 0x20 DUP3 ADD SWAP1 POP DUP2 DUP2 SUB PUSH0 DUP4 ADD MSTORE PUSH2 0x5E9 DUP2 PUSH2 0x5B0 JUMP JUMPDEST SWAP1 POP SWAP2 SWAP1 POP JUMP JUMPDEST PUSH0 PUSH1 0x40 MLOAD SWAP1 POP SWAP1 JUMP JUMPDEST PUSH0 DUP1 REVERT JUMPDEST PUSH0 DUP1 REVERT JUMPDEST PUSH0 DUP1 REVERT JUMPDEST PUSH0 DUP1 REVERT JUMPDEST PUSH32 0x4E487B7100000000000000000000000000000000000000000000000000000000 PUSH0 MSTORE PUSH1 0x41 PUSH1 0x4 MSTORE PUSH1 0x24 PUSH0 REVERT JUMPDEST PUSH2 0x63F DUP3 PUSH2 0x39E JUMP JUMPDEST DUP2 ADD DUP2 DUP2 LT PUSH8 0xFFFFFFFFFFFFFFFF DUP3 GT OR ISZERO PUSH2 0x65E JUMPI PUSH2 0x65D PUSH2 0x609 JUMP JUMPDEST JUMPDEST DUP1 PUSH1 0x40 MSTORE POP POP POP JUMP JUMPDEST PUSH0 PUSH2 0x670 PUSH2 0x5F0 JUMP JUMPDEST SWAP1 POP PUSH2 0x67C DUP3 DUP3 PUSH2 0x636 JUMP JUMPDEST SWAP2 SWAP1 POP JUMP JUMPDEST PUSH0 PUSH8 0xFFFFFFFFFFFFFFFF DUP3 GT ISZERO PUSH2 0x69B JUMPI PUSH2 0x69A PUSH2 0x609 JUMP JUMPDEST JUMPDEST PUSH2 0x6A4 DUP3 PUSH2 0x39E JUMP JUMPDEST SWAP1 POP PUSH1 0x20 DUP2 ADD SWAP1 POP SWAP2 SWAP1 POP JUMP JUMPDEST PUSH0 PUSH2 0x6C3 PUSH2 0x6BE DUP5 PUSH2 0x681 JUMP JUMPDEST PUSH2 0x667 JUMP JUMPDEST SWAP1 POP DUP3 DUP2 MSTORE PUSH1 0x20 DUP2 ADD DUP5 DUP5 DUP5 ADD GT ISZERO PUSH2 0x6DF JUMPI PUSH2 0x6DE PUSH2 0x605 JUMP JUMPDEST JUMPDEST PUSH2 0x6EA DUP5 DUP3 DUP6 PUSH2 0x390 JUMP JUMPDEST POP SWAP4 SWAP3 POP POP POP JUMP JUMPDEST PUSH0 DUP3 PUSH1 0x1F DUP4 ADD SLT PUSH2 0x706 JUMPI PUSH2 0x705 PUSH2 0x601 JUMP JUMPDEST JUMPDEST DUP2 MLOAD PUSH2 0x716 DUP5 DUP3 PUSH1 0x20 DUP7 ADD PUSH2 0x6B1 JUMP JUMPDEST SWAP2 POP POP SWAP3 SWAP2 POP POP JUMP JUMPDEST PUSH0 PUSH1 0x20 DUP3 DUP5 SUB SLT ISZERO PUSH2 0x734 JUMPI PUSH2 0x733 PUSH2 0x5F9 JUMP JUMPDEST JUMPDEST PUSH0 DUP3 ADD MLOAD PUSH8 0xFFFFFFFFFFFFFFFF DUP2 GT ISZERO PUSH2 0x751 JUMPI PUSH2 0x750 PUSH2 0x5FD JUMP JUMPDEST JUMPDEST PUSH2 0x75D DUP5 DUP3 DUP6 ADD PUSH2 0x6F2 JUMP JUMPDEST SWAP2 POP POP SWAP3 SWAP2 POP POP JUMP INVALID LOG2 PUSH5 0x6970667358 0x22 SLT KECCAK256 MSTORE CALLVALUE 0xBC 0xA6 COINBASE 0xBC 0x1E 0x22 0xCE 0xA7 0x27 DIV PUSH25 0xA6C451C4CCE0E3269CD12C8857A4AA7D14A00D64736F6C6343 STOP ADDMOD BYTE STOP CALLER "
		},
		"gasEstimates": {
			"creation": {
				"codeDepositCost": "389600",
				"executionCost": "infinite",
				"totalCost": "infinite"
			},
			"external": {
				"callee()": "2527",
				"sendEtherAndCall()": "infinite",
				"sendEtherAndCall2()": "infinite"
			}
		},
		"methodIdentifiers": {
			"callee()": "ceee2e20",
			"sendEtherAndCall()": "051eeba0",
			"sendEtherAndCall2()": "70ce036c"
		}
	},
	"abi": [
		{
			"inputs": [
				{
					"internalType": "address payable",
					"name": "_callee",
					"type": "address"
				}
			],
			"stateMutability": "nonpayable",
			"type": "constructor"
		},
		{
			"inputs": [],
			"name": "callee",
			"outputs": [
				{
					"internalType": "address payable",
					"name": "",
					"type": "address"
				}
			],
			"stateMutability": "view",
			"type": "function"
		},
		{
			"inputs": [],
			"name": "sendEtherAndCall",
			"outputs": [],
			"stateMutability": "payable",
			"type": "function"
		},
		{
			"inputs": [],
			"name": "sendEtherAndCall2",
			"outputs": [
				{
					"internalType": "string",
					"name": "",
					"type": "string"
				}
			],
			"stateMutability": "payable",
			"type": "function"
		}
	]
}