{
	"solidity/3.1.2/PayableExample.sol": {
		"PayableExample": {
			"abi": [
				{
					"inputs": [
						{
							"internalType": "address payable",
							"name": "_recipient",
							"type": "address"
						}
					],
					"stateMutability": "nonpayable",
					"type": "constructor"
				},
				{
					"inputs": [],
					"name": "getRecipientBalance",
					"outputs": [
						{
							"internalType": "uint256",
							"name": "",
							"type": "uint256"
						}
					],
					"stateMutability": "view",
					"type": "function"
				},
				{
					"inputs": [],
					"name": "recipient",
					"outputs": [
						{
							"internalType": "address payable",
							"name": "",
							"type": "address"
						}
					],
					"stateMutability": "view",
					"type": "function"
				},
				{
					"inputs": [],
					"name": "sendEther",
					"outputs": [],
					"stateMutability": "payable",
					"type": "function"
				}
			],
			"devdoc": {
				"kind": "dev",
				"methods": {},
				"version": 1
			},
			"evm": {
				"assembly": "    /* \"solidity/3.1.2/PayableExample.sol\":60:588  contract PayableExample {... */\n  mstore(0x40, 0x80)\n    /* \"solidity/3.1.2/PayableExample.sol\":132:243  constructor(address payable _recipient) {... */\n  callvalue\n  dup1\n  iszero\n  tag_1\n  jumpi\n  0x00\n  dup1\n  revert\ntag_1:\n  pop\n  mload(0x40)\n  sub(codesize, bytecodeSize)\n  dup1\n  bytecodeSize\n  dup4\n  codecopy\n  dup2\n  dup2\n  add\n  0x40\n  mstore\n  dup2\n  add\n  swap1\n  tag_2\n  swap2\n  swap1\n  tag_3\n  jump\t// in\ntag_2:\n    /* \"solidity/3.1.2/PayableExample.sol\":195:205  _recipient */\n  dup1\n    /* \"solidity/3.1.2/PayableExample.sol\":183:192  recipient */\n  0x00\n  dup1\n    /* \"solidity/3.1.2/PayableExample.sol\":183:205  recipient = _recipient */\n  0x0100\n  exp\n  dup2\n  sload\n  dup2\n  0xffffffffffffffffffffffffffffffffffffffff\n  mul\n  not\n  and\n  swap1\n  dup4\n  0xffffffffffffffffffffffffffffffffffffffff\n  and\n  mul\n  or\n  swap1\n  sstore\n  pop\n    /* \"solidity/3.1.2/PayableExample.sol\":132:243  constructor(address payable _recipient) {... */\n  pop\n    /* \"solidity/3.1.2/PayableExample.sol\":60:588  contract PayableExample {... */\n  jump(tag_6)\n    /* \"#utility.yul\":88:205   */\ntag_8:\n    /* \"#utility.yul\":197:198   */\n  0x00\n    /* \"#utility.yul\":194:195   */\n  dup1\n    /* \"#utility.yul\":187:199   */\n  revert\n    /* \"#utility.yul\":334:460   */\ntag_10:\n    /* \"#utility.yul\":371:378   */\n  0x00\n    /* \"#utility.yul\":411:453   */\n  0xffffffffffffffffffffffffffffffffffffffff\n    /* \"#utility.yul\":404:409   */\n  dup3\n    /* \"#utility.yul\":400:454   */\n  and\n    /* \"#utility.yul\":389:454   */\n  swap1\n  pop\n    /* \"#utility.yul\":334:460   */\n  swap2\n  swap1\n  pop\n  jump\t// out\n    /* \"#utility.yul\":466:570   */\ntag_11:\n    /* \"#utility.yul\":511:518   */\n  0x00\n    /* \"#utility.yul\":540:564   */\n  tag_20\n    /* \"#utility.yul\":558:563   */\n  dup3\n    /* \"#utility.yul\":540:564   */\n  tag_10\n  jump\t// in\ntag_20:\n    /* \"#utility.yul\":529:564   */\n  swap1\n  pop\n    /* \"#utility.yul\":466:570   */\n  swap2\n  swap1\n  pop\n  jump\t// out\n    /* \"#utility.yul\":576:714   */\ntag_12:\n    /* \"#utility.yul\":657:689   */\n  tag_22\n    /* \"#utility.yul\":683:688   */\n  dup2\n    /* \"#utility.yul\":657:689   */\n  tag_11\n  jump\t// in\ntag_22:\n    /* \"#utility.yul\":650:655   */\n  dup2\n    /* \"#utility.yul\":647:690   */\n  eq\n    /* \"#utility.yul\":637:708   */\n  tag_23\n  jumpi\n    /* \"#utility.yul\":704:705   */\n  0x00\n    /* \"#utility.yul\":701:702   */\n  dup1\n    /* \"#utility.yul\":694:706   */\n  revert\n    /* \"#utility.yul\":637:708   */\ntag_23:\n    /* \"#utility.yul\":576:714   */\n  pop\n  jump\t// out\n    /* \"#utility.yul\":720:879   */\ntag_13:\n    /* \"#utility.yul\":785:790   */\n  0x00\n    /* \"#utility.yul\":816:822   */\n  dup2\n    /* \"#utility.yul\":810:823   */\n  mload\n    /* \"#utility.yul\":801:823   */\n  swap1\n  pop\n    /* \"#utility.yul\":832:873   */\n  tag_25\n    /* \"#utility.yul\":867:872   */\n  dup2\n    /* \"#utility.yul\":832:873   */\n  tag_12\n  jump\t// in\ntag_25:\n    /* \"#utility.yul\":720:879   */\n  swap3\n  swap2\n  pop\n  pop\n  jump\t// out\n    /* \"#utility.yul\":885:1252   */\ntag_3:\n    /* \"#utility.yul\":963:969   */\n  0x00\n    /* \"#utility.yul\":1012:1014   */\n  0x20\n    /* \"#utility.yul\":1000:1009   */\n  dup3\n    /* \"#utility.yul\":991:998   */\n  dup5\n    /* \"#utility.yul\":987:1010   */\n  sub\n    /* \"#utility.yul\":983:1015   */\n  slt\n    /* \"#utility.yul\":980:1099   */\n  iszero\n  tag_27\n  jumpi\n    /* \"#utility.yul\":1018:1097   */\n  tag_28\n  tag_8\n  jump\t// in\ntag_28:\n    /* \"#utility.yul\":980:1099   */\ntag_27:\n    /* \"#utility.yul\":1138:1139   */\n  0x00\n    /* \"#utility.yul\":1163:1235   */\n  tag_29\n    /* \"#utility.yul\":1227:1234   */\n  dup5\n    /* \"#utility.yul\":1218:1224   */\n  dup3\n    /* \"#utility.yul\":1207:1216   */\n  dup6\n    /* \"#utility.yul\":1203:1225   */\n  add\n    /* \"#utility.yul\":1163:1235   */\n  tag_13\n  jump\t// in\ntag_29:\n    /* \"#utility.yul\":1153:1235   */\n  swap2\n  pop\n    /* \"#utility.yul\":1109:1245   */\n  pop\n    /* \"#utility.yul\":885:1252   */\n  swap3\n  swap2\n  pop\n  pop\n  jump\t// out\n    /* \"solidity/3.1.2/PayableExample.sol\":60:588  contract PayableExample {... */\ntag_6:\n  dataSize(sub_0)\n  dup1\n  dataOffset(sub_0)\n  0x00\n  codecopy\n  0x00\n  return\nstop\n\nsub_0: assembly {\n        /* \"solidity/3.1.2/PayableExample.sol\":60:588  contract PayableExample {... */\n      mstore(0x40, 0x80)\n      jumpi(tag_1, lt(calldatasize, 0x04))\n      shr(0xe0, calldataload(0x00))\n      dup1\n      0x0e29df22\n      eq\n      tag_2\n      jumpi\n      dup1\n      0x66d003ac\n      eq\n      tag_3\n      jumpi\n      dup1\n      0xac570411\n      eq\n      tag_4\n      jumpi\n    tag_1:\n      0x00\n      dup1\n      revert\n        /* \"solidity/3.1.2/PayableExample.sol\":251:436  function sendEther() public payable {... */\n    tag_2:\n      tag_5\n      tag_6\n      jump\t// in\n    tag_5:\n      stop\n        /* \"solidity/3.1.2/PayableExample.sol\":91:123  address payable public recipient */\n    tag_3:\n      callvalue\n      dup1\n      iszero\n      tag_7\n      jumpi\n      0x00\n      dup1\n      revert\n    tag_7:\n      pop\n      tag_8\n      tag_9\n      jump\t// in\n    tag_8:\n      mload(0x40)\n      tag_10\n      swap2\n      swap1\n      tag_11\n      jump\t// in\n    tag_10:\n      mload(0x40)\n      dup1\n      swap2\n      sub\n      swap1\n      return\n        /* \"solidity/3.1.2/PayableExample.sol\":444:585  function getRecipientBalance() public view returns (uint) {... */\n    tag_4:\n      callvalue\n      dup1\n      iszero\n      tag_12\n      jumpi\n      0x00\n      dup1\n      revert\n    tag_12:\n      pop\n      tag_13\n      tag_14\n      jump\t// in\n    tag_13:\n      mload(0x40)\n      tag_15\n      swap2\n      swap1\n      tag_16\n      jump\t// in\n    tag_15:\n      mload(0x40)\n      dup1\n      swap2\n      sub\n      swap1\n      return\n        /* \"solidity/3.1.2/PayableExample.sol\":251:436  function sendEther() public payable {... */\n    tag_6:\n        /* \"solidity/3.1.2/PayableExample.sol\":318:319  0 */\n      0x00\n        /* \"solidity/3.1.2/PayableExample.sol\":306:315  msg.value */\n      callvalue\n        /* \"solidity/3.1.2/PayableExample.sol\":306:319  msg.value > 0 */\n      gt\n        /* \"solidity/3.1.2/PayableExample.sol\":298:339  require(msg.value > 0, \"Send some ether\") */\n      tag_18\n      jumpi\n      mload(0x40)\n      0x08c379a000000000000000000000000000000000000000000000000000000000\n      dup2\n      mstore\n      0x04\n      add\n      tag_19\n      swap1\n      tag_20\n      jump\t// in\n    tag_19:\n      mload(0x40)\n      dup1\n      swap2\n      sub\n      swap1\n      revert\n    tag_18:\n        /* \"solidity/3.1.2/PayableExample.sol\":350:359  recipient */\n      0x00\n      dup1\n      sload\n      swap1\n      0x0100\n      exp\n      swap1\n      div\n      0xffffffffffffffffffffffffffffffffffffffff\n      and\n        /* \"solidity/3.1.2/PayableExample.sol\":350:368  recipient.transfer */\n      0xffffffffffffffffffffffffffffffffffffffff\n      and\n        /* \"solidity/3.1.2/PayableExample.sol\":350:379  recipient.transfer(msg.value) */\n      0x08fc\n        /* \"solidity/3.1.2/PayableExample.sol\":369:378  msg.value */\n      callvalue\n        /* \"solidity/3.1.2/PayableExample.sol\":350:379  recipient.transfer(msg.value) */\n      swap1\n      dup2\n      iszero\n      mul\n      swap1\n      mload(0x40)\n      0x00\n      mload(0x40)\n      dup1\n      dup4\n      sub\n      dup2\n      dup6\n      dup9\n      dup9\n      call\n      swap4\n      pop\n      pop\n      pop\n      pop\n      iszero\n      dup1\n      iszero\n      tag_22\n      jumpi\n      returndatasize\n      0x00\n      dup1\n      returndatacopy\n      revert(0x00, returndatasize)\n    tag_22:\n      pop\n        /* \"solidity/3.1.2/PayableExample.sol\":251:436  function sendEther() public payable {... */\n      jump\t// out\n        /* \"solidity/3.1.2/PayableExample.sol\":91:123  address payable public recipient */\n    tag_9:\n      0x00\n      dup1\n      sload\n      swap1\n      0x0100\n      exp\n      swap1\n      div\n      0xffffffffffffffffffffffffffffffffffffffff\n      and\n      dup2\n      jump\t// out\n        /* \"solidity/3.1.2/PayableExample.sol\":444:585  function getRecipientBalance() public view returns (uint) {... */\n    tag_14:\n        /* \"solidity/3.1.2/PayableExample.sol\":496:500  uint */\n      0x00\n        /* \"solidity/3.1.2/PayableExample.sol\":520:529  recipient */\n      dup1\n      0x00\n      swap1\n      sload\n      swap1\n      0x0100\n      exp\n      swap1\n      div\n      0xffffffffffffffffffffffffffffffffffffffff\n      and\n        /* \"solidity/3.1.2/PayableExample.sol\":520:537  recipient.balance */\n      0xffffffffffffffffffffffffffffffffffffffff\n      and\n      balance\n        /* \"solidity/3.1.2/PayableExample.sol\":513:537  return recipient.balance */\n      swap1\n      pop\n        /* \"solidity/3.1.2/PayableExample.sol\":444:585  function getRecipientBalance() public view returns (uint) {... */\n      swap1\n      jump\t// out\n        /* \"#utility.yul\":7:133   */\n    tag_24:\n        /* \"#utility.yul\":44:51   */\n      0x00\n        /* \"#utility.yul\":84:126   */\n      0xffffffffffffffffffffffffffffffffffffffff\n        /* \"#utility.yul\":77:82   */\n      dup3\n        /* \"#utility.yul\":73:127   */\n      and\n        /* \"#utility.yul\":62:127   */\n      swap1\n      pop\n        /* \"#utility.yul\":7:133   */\n      swap2\n      swap1\n      pop\n      jump\t// out\n        /* \"#utility.yul\":139:243   */\n    tag_25:\n        /* \"#utility.yul\":184:191   */\n      0x00\n        /* \"#utility.yul\":213:237   */\n      tag_35\n        /* \"#utility.yul\":231:236   */\n      dup3\n        /* \"#utility.yul\":213:237   */\n      tag_24\n      jump\t// in\n    tag_35:\n        /* \"#utility.yul\":202:237   */\n      swap1\n      pop\n        /* \"#utility.yul\":139:243   */\n      swap2\n      swap1\n      pop\n      jump\t// out\n        /* \"#utility.yul\":249:391   */\n    tag_26:\n        /* \"#utility.yul\":352:384   */\n      tag_37\n        /* \"#utility.yul\":378:383   */\n      dup2\n        /* \"#utility.yul\":352:384   */\n      tag_25\n      jump\t// in\n    tag_37:\n        /* \"#utility.yul\":347:350   */\n      dup3\n        /* \"#utility.yul\":340:385   */\n      mstore\n        /* \"#utility.yul\":249:391   */\n      pop\n      pop\n      jump\t// out\n        /* \"#utility.yul\":397:651   */\n    tag_11:\n        /* \"#utility.yul\":506:510   */\n      0x00\n        /* \"#utility.yul\":544:546   */\n      0x20\n        /* \"#utility.yul\":533:542   */\n      dup3\n        /* \"#utility.yul\":529:547   */\n      add\n        /* \"#utility.yul\":521:547   */\n      swap1\n      pop\n        /* \"#utility.yul\":557:644   */\n      tag_39\n        /* \"#utility.yul\":641:642   */\n      0x00\n        /* \"#utility.yul\":630:639   */\n      dup4\n        /* \"#utility.yul\":626:643   */\n      add\n        /* \"#utility.yul\":617:623   */\n      dup5\n        /* \"#utility.yul\":557:644   */\n      tag_26\n      jump\t// in\n    tag_39:\n        /* \"#utility.yul\":397:651   */\n      swap3\n      swap2\n      pop\n      pop\n      jump\t// out\n        /* \"#utility.yul\":657:734   */\n    tag_27:\n        /* \"#utility.yul\":694:701   */\n      0x00\n        /* \"#utility.yul\":723:728   */\n      dup2\n        /* \"#utility.yul\":712:728   */\n      swap1\n      pop\n        /* \"#utility.yul\":657:734   */\n      swap2\n      swap1\n      pop\n      jump\t// out\n        /* \"#utility.yul\":740:858   */\n    tag_28:\n        /* \"#utility.yul\":827:851   */\n      tag_42\n        /* \"#utility.yul\":845:850   */\n      dup2\n        /* \"#utility.yul\":827:851   */\n      tag_27\n      jump\t// in\n    tag_42:\n        /* \"#utility.yul\":822:825   */\n      dup3\n        /* \"#utility.yul\":815:852   */\n      mstore\n        /* \"#utility.yul\":740:858   */\n      pop\n      pop\n      jump\t// out\n        /* \"#utility.yul\":864:1086   */\n    tag_16:\n        /* \"#utility.yul\":957:961   */\n      0x00\n        /* \"#utility.yul\":995:997   */\n      0x20\n        /* \"#utility.yul\":984:993   */\n      dup3\n        /* \"#utility.yul\":980:998   */\n      add\n        /* \"#utility.yul\":972:998   */\n      swap1\n      pop\n        /* \"#utility.yul\":1008:1079   */\n      tag_44\n        /* \"#utility.yul\":1076:1077   */\n      0x00\n        /* \"#utility.yul\":1065:1074   */\n      dup4\n        /* \"#utility.yul\":1061:1078   */\n      add\n        /* \"#utility.yul\":1052:1058   */\n      dup5\n        /* \"#utility.yul\":1008:1079   */\n      tag_28\n      jump\t// in\n    tag_44:\n        /* \"#utility.yul\":864:1086   */\n      swap3\n      swap2\n      pop\n      pop\n      jump\t// out\n        /* \"#utility.yul\":1092:1261   */\n    tag_29:\n        /* \"#utility.yul\":1176:1187   */\n      0x00\n        /* \"#utility.yul\":1210:1216   */\n      dup3\n        /* \"#utility.yul\":1205:1208   */\n      dup3\n        /* \"#utility.yul\":1198:1217   */\n      mstore\n        /* \"#utility.yul\":1250:1254   */\n      0x20\n        /* \"#utility.yul\":1245:1248   */\n      dup3\n        /* \"#utility.yul\":1241:1255   */\n      add\n        /* \"#utility.yul\":1226:1255   */\n      swap1\n      pop\n        /* \"#utility.yul\":1092:1261   */\n      swap3\n      swap2\n      pop\n      pop\n      jump\t// out\n        /* \"#utility.yul\":1267:1432   */\n    tag_30:\n        /* \"#utility.yul\":1407:1424   */\n      0x53656e6420736f6d652065746865720000000000000000000000000000000000\n        /* \"#utility.yul\":1403:1404   */\n      0x00\n        /* \"#utility.yul\":1395:1401   */\n      dup3\n        /* \"#utility.yul\":1391:1405   */\n      add\n        /* \"#utility.yul\":1384:1425   */\n      mstore\n        /* \"#utility.yul\":1267:1432   */\n      pop\n      jump\t// out\n        /* \"#utility.yul\":1438:1804   */\n    tag_31:\n        /* \"#utility.yul\":1580:1583   */\n      0x00\n        /* \"#utility.yul\":1601:1668   */\n      tag_48\n        /* \"#utility.yul\":1665:1667   */\n      0x0f\n        /* \"#utility.yul\":1660:1663   */\n      dup4\n        /* \"#utility.yul\":1601:1668   */\n      tag_29\n      jump\t// in\n    tag_48:\n        /* \"#utility.yul\":1594:1668   */\n      swap2\n      pop\n        /* \"#utility.yul\":1677:1770   */\n      tag_49\n        /* \"#utility.yul\":1766:1769   */\n      dup3\n        /* \"#utility.yul\":1677:1770   */\n      tag_30\n      jump\t// in\n    tag_49:\n        /* \"#utility.yul\":1795:1797   */\n      0x20\n        /* \"#utility.yul\":1790:1793   */\n      dup3\n        /* \"#utility.yul\":1786:1798   */\n      add\n        /* \"#utility.yul\":1779:1798   */\n      swap1\n      pop\n        /* \"#utility.yul\":1438:1804   */\n      swap2\n      swap1\n      pop\n      jump\t// out\n        /* \"#utility.yul\":1810:2229   */\n    tag_20:\n        /* \"#utility.yul\":1976:1980   */\n      0x00\n        /* \"#utility.yul\":2014:2016   */\n      0x20\n        /* \"#utility.yul\":2003:2012   */\n      dup3\n        /* \"#utility.yul\":1999:2017   */\n      add\n        /* \"#utility.yul\":1991:2017   */\n      swap1\n      pop\n        /* \"#utility.yul\":2063:2072   */\n      dup2\n        /* \"#utility.yul\":2057:2061   */\n      dup2\n        /* \"#utility.yul\":2053:2073   */\n      sub\n        /* \"#utility.yul\":2049:2050   */\n      0x00\n        /* \"#utility.yul\":2038:2047   */\n      dup4\n        /* \"#utility.yul\":2034:2051   */\n      add\n        /* \"#utility.yul\":2027:2074   */\n      mstore\n        /* \"#utility.yul\":2091:2222   */\n      tag_51\n        /* \"#utility.yul\":2217:2221   */\n      dup2\n        /* \"#utility.yul\":2091:2222   */\n      tag_31\n      jump\t// in\n    tag_51:\n        /* \"#utility.yul\":2083:2222   */\n      swap1\n      pop\n        /* \"#utility.yul\":1810:2229   */\n      swap2\n      swap1\n      pop\n      jump\t// out\n\n    auxdata: 0xa264697066735822122007a388893bd50f60cdac46b3f7f73e82334fa75964f0094881583b832011965e64736f6c634300081a0033\n}\n",
				"bytecode": {
					"linkReferences": {},
					"object": "608060405234801561000f575f80fd5b506040516103e03803806103e0833981810160405281019061003191906100d4565b805f806101000a81548173ffffffffffffffffffffffffffffffffffffffff021916908373ffffffffffffffffffffffffffffffffffffffff160217905550506100ff565b5f80fd5b5f73ffffffffffffffffffffffffffffffffffffffff82169050919050565b5f6100a38261007a565b9050919050565b6100b381610099565b81146100bd575f80fd5b50565b5f815190506100ce816100aa565b92915050565b5f602082840312156100e9576100e8610076565b5b5f6100f6848285016100c0565b91505092915050565b6102d48061010c5f395ff3fe608060405260043610610033575f3560e01c80630e29df221461003757806366d003ac14610041578063ac5704111461006b575b5f80fd5b61003f610095565b005b34801561004c575f80fd5b5061005561013c565b60405161006291906101dc565b60405180910390f35b348015610076575f80fd5b5061007f61015f565b60405161008c919061020d565b60405180910390f35b5f34116100d7576040517f08c379a00000000000000000000000000000000000000000000000000000000081526004016100ce90610280565b60405180910390fd5b5f8054906101000a900473ffffffffffffffffffffffffffffffffffffffff1673ffffffffffffffffffffffffffffffffffffffff166108fc3490811502906040515f60405180830381858888f19350505050158015610139573d5f803e3d5ffd5b50565b5f8054906101000a900473ffffffffffffffffffffffffffffffffffffffff1681565b5f805f9054906101000a900473ffffffffffffffffffffffffffffffffffffffff1673ffffffffffffffffffffffffffffffffffffffff1631905090565b5f73ffffffffffffffffffffffffffffffffffffffff82169050919050565b5f6101c68261019d565b9050919050565b6101d6816101bc565b82525050565b5f6020820190506101ef5f8301846101cd565b92915050565b5f819050919050565b610207816101f5565b82525050565b5f6020820190506102205f8301846101fe565b92915050565b5f82825260208201905092915050565b7f53656e6420736f6d6520657468657200000000000000000000000000000000005f82015250565b5f61026a600f83610226565b915061027582610236565b602082019050919050565b5f6020820190508181035f8301526102978161025e565b905091905056fea264697066735822122007a388893bd50f60cdac46b3f7f73e82334fa75964f0094881583b832011965e64736f6c634300081a0033",
					"opcodes": "PUSH1 0x80 PUSH1 0x40 MSTORE CALLVALUE DUP1 ISZERO PUSH2 0xF JUMPI PUSH0 DUP1 REVERT JUMPDEST POP PUSH1 0x40 MLOAD PUSH2 0x3E0 CODESIZE SUB DUP1 PUSH2 0x3E0 DUP4 CODECOPY DUP2 DUP2 ADD PUSH1 0x40 MSTORE DUP2 ADD SWAP1 PUSH2 0x31 SWAP2 SWAP1 PUSH2 0xD4 JUMP JUMPDEST DUP1 PUSH0 DUP1 PUSH2 0x100 EXP DUP2 SLOAD DUP2 PUSH20 0xFFFFFFFFFFFFFFFFFFFFFFFFFFFFFFFFFFFFFFFF MUL NOT AND SWAP1 DUP4 PUSH20 0xFFFFFFFFFFFFFFFFFFFFFFFFFFFFFFFFFFFFFFFF AND MUL OR SWAP1 SSTORE POP POP PUSH2 0xFF JUMP JUMPDEST PUSH0 DUP1 REVERT JUMPDEST PUSH0 PUSH20 0xFFFFFFFFFFFFFFFFFFFFFFFFFFFFFFFFFFFFFFFF DUP3 AND SWAP1 POP SWAP2 SWAP1 POP JUMP JUMPDEST PUSH0 PUSH2 0xA3 DUP3 PUSH2 0x7A JUMP JUMPDEST SWAP1 POP SWAP2 SWAP1 POP JUMP JUMPDEST PUSH2 0xB3 DUP2 PUSH2 0x99 JUMP JUMPDEST DUP2 EQ PUSH2 0xBD JUMPI PUSH0 DUP1 REVERT JUMPDEST POP JUMP JUMPDEST PUSH0 DUP2 MLOAD SWAP1 POP PUSH2 0xCE DUP2 PUSH2 0xAA JUMP JUMPDEST SWAP3 SWAP2 POP POP JUMP JUMPDEST PUSH0 PUSH1 0x20 DUP3 DUP5 SUB SLT ISZERO PUSH2 0xE9 JUMPI PUSH2 0xE8 PUSH2 0x76 JUMP JUMPDEST JUMPDEST PUSH0 PUSH2 0xF6 DUP5 DUP3 DUP6 ADD PUSH2 0xC0 JUMP JUMPDEST SWAP2 POP POP SWAP3 SWAP2 POP POP JUMP JUMPDEST PUSH2 0x2D4 DUP1 PUSH2 0x10C PUSH0 CODECOPY PUSH0 RETURN INVALID PUSH1 0x80 PUSH1 0x40 MSTORE PUSH1 0x4 CALLDATASIZE LT PUSH2 0x33 JUMPI PUSH0 CALLDATALOAD PUSH1 0xE0 SHR DUP1 PUSH4 0xE29DF22 EQ PUSH2 0x37 JUMPI DUP1 PUSH4 0x66D003AC EQ PUSH2 0x41 JUMPI DUP1 PUSH4 0xAC570411 EQ PUSH2 0x6B JUMPI JUMPDEST PUSH0 DUP1 REVERT JUMPDEST PUSH2 0x3F PUSH2 0x95 JUMP JUMPDEST STOP JUMPDEST CALLVALUE DUP1 ISZERO PUSH2 0x4C JUMPI PUSH0 DUP1 REVERT JUMPDEST POP PUSH2 0x55 PUSH2 0x13C JUMP JUMPDEST PUSH1 0x40 MLOAD PUSH2 0x62 SWAP2 SWAP1 PUSH2 0x1DC JUMP JUMPDEST PUSH1 0x40 MLOAD DUP1 SWAP2 SUB SWAP1 RETURN JUMPDEST CALLVALUE DUP1 ISZERO PUSH2 0x76 JUMPI PUSH0 DUP1 REVERT JUMPDEST POP PUSH2 0x7F PUSH2 0x15F JUMP JUMPDEST PUSH1 0x40 MLOAD PUSH2 0x8C SWAP2 SWAP1 PUSH2 0x20D JUMP JUMPDEST PUSH1 0x40 MLOAD DUP1 SWAP2 SUB SWAP1 RETURN JUMPDEST PUSH0 CALLVALUE GT PUSH2 0xD7 JUMPI PUSH1 0x40 MLOAD PUSH32 0x8C379A000000000000000000000000000000000000000000000000000000000 DUP2 MSTORE PUSH1 0x4 ADD PUSH2 0xCE SWAP1 PUSH2 0x280 JUMP JUMPDEST PUSH1 0x40 MLOAD DUP1 SWAP2 SUB SWAP1 REVERT JUMPDEST PUSH0 DUP1 SLOAD SWAP1 PUSH2 0x100 EXP SWAP1 DIV PUSH20 0xFFFFFFFFFFFFFFFFFFFFFFFFFFFFFFFFFFFFFFFF AND PUSH20 0xFFFFFFFFFFFFFFFFFFFFFFFFFFFFFFFFFFFFFFFF AND PUSH2 0x8FC CALLVALUE SWAP1 DUP2 ISZERO MUL SWAP1 PUSH1 0x40 MLOAD PUSH0 PUSH1 0x40 MLOAD DUP1 DUP4 SUB DUP2 DUP6 DUP9 DUP9 CALL SWAP4 POP POP POP POP ISZERO DUP1 ISZERO PUSH2 0x139 JUMPI RETURNDATASIZE PUSH0 DUP1 RETURNDATACOPY RETURNDATASIZE PUSH0 REVERT JUMPDEST POP JUMP JUMPDEST PUSH0 DUP1 SLOAD SWAP1 PUSH2 0x100 EXP SWAP1 DIV PUSH20 0xFFFFFFFFFFFFFFFFFFFFFFFFFFFFFFFFFFFFFFFF AND DUP2 JUMP JUMPDEST PUSH0 DUP1 PUSH0 SWAP1 SLOAD SWAP1 PUSH2 0x100 EXP SWAP1 DIV PUSH20 0xFFFFFFFFFFFFFFFFFFFFFFFFFFFFFFFFFFFFFFFF AND PUSH20 0xFFFFFFFFFFFFFFFFFFFFFFFFFFFFFFFFFFFFFFFF AND BALANCE SWAP1 POP SWAP1 JUMP JUMPDEST PUSH0 PUSH20 0xFFFFFFFFFFFFFFFFFFFFFFFFFFFFFFFFFFFFFFFF DUP3 AND SWAP1 POP SWAP2 SWAP1 POP JUMP JUMPDEST PUSH0 PUSH2 0x1C6 DUP3 PUSH2 0x19D JUMP JUMPDEST SWAP1 POP SWAP2 SWAP1 POP JUMP JUMPDEST PUSH2 0x1D6 DUP2 PUSH2 0x1BC JUMP JUMPDEST DUP3 MSTORE POP POP JUMP JUMPDEST PUSH0 PUSH1 0x20 DUP3 ADD SWAP1 POP PUSH2 0x1EF PUSH0 DUP4 ADD DUP5 PUSH2 0x1CD JUMP JUMPDEST SWAP3 SWAP2 POP POP JUMP JUMPDEST PUSH0 DUP2 SWAP1 POP SWAP2 SWAP1 POP JUMP JUMPDEST PUSH2 0x207 DUP2 PUSH2 0x1F5 JUMP JUMPDEST DUP3 MSTORE POP POP JUMP JUMPDEST PUSH0 PUSH1 0x20 DUP3 ADD SWAP1 POP PUSH2 0x220 PUSH0 DUP4 ADD DUP5 PUSH2 0x1FE JUMP JUMPDEST SWAP3 SWAP2 POP POP JUMP JUMPDEST PUSH0 DUP3 DUP3 MSTORE PUSH1 0x20 DUP3 ADD SWAP1 POP SWAP3 SWAP2 POP POP JUMP JUMPDEST PUSH32 0x53656E6420736F6D652065746865720000000000000000000000000000000000 PUSH0 DUP3 ADD MSTORE POP JUMP JUMPDEST PUSH0 PUSH2 0x26A PUSH1 0xF DUP4 PUSH2 0x226 JUMP JUMPDEST SWAP2 POP PUSH2 0x275 DUP3 PUSH2 0x236 JUMP JUMPDEST PUSH1 0x20 DUP3 ADD SWAP1 POP SWAP2 SWAP1 POP JUMP JUMPDEST PUSH0 PUSH1 0x20 DUP3 ADD SWAP1 POP DUP2 DUP2 SUB PUSH0 DUP4 ADD MSTORE PUSH2 0x297 DUP2 PUSH2 0x25E JUMP JUMPDEST SWAP1 POP SWAP2 SWAP1 POP JUMP INVALID LOG2 PUSH5 0x6970667358 0x22 SLT KECCAK256 SMOD LOG3 DUP9 DUP10 EXTCODESIZE 0xD5 0xF PUSH1 0xCD 0xAC CHAINID 0xB3 0xF7 0xF7 RETURNDATACOPY DUP3 CALLER 0x4F 0xA7 MSIZE PUSH5 0xF009488158 EXTCODESIZE DUP4 KECCAK256 GT SWAP7 MCOPY PUSH5 0x736F6C6343 STOP ADDMOD BYTE STOP CALLER "
				},
				"gasEstimates": {
					"creation": {
						"codeDepositCost": "144800",
						"executionCost": "infinite",
						"totalCost": "infinite"
					},
					"external": {
						"getRecipientBalance()": "5095",
						"recipient()": "2505",
						"sendEther()": "infinite"
					}
				},
				"methodIdentifiers": {
					"getRecipientBalance()": "ac570411",
					"recipient()": "66d003ac",
					"sendEther()": "0e29df22"
				}
			},
			"storageLayout": {
				"storage": [
					{
						"astId": 3,
						"contract": "solidity/3.1.2/PayableExample.sol:PayableExample",
						"label": "recipient",
						"offset": 0,
						"slot": "0",
						"type": "t_address_payable"
					}
				],
				"types": {
					"t_address_payable": {
						"encoding": "inplace",
						"label": "address payable",
						"numberOfBytes": "20"
					}
				}
			},
			"userdoc": {
				"kind": "user",
				"methods": {},
				"version": 1
			}
		}
	}
}