{
	"data": {
		"bytecode": {
			"linkReferences": {},
			"object": "6080604052348015600e575f80fd5b506104488061001c5f395ff3fe608060405234801561000f575f80fd5b5060043610610034575f3560e01c8063a9059cbb14610038578063e3d670d714610054575b5f80fd5b610052600480360381019061004d9190610250565b610084565b005b61006e6004803603810190610069919061028e565b6101ab565b60405161007b91906102c8565b60405180910390f35b805f803373ffffffffffffffffffffffffffffffffffffffff1673ffffffffffffffffffffffffffffffffffffffff1681526020019081526020015f20541015610103576040517f08c379a00000000000000000000000000000000000000000000000000000000081526004016100fa90610361565b60405180910390fd5b805f803373ffffffffffffffffffffffffffffffffffffffff1673ffffffffffffffffffffffffffffffffffffffff1681526020019081526020015f205f82825461014e91906103ac565b92505081905550805f808473ffffffffffffffffffffffffffffffffffffffff1673ffffffffffffffffffffffffffffffffffffffff1681526020019081526020015f205f8282546101a091906103df565b925050819055505050565b5f602052805f5260405f205f915090505481565b5f80fd5b5f73ffffffffffffffffffffffffffffffffffffffff82169050919050565b5f6101ec826101c3565b9050919050565b6101fc816101e2565b8114610206575f80fd5b50565b5f81359050610217816101f3565b92915050565b5f819050919050565b61022f8161021d565b8114610239575f80fd5b50565b5f8135905061024a81610226565b92915050565b5f8060408385031215610266576102656101bf565b5b5f61027385828601610209565b92505060206102848582860161023c565b9150509250929050565b5f602082840312156102a3576102a26101bf565b5b5f6102b084828501610209565b91505092915050565b6102c28161021d565b82525050565b5f6020820190506102db5f8301846102b9565b92915050565b5f82825260208201905092915050565b7f496e73756666696369656e742062616c616e636520666f72207472616e7366655f8201527f7200000000000000000000000000000000000000000000000000000000000000602082015250565b5f61034b6021836102e1565b9150610356826102f1565b604082019050919050565b5f6020820190508181035f8301526103788161033f565b9050919050565b7f4e487b71000000000000000000000000000000000000000000000000000000005f52601160045260245ffd5b5f6103b68261021d565b91506103c18361021d565b92508282039050818111156103d9576103d861037f565b5b92915050565b5f6103e98261021d565b91506103f48361021d565b925082820190508082111561040c5761040b61037f565b5b9291505056fea2646970667358221220ea516337e06d96d053971bf7649e18271188be6fab562df347004ec32b0b117d64736f6c634300081a0033",
			"opcodes": "PUSH1 0x80 PUSH1 0x40 MSTORE CALLVALUE DUP1 ISZERO PUSH1 0xE JUMPI PUSH0 DUP1 REVERT JUMPDEST POP PUSH2 0x448 DUP1 PUSH2 0x1C PUSH0 CODECOPY PUSH0 RETURN INVALID PUSH1 0x80 PUSH1 0x40 MSTORE CALLVALUE DUP1 ISZERO PUSH2 0xF JUMPI PUSH0 DUP1 REVERT JUMPDEST POP PUSH1 0x4 CALLDATASIZE LT PUSH2 0x34 JUMPI PUSH0 CALLDATALOAD PUSH1 0xE0 SHR DUP1 PUSH4 0xA9059CBB EQ PUSH2 0x38 JUMPI DUP1 PUSH4 0xE3D670D7 EQ PUSH2 0x54 JUMPI JUMPDEST PUSH0 DUP1 REVERT JUMPDEST PUSH2 0x52 PUSH1 0x4 DUP1 CALLDATASIZE SUB DUP2 ADD SWAP1 PUSH2 0x4D SWAP2 SWAP1 PUSH2 0x250 JUMP JUMPDEST PUSH2 0x84 JUMP JUMPDEST STOP JUMPDEST PUSH2 0x6E PUSH1 0x4 DUP1 CALLDATASIZE SUB DUP2 ADD SWAP1 PUSH2 0x69 SWAP2 SWAP1 PUSH2 0x28E JUMP JUMPDEST PUSH2 0x1AB JUMP JUMPDEST PUSH1 0x40 MLOAD PUSH2 0x7B SWAP2 SWAP1 PUSH2 0x2C8 JUMP JUMPDEST PUSH1 0x40 MLOAD DUP1 SWAP2 SUB SWAP1 RETURN JUMPDEST DUP1 PUSH0 DUP1 CALLER PUSH20 0xFFFFFFFFFFFFFFFFFFFFFFFFFFFFFFFFFFFFFFFF AND PUSH20 0xFFFFFFFFFFFFFFFFFFFFFFFFFFFFFFFFFFFFFFFF AND DUP2 MSTORE PUSH1 0x20 ADD SWAP1 DUP2 MSTORE PUSH1 0x20 ADD PUSH0 KECCAK256 SLOAD LT ISZERO PUSH2 0x103 JUMPI PUSH1 0x40 MLOAD PUSH32 0x8C379A000000000000000000000000000000000000000000000000000000000 DUP2 MSTORE PUSH1 0x4 ADD PUSH2 0xFA SWAP1 PUSH2 0x361 JUMP JUMPDEST PUSH1 0x40 MLOAD DUP1 SWAP2 SUB SWAP1 REVERT JUMPDEST DUP1 PUSH0 DUP1 CALLER PUSH20 0xFFFFFFFFFFFFFFFFFFFFFFFFFFFFFFFFFFFFFFFF AND PUSH20 0xFFFFFFFFFFFFFFFFFFFFFFFFFFFFFFFFFFFFFFFF AND DUP2 MSTORE PUSH1 0x20 ADD SWAP1 DUP2 MSTORE PUSH1 0x20 ADD PUSH0 KECCAK256 PUSH0 DUP3 DUP3 SLOAD PUSH2 0x14E SWAP2 SWAP1 PUSH2 0x3AC JUMP JUMPDEST SWAP3 POP POP DUP2 SWAP1 SSTORE POP DUP1 PUSH0 DUP1 DUP5 PUSH20 0xFFFFFFFFFFFFFFFFFFFFFFFFFFFFFFFFFFFFFFFF AND PUSH20 0xFFFFFFFFFFFFFFFFFFFFFFFFFFFFFFFFFFFFFFFF AND DUP2 MSTORE PUSH1 0x20 ADD SWAP1 DUP2 MSTORE PUSH1 0x20 ADD PUSH0 KECCAK256 PUSH0 DUP3 DUP3 SLOAD PUSH2 0x1A0 SWAP2 SWAP1 PUSH2 0x3DF JUMP JUMPDEST SWAP3 POP POP DUP2 SWAP1 SSTORE POP POP POP JUMP JUMPDEST PUSH0 PUSH1 0x20 MSTORE DUP1 PUSH0 MSTORE PUSH1 0x40 PUSH0 KECCAK256 PUSH0 SWAP2 POP SWAP1 POP SLOAD DUP2 JUMP JUMPDEST PUSH0 DUP1 REVERT JUMPDEST PUSH0 PUSH20 0xFFFFFFFFFFFFFFFFFFFFFFFFFFFFFFFFFFFFFFFF DUP3 AND SWAP1 POP SWAP2 SWAP1 POP JUMP JUMPDEST PUSH0 PUSH2 0x1EC DUP3 PUSH2 0x1C3 JUMP JUMPDEST SWAP1 POP SWAP2 SWAP1 POP JUMP JUMPDEST PUSH2 0x1FC DUP2 PUSH2 0x1E2 JUMP JUMPDEST DUP2 EQ PUSH2 0x206 JUMPI PUSH0 DUP1 REVERT JUMPDEST POP JUMP JUMPDEST PUSH0 DUP2 CALLDATALOAD SWAP1 POP PUSH2 0x217 DUP2 PUSH2 0x1F3 JUMP JUMPDEST SWAP3 SWAP2 POP POP JUMP JUMPDEST PUSH0 DUP2 SWAP1 POP SWAP2 SWAP1 POP JUMP JUMPDEST PUSH2 0x22F DUP2 PUSH2 0x21D JUMP JUMPDEST DUP2 EQ PUSH2 0x239 JUMPI PUSH0 DUP1 REVERT JUMPDEST POP JUMP JUMPDEST PUSH0 DUP2 CALLDATALOAD SWAP1 POP PUSH2 0x24A DUP2 PUSH2 0x226 JUMP JUMPDEST SWAP3 SWAP2 POP POP JUMP JUMPDEST PUSH0 DUP1 PUSH1 0x40 DUP4 DUP6 SUB SLT ISZERO PUSH2 0x266 JUMPI PUSH2 0x265 PUSH2 0x1BF JUMP JUMPDEST JUMPDEST PUSH0 PUSH2 0x273 DUP6 DUP3 DUP7 ADD PUSH2 0x209 JUMP JUMPDEST SWAP3 POP POP PUSH1 0x20 PUSH2 0x284 DUP6 DUP3 DUP7 ADD PUSH2 0x23C JUMP JUMPDEST SWAP2 POP POP SWAP3 POP SWAP3 SWAP1 POP JUMP JUMPDEST PUSH0 PUSH1 0x20 DUP3 DUP5 SUB SLT ISZERO PUSH2 0x2A3 JUMPI PUSH2 0x2A2 PUSH2 0x1BF JUMP JUMPDEST JUMPDEST PUSH0 PUSH2 0x2B0 DUP5 DUP3 DUP6 ADD PUSH2 0x209 JUMP JUMPDEST SWAP2 POP POP SWAP3 SWAP2 POP POP JUMP JUMPDEST PUSH2 0x2C2 DUP2 PUSH2 0x21D JUMP JUMPDEST DUP3 MSTORE POP POP JUMP JUMPDEST PUSH0 PUSH1 0x20 DUP3 ADD SWAP1 POP PUSH2 0x2DB PUSH0 DUP4 ADD DUP5 PUSH2 0x2B9 JUMP JUMPDEST SWAP3 SWAP2 POP POP JUMP JUMPDEST PUSH0 DUP3 DUP3 MSTORE PUSH1 0x20 DUP3 ADD SWAP1 POP SWAP3 SWAP2 POP POP JUMP JUMPDEST PUSH32 0x496E73756666696369656E742062616C616E636520666F72207472616E736665 PUSH0 DUP3 ADD MSTORE PUSH32 0x7200000000000000000000000000000000000000000000000000000000000000 PUSH1 0x20 DUP3 ADD MSTORE POP JUMP JUMPDEST PUSH0 PUSH2 0x34B PUSH1 0x21 DUP4 PUSH2 0x2E1 JUMP JUMPDEST SWAP2 POP PUSH2 0x356 DUP3 PUSH2 0x2F1 JUMP JUMPDEST PUSH1 0x40 DUP3 ADD SWAP1 POP SWAP2 SWAP1 POP JUMP JUMPDEST PUSH0 PUSH1 0x20 DUP3 ADD SWAP1 POP DUP2 DUP2 SUB PUSH0 DUP4 ADD MSTORE PUSH2 0x378 DUP2 PUSH2 0x33F JUMP JUMPDEST SWAP1 POP SWAP2 SWAP1 POP JUMP JUMPDEST PUSH32 0x4E487B7100000000000000000000000000000000000000000000000000000000 PUSH0 MSTORE PUSH1 0x11 PUSH1 0x4 MSTORE PUSH1 0x24 PUSH0 REVERT JUMPDEST PUSH0 PUSH2 0x3B6 DUP3 PUSH2 0x21D JUMP JUMPDEST SWAP2 POP PUSH2 0x3C1 DUP4 PUSH2 0x21D JUMP JUMPDEST SWAP3 POP DUP3 DUP3 SUB SWAP1 POP DUP2 DUP2 GT ISZERO PUSH2 0x3D9 JUMPI PUSH2 0x3D8 PUSH2 0x37F JUMP JUMPDEST JUMPDEST SWAP3 SWAP2 POP POP JUMP JUMPDEST PUSH0 PUSH2 0x3E9 DUP3 PUSH2 0x21D JUMP JUMPDEST SWAP2 POP PUSH2 0x3F4 DUP4 PUSH2 0x21D JUMP JUMPDEST SWAP3 POP DUP3 DUP3 ADD SWAP1 POP DUP1 DUP3 GT ISZERO PUSH2 0x40C JUMPI PUSH2 0x40B PUSH2 0x37F JUMP JUMPDEST JUMPDEST SWAP3 SWAP2 POP POP JUMP INVALID LOG2 PUSH5 0x6970667358 0x22 SLT KECCAK256 0xEA MLOAD PUSH4 0x37E06D96 0xD0 MSTORE8 SWAP8 SHL 0xF7 PUSH5 0x9E18271188 0xBE PUSH16 0xAB562DF347004EC32B0B117D64736F6C PUSH4 0x4300081A STOP CALLER "
		},
		"gasEstimates": {
			"creation": {
				"codeDepositCost": "219200",
				"executionCost": "261",
				"totalCost": "219461"
			},
			"external": {
				"balance(address)": "2801",
				"transfer(address,uint256)": "infinite"
			}
		},
		"methodIdentifiers": {
			"balance(address)": "e3d670d7",
			"transfer(address,uint256)": "a9059cbb"
		}
	},
	"abi": [
		{
			"inputs": [
				{
					"internalType": "address",
					"name": "",
					"type": "address"
				}
			],
			"name": "balance",
			"outputs": [
				{
					"internalType": "uint256",
					"name": "",
					"type": "uint256"
				}
			],
			"stateMutability": "view",
			"type": "function"
		},
		{
			"inputs": [
				{
					"internalType": "address",
					"name": "to",
					"type": "address"
				},
				{
					"internalType": "uint256",
					"name": "amount",
					"type": "uint256"
				}
			],
			"name": "transfer",
			"outputs": [],
			"stateMutability": "nonpayable",
			"type": "function"
		}
	]
}