{
	"solidity/2.6/ExampleContract4.sol": {
		"ExampleContract4": {
			"abi": [
				{
					"inputs": [
						{
							"internalType": "string",
							"name": "_name",
							"type": "string"
						},
						{
							"internalType": "uint256",
							"name": "_age",
							"type": "uint256"
						},
						{
							"internalType": "address",
							"name": "_wallet",
							"type": "address"
						}
					],
					"name": "addPerson",
					"outputs": [],
					"stateMutability": "nonpayable",
					"type": "function"
				},
				{
					"inputs": [
						{
							"internalType": "uint256",
							"name": "_index",
							"type": "uint256"
						}
					],
					"name": "getPerson",
					"outputs": [
						{
							"internalType": "string",
							"name": "",
							"type": "string"
						},
						{
							"internalType": "uint256",
							"name": "",
							"type": "uint256"
						},
						{
							"internalType": "address",
							"name": "",
							"type": "address"
						}
					],
					"stateMutability": "view",
					"type": "function"
				},
				{
					"inputs": [
						{
							"internalType": "uint256",
							"name": "",
							"type": "uint256"
						}
					],
					"name": "people",
					"outputs": [
						{
							"internalType": "string",
							"name": "name",
							"type": "string"
						},
						{
							"internalType": "uint256",
							"name": "age",
							"type": "uint256"
						},
						{
							"internalType": "address",
							"name": "wallet",
							"type": "address"
						}
					],
					"stateMutability": "view",
					"type": "function"
				}
			],
			"devdoc": {
				"kind": "dev",
				"methods": {},
				"version": 1
			},
			"evm": {
				"assembly": "    /* \"solidity/2.6/ExampleContract4.sol\":60:564  contract ExampleContract4 {... */\n  mstore(0x40, 0x80)\n  callvalue\n  dup1\n  iszero\n  tag_1\n  jumpi\n  0x00\n  dup1\n  revert\ntag_1:\n  pop\n  dataSize(sub_0)\n  dup1\n  dataOffset(sub_0)\n  0x00\n  codecopy\n  0x00\n  return\nstop\n\nsub_0: assembly {\n        /* \"solidity/2.6/ExampleContract4.sol\":60:564  contract ExampleContract4 {... */\n      mstore(0x40, 0x80)\n      callvalue\n      dup1\n      iszero\n      tag_1\n      jumpi\n      0x00\n      dup1\n      revert\n    tag_1:\n      pop\n      jumpi(tag_2, lt(calldatasize, 0x04))\n      shr(0xe0, calldataload(0x00))\n      dup1\n      0x246982c4\n      eq\n      tag_3\n      jumpi\n      dup1\n      0x9e7a13ad\n      eq\n      tag_4\n      jumpi\n      dup1\n      0xe11641cf\n      eq\n      tag_5\n      jumpi\n    tag_2:\n      0x00\n      dup1\n      revert\n        /* \"solidity/2.6/ExampleContract4.sol\":363:561  function getPerson(uint _index) public view returns (string memory, uint, address) {... */\n    tag_3:\n      tag_6\n      0x04\n      dup1\n      calldatasize\n      sub\n      dup2\n      add\n      swap1\n      tag_7\n      swap2\n      swap1\n      tag_8\n      jump\t// in\n    tag_7:\n      tag_9\n      jump\t// in\n    tag_6:\n      mload(0x40)\n      tag_10\n      swap4\n      swap3\n      swap2\n      swap1\n      tag_11\n      jump\t// in\n    tag_10:\n      mload(0x40)\n      dup1\n      swap2\n      sub\n      swap1\n      return\n        /* \"solidity/2.6/ExampleContract4.sol\":189:211  Person[] public people */\n    tag_4:\n      tag_12\n      0x04\n      dup1\n      calldatasize\n      sub\n      dup2\n      add\n      swap1\n      tag_13\n      swap2\n      swap1\n      tag_8\n      jump\t// in\n    tag_13:\n      tag_14\n      jump\t// in\n    tag_12:\n      mload(0x40)\n      tag_15\n      swap4\n      swap3\n      swap2\n      swap1\n      tag_11\n      jump\t// in\n    tag_15:\n      mload(0x40)\n      dup1\n      swap2\n      sub\n      swap1\n      return\n        /* \"solidity/2.6/ExampleContract4.sol\":220:355  function addPerson(string memory _name, uint _age, address _wallet) public {... */\n    tag_5:\n      tag_16\n      0x04\n      dup1\n      calldatasize\n      sub\n      dup2\n      add\n      swap1\n      tag_17\n      swap2\n      swap1\n      tag_18\n      jump\t// in\n    tag_17:\n      tag_19\n      jump\t// in\n    tag_16:\n      stop\n        /* \"solidity/2.6/ExampleContract4.sol\":363:561  function getPerson(uint _index) public view returns (string memory, uint, address) {... */\n    tag_9:\n        /* \"solidity/2.6/ExampleContract4.sol\":416:429  string memory */\n      0x60\n        /* \"solidity/2.6/ExampleContract4.sol\":431:435  uint */\n      0x00\n        /* \"solidity/2.6/ExampleContract4.sol\":437:444  address */\n      dup1\n        /* \"solidity/2.6/ExampleContract4.sol\":457:478  Person storage person */\n      0x00\n        /* \"solidity/2.6/ExampleContract4.sol\":481:487  people */\n      dup1\n        /* \"solidity/2.6/ExampleContract4.sol\":488:494  _index */\n      dup6\n        /* \"solidity/2.6/ExampleContract4.sol\":481:495  people[_index] */\n      dup2\n      sload\n      dup2\n      lt\n      tag_21\n      jumpi\n      tag_22\n      tag_23\n      jump\t// in\n    tag_22:\n    tag_21:\n      swap1\n      0x00\n      mstore\n      keccak256(0x00, 0x20)\n      swap1\n      0x03\n      mul\n      add\n        /* \"solidity/2.6/ExampleContract4.sol\":457:495  Person storage person = people[_index] */\n      swap1\n      pop\n        /* \"solidity/2.6/ExampleContract4.sol\":514:520  person */\n      dup1\n        /* \"solidity/2.6/ExampleContract4.sol\":514:525  person.name */\n      0x00\n      add\n        /* \"solidity/2.6/ExampleContract4.sol\":527:533  person */\n      dup2\n        /* \"solidity/2.6/ExampleContract4.sol\":527:537  person.age */\n      0x01\n      add\n      sload\n        /* \"solidity/2.6/ExampleContract4.sol\":539:545  person */\n      dup3\n        /* \"solidity/2.6/ExampleContract4.sol\":539:552  person.wallet */\n      0x02\n      add\n      0x00\n      swap1\n      sload\n      swap1\n      0x0100\n      exp\n      swap1\n      div\n      0xffffffffffffffffffffffffffffffffffffffff\n      and\n        /* \"solidity/2.6/ExampleContract4.sol\":506:553  return (person.name, person.age, person.wallet) */\n      dup3\n      dup1\n      sload\n      tag_25\n      swap1\n      tag_26\n      jump\t// in\n    tag_25:\n      dup1\n      0x1f\n      add\n      0x20\n      dup1\n      swap2\n      div\n      mul\n      0x20\n      add\n      mload(0x40)\n      swap1\n      dup2\n      add\n      0x40\n      mstore\n      dup1\n      swap3\n      swap2\n      swap1\n      dup2\n      dup2\n      mstore\n      0x20\n      add\n      dup3\n      dup1\n      sload\n      tag_27\n      swap1\n      tag_26\n      jump\t// in\n    tag_27:\n      dup1\n      iszero\n      tag_28\n      jumpi\n      dup1\n      0x1f\n      lt\n      tag_29\n      jumpi\n      0x0100\n      dup1\n      dup4\n      sload\n      div\n      mul\n      dup4\n      mstore\n      swap2\n      0x20\n      add\n      swap2\n      jump(tag_28)\n    tag_29:\n      dup3\n      add\n      swap2\n      swap1\n      0x00\n      mstore\n      keccak256(0x00, 0x20)\n      swap1\n    tag_30:\n      dup2\n      sload\n      dup2\n      mstore\n      swap1\n      0x01\n      add\n      swap1\n      0x20\n      add\n      dup1\n      dup4\n      gt\n      tag_30\n      jumpi\n      dup3\n      swap1\n      sub\n      0x1f\n      and\n      dup3\n      add\n      swap2\n    tag_28:\n      pop\n      pop\n      pop\n      pop\n      pop\n      swap3\n      pop\n      swap4\n      pop\n      swap4\n      pop\n      swap4\n      pop\n      pop\n        /* \"solidity/2.6/ExampleContract4.sol\":363:561  function getPerson(uint _index) public view returns (string memory, uint, address) {... */\n      swap2\n      swap4\n      swap1\n      swap3\n      pop\n      jump\t// out\n        /* \"solidity/2.6/ExampleContract4.sol\":189:211  Person[] public people */\n    tag_14:\n      0x00\n      dup2\n      dup2\n      sload\n      dup2\n      lt\n      tag_31\n      jumpi\n      0x00\n      dup1\n      revert\n    tag_31:\n      swap1\n      0x00\n      mstore\n      keccak256(0x00, 0x20)\n      swap1\n      0x03\n      mul\n      add\n      0x00\n      swap2\n      pop\n      swap1\n      pop\n      dup1\n      0x00\n      add\n      dup1\n      sload\n      tag_33\n      swap1\n      tag_26\n      jump\t// in\n    tag_33:\n      dup1\n      0x1f\n      add\n      0x20\n      dup1\n      swap2\n      div\n      mul\n      0x20\n      add\n      mload(0x40)\n      swap1\n      dup2\n      add\n      0x40\n      mstore\n      dup1\n      swap3\n      swap2\n      swap1\n      dup2\n      dup2\n      mstore\n      0x20\n      add\n      dup3\n      dup1\n      sload\n      tag_34\n      swap1\n      tag_26\n      jump\t// in\n    tag_34:\n      dup1\n      iszero\n      tag_35\n      jumpi\n      dup1\n      0x1f\n      lt\n      tag_36\n      jumpi\n      0x0100\n      dup1\n      dup4\n      sload\n      div\n      mul\n      dup4\n      mstore\n      swap2\n      0x20\n      add\n      swap2\n      jump(tag_35)\n    tag_36:\n      dup3\n      add\n      swap2\n      swap1\n      0x00\n      mstore\n      keccak256(0x00, 0x20)\n      swap1\n    tag_37:\n      dup2\n      sload\n      dup2\n      mstore\n      swap1\n      0x01\n      add\n      swap1\n      0x20\n      add\n      dup1\n      dup4\n      gt\n      tag_37\n      jumpi\n      dup3\n      swap1\n      sub\n      0x1f\n      and\n      dup3\n      add\n      swap2\n    tag_35:\n      pop\n      pop\n      pop\n      pop\n      pop\n      swap1\n      dup1\n      0x01\n      add\n      sload\n      swap1\n      dup1\n      0x02\n      add\n      0x00\n      swap1\n      sload\n      swap1\n      0x0100\n      exp\n      swap1\n      div\n      0xffffffffffffffffffffffffffffffffffffffff\n      and\n      swap1\n      pop\n      dup4\n      jump\t// out\n        /* \"solidity/2.6/ExampleContract4.sol\":220:355  function addPerson(string memory _name, uint _age, address _wallet) public {... */\n    tag_19:\n        /* \"solidity/2.6/ExampleContract4.sol\":306:312  people */\n      0x00\n        /* \"solidity/2.6/ExampleContract4.sol\":318:346  Person(_name, _age, _wallet) */\n      mload(0x40)\n      dup1\n      0x60\n      add\n      0x40\n      mstore\n      dup1\n        /* \"solidity/2.6/ExampleContract4.sol\":325:330  _name */\n      dup6\n        /* \"solidity/2.6/ExampleContract4.sol\":318:346  Person(_name, _age, _wallet) */\n      dup2\n      mstore\n      0x20\n      add\n        /* \"solidity/2.6/ExampleContract4.sol\":332:336  _age */\n      dup5\n        /* \"solidity/2.6/ExampleContract4.sol\":318:346  Person(_name, _age, _wallet) */\n      dup2\n      mstore\n      0x20\n      add\n        /* \"solidity/2.6/ExampleContract4.sol\":338:345  _wallet */\n      dup4\n        /* \"solidity/2.6/ExampleContract4.sol\":318:346  Person(_name, _age, _wallet) */\n      0xffffffffffffffffffffffffffffffffffffffff\n      and\n      dup2\n      mstore\n      pop\n        /* \"solidity/2.6/ExampleContract4.sol\":306:347  people.push(Person(_name, _age, _wallet)) */\n      swap1\n      dup1\n      0x01\n      dup2\n      sload\n      add\n      dup1\n      dup3\n      sstore\n      dup1\n      swap2\n      pop\n      pop\n      0x01\n      swap1\n      sub\n      swap1\n      0x00\n      mstore\n      keccak256(0x00, 0x20)\n      swap1\n      0x03\n      mul\n      add\n      0x00\n      swap1\n      swap2\n      swap1\n      swap2\n      swap1\n      swap2\n      pop\n      0x00\n      dup3\n      add\n      mload\n      dup2\n      0x00\n      add\n      swap1\n      dup2\n      tag_40\n      swap2\n      swap1\n      tag_41\n      jump\t// in\n    tag_40:\n      pop\n      0x20\n      dup3\n      add\n      mload\n      dup2\n      0x01\n      add\n      sstore\n      0x40\n      dup3\n      add\n      mload\n      dup2\n      0x02\n      add\n      exp(0x0100, 0x00)\n      dup2\n      sload\n      dup2\n      0xffffffffffffffffffffffffffffffffffffffff\n      mul\n      not\n      and\n      swap1\n      dup4\n      0xffffffffffffffffffffffffffffffffffffffff\n      and\n      mul\n      or\n      swap1\n      sstore\n      pop\n      pop\n      pop\n        /* \"solidity/2.6/ExampleContract4.sol\":220:355  function addPerson(string memory _name, uint _age, address _wallet) public {... */\n      pop\n      pop\n      pop\n      jump\t// out\n        /* \"#utility.yul\":7:82   */\n    tag_42:\n        /* \"#utility.yul\":40:46   */\n      0x00\n        /* \"#utility.yul\":73:75   */\n      0x40\n        /* \"#utility.yul\":67:76   */\n      mload\n        /* \"#utility.yul\":57:76   */\n      swap1\n      pop\n        /* \"#utility.yul\":7:82   */\n      swap1\n      jump\t// out\n        /* \"#utility.yul\":88:205   */\n    tag_43:\n        /* \"#utility.yul\":197:198   */\n      0x00\n        /* \"#utility.yul\":194:195   */\n      dup1\n        /* \"#utility.yul\":187:199   */\n      revert\n        /* \"#utility.yul\":211:328   */\n    tag_44:\n        /* \"#utility.yul\":320:321   */\n      0x00\n        /* \"#utility.yul\":317:318   */\n      dup1\n        /* \"#utility.yul\":310:322   */\n      revert\n        /* \"#utility.yul\":334:411   */\n    tag_45:\n        /* \"#utility.yul\":371:378   */\n      0x00\n        /* \"#utility.yul\":400:405   */\n      dup2\n        /* \"#utility.yul\":389:405   */\n      swap1\n      pop\n        /* \"#utility.yul\":334:411   */\n      swap2\n      swap1\n      pop\n      jump\t// out\n        /* \"#utility.yul\":417:539   */\n    tag_46:\n        /* \"#utility.yul\":490:514   */\n      tag_90\n        /* \"#utility.yul\":508:513   */\n      dup2\n        /* \"#utility.yul\":490:514   */\n      tag_45\n      jump\t// in\n    tag_90:\n        /* \"#utility.yul\":483:488   */\n      dup2\n        /* \"#utility.yul\":480:515   */\n      eq\n        /* \"#utility.yul\":470:533   */\n      tag_91\n      jumpi\n        /* \"#utility.yul\":529:530   */\n      0x00\n        /* \"#utility.yul\":526:527   */\n      dup1\n        /* \"#utility.yul\":519:531   */\n      revert\n        /* \"#utility.yul\":470:533   */\n    tag_91:\n        /* \"#utility.yul\":417:539   */\n      pop\n      jump\t// out\n        /* \"#utility.yul\":545:684   */\n    tag_47:\n        /* \"#utility.yul\":591:596   */\n      0x00\n        /* \"#utility.yul\":629:635   */\n      dup2\n        /* \"#utility.yul\":616:636   */\n      calldataload\n        /* \"#utility.yul\":607:636   */\n      swap1\n      pop\n        /* \"#utility.yul\":645:678   */\n      tag_93\n        /* \"#utility.yul\":672:677   */\n      dup2\n        /* \"#utility.yul\":645:678   */\n      tag_46\n      jump\t// in\n    tag_93:\n        /* \"#utility.yul\":545:684   */\n      swap3\n      swap2\n      pop\n      pop\n      jump\t// out\n        /* \"#utility.yul\":690:1019   */\n    tag_8:\n        /* \"#utility.yul\":749:755   */\n      0x00\n        /* \"#utility.yul\":798:800   */\n      0x20\n        /* \"#utility.yul\":786:795   */\n      dup3\n        /* \"#utility.yul\":777:784   */\n      dup5\n        /* \"#utility.yul\":773:796   */\n      sub\n        /* \"#utility.yul\":769:801   */\n      slt\n        /* \"#utility.yul\":766:885   */\n      iszero\n      tag_95\n      jumpi\n        /* \"#utility.yul\":804:883   */\n      tag_96\n      tag_43\n      jump\t// in\n    tag_96:\n        /* \"#utility.yul\":766:885   */\n    tag_95:\n        /* \"#utility.yul\":924:925   */\n      0x00\n        /* \"#utility.yul\":949:1002   */\n      tag_97\n        /* \"#utility.yul\":994:1001   */\n      dup5\n        /* \"#utility.yul\":985:991   */\n      dup3\n        /* \"#utility.yul\":974:983   */\n      dup6\n        /* \"#utility.yul\":970:992   */\n      add\n        /* \"#utility.yul\":949:1002   */\n      tag_47\n      jump\t// in\n    tag_97:\n        /* \"#utility.yul\":939:1002   */\n      swap2\n      pop\n        /* \"#utility.yul\":895:1012   */\n      pop\n        /* \"#utility.yul\":690:1019   */\n      swap3\n      swap2\n      pop\n      pop\n      jump\t// out\n        /* \"#utility.yul\":1025:1124   */\n    tag_48:\n        /* \"#utility.yul\":1077:1083   */\n      0x00\n        /* \"#utility.yul\":1111:1116   */\n      dup2\n        /* \"#utility.yul\":1105:1117   */\n      mload\n        /* \"#utility.yul\":1095:1117   */\n      swap1\n      pop\n        /* \"#utility.yul\":1025:1124   */\n      swap2\n      swap1\n      pop\n      jump\t// out\n        /* \"#utility.yul\":1130:1299   */\n    tag_49:\n        /* \"#utility.yul\":1214:1225   */\n      0x00\n        /* \"#utility.yul\":1248:1254   */\n      dup3\n        /* \"#utility.yul\":1243:1246   */\n      dup3\n        /* \"#utility.yul\":1236:1255   */\n      mstore\n        /* \"#utility.yul\":1288:1292   */\n      0x20\n        /* \"#utility.yul\":1283:1286   */\n      dup3\n        /* \"#utility.yul\":1279:1293   */\n      add\n        /* \"#utility.yul\":1264:1293   */\n      swap1\n      pop\n        /* \"#utility.yul\":1130:1299   */\n      swap3\n      swap2\n      pop\n      pop\n      jump\t// out\n        /* \"#utility.yul\":1305:1444   */\n    tag_50:\n        /* \"#utility.yul\":1394:1400   */\n      dup3\n        /* \"#utility.yul\":1389:1392   */\n      dup2\n        /* \"#utility.yul\":1384:1387   */\n      dup4\n        /* \"#utility.yul\":1378:1401   */\n      mcopy\n        /* \"#utility.yul\":1435:1436   */\n      0x00\n        /* \"#utility.yul\":1426:1432   */\n      dup4\n        /* \"#utility.yul\":1421:1424   */\n      dup4\n        /* \"#utility.yul\":1417:1433   */\n      add\n        /* \"#utility.yul\":1410:1437   */\n      mstore\n        /* \"#utility.yul\":1305:1444   */\n      pop\n      pop\n      pop\n      jump\t// out\n        /* \"#utility.yul\":1450:1552   */\n    tag_51:\n        /* \"#utility.yul\":1491:1497   */\n      0x00\n        /* \"#utility.yul\":1542:1544   */\n      0x1f\n        /* \"#utility.yul\":1538:1545   */\n      not\n        /* \"#utility.yul\":1533:1535   */\n      0x1f\n        /* \"#utility.yul\":1526:1531   */\n      dup4\n        /* \"#utility.yul\":1522:1536   */\n      add\n        /* \"#utility.yul\":1518:1546   */\n      and\n        /* \"#utility.yul\":1508:1546   */\n      swap1\n      pop\n        /* \"#utility.yul\":1450:1552   */\n      swap2\n      swap1\n      pop\n      jump\t// out\n        /* \"#utility.yul\":1558:1935   */\n    tag_52:\n        /* \"#utility.yul\":1646:1649   */\n      0x00\n        /* \"#utility.yul\":1674:1713   */\n      tag_103\n        /* \"#utility.yul\":1707:1712   */\n      dup3\n        /* \"#utility.yul\":1674:1713   */\n      tag_48\n      jump\t// in\n    tag_103:\n        /* \"#utility.yul\":1729:1800   */\n      tag_104\n        /* \"#utility.yul\":1793:1799   */\n      dup2\n        /* \"#utility.yul\":1788:1791   */\n      dup6\n        /* \"#utility.yul\":1729:1800   */\n      tag_49\n      jump\t// in\n    tag_104:\n        /* \"#utility.yul\":1722:1800   */\n      swap4\n      pop\n        /* \"#utility.yul\":1809:1874   */\n      tag_105\n        /* \"#utility.yul\":1867:1873   */\n      dup2\n        /* \"#utility.yul\":1862:1865   */\n      dup6\n        /* \"#utility.yul\":1855:1859   */\n      0x20\n        /* \"#utility.yul\":1848:1853   */\n      dup7\n        /* \"#utility.yul\":1844:1860   */\n      add\n        /* \"#utility.yul\":1809:1874   */\n      tag_50\n      jump\t// in\n    tag_105:\n        /* \"#utility.yul\":1899:1928   */\n      tag_106\n        /* \"#utility.yul\":1921:1927   */\n      dup2\n        /* \"#utility.yul\":1899:1928   */\n      tag_51\n      jump\t// in\n    tag_106:\n        /* \"#utility.yul\":1894:1897   */\n      dup5\n        /* \"#utility.yul\":1890:1929   */\n      add\n        /* \"#utility.yul\":1883:1929   */\n      swap2\n      pop\n        /* \"#utility.yul\":1650:1935   */\n      pop\n        /* \"#utility.yul\":1558:1935   */\n      swap3\n      swap2\n      pop\n      pop\n      jump\t// out\n        /* \"#utility.yul\":1941:2059   */\n    tag_53:\n        /* \"#utility.yul\":2028:2052   */\n      tag_108\n        /* \"#utility.yul\":2046:2051   */\n      dup2\n        /* \"#utility.yul\":2028:2052   */\n      tag_45\n      jump\t// in\n    tag_108:\n        /* \"#utility.yul\":2023:2026   */\n      dup3\n        /* \"#utility.yul\":2016:2053   */\n      mstore\n        /* \"#utility.yul\":1941:2059   */\n      pop\n      pop\n      jump\t// out\n        /* \"#utility.yul\":2065:2191   */\n    tag_54:\n        /* \"#utility.yul\":2102:2109   */\n      0x00\n        /* \"#utility.yul\":2142:2184   */\n      0xffffffffffffffffffffffffffffffffffffffff\n        /* \"#utility.yul\":2135:2140   */\n      dup3\n        /* \"#utility.yul\":2131:2185   */\n      and\n        /* \"#utility.yul\":2120:2185   */\n      swap1\n      pop\n        /* \"#utility.yul\":2065:2191   */\n      swap2\n      swap1\n      pop\n      jump\t// out\n        /* \"#utility.yul\":2197:2293   */\n    tag_55:\n        /* \"#utility.yul\":2234:2241   */\n      0x00\n        /* \"#utility.yul\":2263:2287   */\n      tag_111\n        /* \"#utility.yul\":2281:2286   */\n      dup3\n        /* \"#utility.yul\":2263:2287   */\n      tag_54\n      jump\t// in\n    tag_111:\n        /* \"#utility.yul\":2252:2287   */\n      swap1\n      pop\n        /* \"#utility.yul\":2197:2293   */\n      swap2\n      swap1\n      pop\n      jump\t// out\n        /* \"#utility.yul\":2299:2417   */\n    tag_56:\n        /* \"#utility.yul\":2386:2410   */\n      tag_113\n        /* \"#utility.yul\":2404:2409   */\n      dup2\n        /* \"#utility.yul\":2386:2410   */\n      tag_55\n      jump\t// in\n    tag_113:\n        /* \"#utility.yul\":2381:2384   */\n      dup3\n        /* \"#utility.yul\":2374:2411   */\n      mstore\n        /* \"#utility.yul\":2299:2417   */\n      pop\n      pop\n      jump\t// out\n        /* \"#utility.yul\":2423:2956   */\n    tag_11:\n        /* \"#utility.yul\":2592:2596   */\n      0x00\n        /* \"#utility.yul\":2630:2632   */\n      0x60\n        /* \"#utility.yul\":2619:2628   */\n      dup3\n        /* \"#utility.yul\":2615:2633   */\n      add\n        /* \"#utility.yul\":2607:2633   */\n      swap1\n      pop\n        /* \"#utility.yul\":2679:2688   */\n      dup2\n        /* \"#utility.yul\":2673:2677   */\n      dup2\n        /* \"#utility.yul\":2669:2689   */\n      sub\n        /* \"#utility.yul\":2665:2666   */\n      0x00\n        /* \"#utility.yul\":2654:2663   */\n      dup4\n        /* \"#utility.yul\":2650:2667   */\n      add\n        /* \"#utility.yul\":2643:2690   */\n      mstore\n        /* \"#utility.yul\":2707:2785   */\n      tag_115\n        /* \"#utility.yul\":2780:2784   */\n      dup2\n        /* \"#utility.yul\":2771:2777   */\n      dup7\n        /* \"#utility.yul\":2707:2785   */\n      tag_52\n      jump\t// in\n    tag_115:\n        /* \"#utility.yul\":2699:2785   */\n      swap1\n      pop\n        /* \"#utility.yul\":2795:2867   */\n      tag_116\n        /* \"#utility.yul\":2863:2865   */\n      0x20\n        /* \"#utility.yul\":2852:2861   */\n      dup4\n        /* \"#utility.yul\":2848:2866   */\n      add\n        /* \"#utility.yul\":2839:2845   */\n      dup6\n        /* \"#utility.yul\":2795:2867   */\n      tag_53\n      jump\t// in\n    tag_116:\n        /* \"#utility.yul\":2877:2949   */\n      tag_117\n        /* \"#utility.yul\":2945:2947   */\n      0x40\n        /* \"#utility.yul\":2934:2943   */\n      dup4\n        /* \"#utility.yul\":2930:2948   */\n      add\n        /* \"#utility.yul\":2921:2927   */\n      dup5\n        /* \"#utility.yul\":2877:2949   */\n      tag_56\n      jump\t// in\n    tag_117:\n        /* \"#utility.yul\":2423:2956   */\n      swap5\n      swap4\n      pop\n      pop\n      pop\n      pop\n      jump\t// out\n        /* \"#utility.yul\":2962:3079   */\n    tag_57:\n        /* \"#utility.yul\":3071:3072   */\n      0x00\n        /* \"#utility.yul\":3068:3069   */\n      dup1\n        /* \"#utility.yul\":3061:3073   */\n      revert\n        /* \"#utility.yul\":3085:3202   */\n    tag_58:\n        /* \"#utility.yul\":3194:3195   */\n      0x00\n        /* \"#utility.yul\":3191:3192   */\n      dup1\n        /* \"#utility.yul\":3184:3196   */\n      revert\n        /* \"#utility.yul\":3208:3388   */\n    tag_59:\n        /* \"#utility.yul\":3256:3333   */\n      0x4e487b7100000000000000000000000000000000000000000000000000000000\n        /* \"#utility.yul\":3253:3254   */\n      0x00\n        /* \"#utility.yul\":3246:3334   */\n      mstore\n        /* \"#utility.yul\":3353:3357   */\n      0x41\n        /* \"#utility.yul\":3350:3351   */\n      0x04\n        /* \"#utility.yul\":3343:3358   */\n      mstore\n        /* \"#utility.yul\":3377:3381   */\n      0x24\n        /* \"#utility.yul\":3374:3375   */\n      0x00\n        /* \"#utility.yul\":3367:3382   */\n      revert\n        /* \"#utility.yul\":3394:3675   */\n    tag_60:\n        /* \"#utility.yul\":3477:3504   */\n      tag_122\n        /* \"#utility.yul\":3499:3503   */\n      dup3\n        /* \"#utility.yul\":3477:3504   */\n      tag_51\n      jump\t// in\n    tag_122:\n        /* \"#utility.yul\":3469:3475   */\n      dup2\n        /* \"#utility.yul\":3465:3505   */\n      add\n        /* \"#utility.yul\":3607:3613   */\n      dup2\n        /* \"#utility.yul\":3595:3605   */\n      dup2\n        /* \"#utility.yul\":3592:3614   */\n      lt\n        /* \"#utility.yul\":3571:3589   */\n      0xffffffffffffffff\n        /* \"#utility.yul\":3559:3569   */\n      dup3\n        /* \"#utility.yul\":3556:3590   */\n      gt\n        /* \"#utility.yul\":3553:3615   */\n      or\n        /* \"#utility.yul\":3550:3638   */\n      iszero\n      tag_123\n      jumpi\n        /* \"#utility.yul\":3618:3636   */\n      tag_124\n      tag_59\n      jump\t// in\n    tag_124:\n        /* \"#utility.yul\":3550:3638   */\n    tag_123:\n        /* \"#utility.yul\":3658:3668   */\n      dup1\n        /* \"#utility.yul\":3654:3656   */\n      0x40\n        /* \"#utility.yul\":3647:3669   */\n      mstore\n        /* \"#utility.yul\":3437:3675   */\n      pop\n        /* \"#utility.yul\":3394:3675   */\n      pop\n      pop\n      jump\t// out\n        /* \"#utility.yul\":3681:3810   */\n    tag_61:\n        /* \"#utility.yul\":3715:3721   */\n      0x00\n        /* \"#utility.yul\":3742:3762   */\n      tag_126\n      tag_42\n      jump\t// in\n    tag_126:\n        /* \"#utility.yul\":3732:3762   */\n      swap1\n      pop\n        /* \"#utility.yul\":3771:3804   */\n      tag_127\n        /* \"#utility.yul\":3799:3803   */\n      dup3\n        /* \"#utility.yul\":3791:3797   */\n      dup3\n        /* \"#utility.yul\":3771:3804   */\n      tag_60\n      jump\t// in\n    tag_127:\n        /* \"#utility.yul\":3681:3810   */\n      swap2\n      swap1\n      pop\n      jump\t// out\n        /* \"#utility.yul\":3816:4124   */\n    tag_62:\n        /* \"#utility.yul\":3878:3882   */\n      0x00\n        /* \"#utility.yul\":3968:3986   */\n      0xffffffffffffffff\n        /* \"#utility.yul\":3960:3966   */\n      dup3\n        /* \"#utility.yul\":3957:3987   */\n      gt\n        /* \"#utility.yul\":3954:4010   */\n      iszero\n      tag_129\n      jumpi\n        /* \"#utility.yul\":3990:4008   */\n      tag_130\n      tag_59\n      jump\t// in\n    tag_130:\n        /* \"#utility.yul\":3954:4010   */\n    tag_129:\n        /* \"#utility.yul\":4028:4057   */\n      tag_131\n        /* \"#utility.yul\":4050:4056   */\n      dup3\n        /* \"#utility.yul\":4028:4057   */\n      tag_51\n      jump\t// in\n    tag_131:\n        /* \"#utility.yul\":4020:4057   */\n      swap1\n      pop\n        /* \"#utility.yul\":4112:4116   */\n      0x20\n        /* \"#utility.yul\":4106:4110   */\n      dup2\n        /* \"#utility.yul\":4102:4117   */\n      add\n        /* \"#utility.yul\":4094:4117   */\n      swap1\n      pop\n        /* \"#utility.yul\":3816:4124   */\n      swap2\n      swap1\n      pop\n      jump\t// out\n        /* \"#utility.yul\":4130:4278   */\n    tag_63:\n        /* \"#utility.yul\":4228:4234   */\n      dup3\n        /* \"#utility.yul\":4223:4226   */\n      dup2\n        /* \"#utility.yul\":4218:4221   */\n      dup4\n        /* \"#utility.yul\":4205:4235   */\n      calldatacopy\n        /* \"#utility.yul\":4269:4270   */\n      0x00\n        /* \"#utility.yul\":4260:4266   */\n      dup4\n        /* \"#utility.yul\":4255:4258   */\n      dup4\n        /* \"#utility.yul\":4251:4267   */\n      add\n        /* \"#utility.yul\":4244:4271   */\n      mstore\n        /* \"#utility.yul\":4130:4278   */\n      pop\n      pop\n      pop\n      jump\t// out\n        /* \"#utility.yul\":4284:4709   */\n    tag_64:\n        /* \"#utility.yul\":4362:4367   */\n      0x00\n        /* \"#utility.yul\":4387:4453   */\n      tag_134\n        /* \"#utility.yul\":4403:4452   */\n      tag_135\n        /* \"#utility.yul\":4445:4451   */\n      dup5\n        /* \"#utility.yul\":4403:4452   */\n      tag_62\n      jump\t// in\n    tag_135:\n        /* \"#utility.yul\":4387:4453   */\n      tag_61\n      jump\t// in\n    tag_134:\n        /* \"#utility.yul\":4378:4453   */\n      swap1\n      pop\n        /* \"#utility.yul\":4476:4482   */\n      dup3\n        /* \"#utility.yul\":4469:4474   */\n      dup2\n        /* \"#utility.yul\":4462:4483   */\n      mstore\n        /* \"#utility.yul\":4514:4518   */\n      0x20\n        /* \"#utility.yul\":4507:4512   */\n      dup2\n        /* \"#utility.yul\":4503:4519   */\n      add\n        /* \"#utility.yul\":4552:4555   */\n      dup5\n        /* \"#utility.yul\":4543:4549   */\n      dup5\n        /* \"#utility.yul\":4538:4541   */\n      dup5\n        /* \"#utility.yul\":4534:4550   */\n      add\n        /* \"#utility.yul\":4531:4556   */\n      gt\n        /* \"#utility.yul\":4528:4640   */\n      iszero\n      tag_136\n      jumpi\n        /* \"#utility.yul\":4559:4638   */\n      tag_137\n      tag_58\n      jump\t// in\n    tag_137:\n        /* \"#utility.yul\":4528:4640   */\n    tag_136:\n        /* \"#utility.yul\":4649:4703   */\n      tag_138\n        /* \"#utility.yul\":4696:4702   */\n      dup5\n        /* \"#utility.yul\":4691:4694   */\n      dup3\n        /* \"#utility.yul\":4686:4689   */\n      dup6\n        /* \"#utility.yul\":4649:4703   */\n      tag_63\n      jump\t// in\n    tag_138:\n        /* \"#utility.yul\":4368:4709   */\n      pop\n        /* \"#utility.yul\":4284:4709   */\n      swap4\n      swap3\n      pop\n      pop\n      pop\n      jump\t// out\n        /* \"#utility.yul\":4729:5069   */\n    tag_65:\n        /* \"#utility.yul\":4785:4790   */\n      0x00\n        /* \"#utility.yul\":4834:4837   */\n      dup3\n        /* \"#utility.yul\":4827:4831   */\n      0x1f\n        /* \"#utility.yul\":4819:4825   */\n      dup4\n        /* \"#utility.yul\":4815:4832   */\n      add\n        /* \"#utility.yul\":4811:4838   */\n      slt\n        /* \"#utility.yul\":4801:4923   */\n      tag_140\n      jumpi\n        /* \"#utility.yul\":4842:4921   */\n      tag_141\n      tag_57\n      jump\t// in\n    tag_141:\n        /* \"#utility.yul\":4801:4923   */\n    tag_140:\n        /* \"#utility.yul\":4959:4965   */\n      dup2\n        /* \"#utility.yul\":4946:4966   */\n      calldataload\n        /* \"#utility.yul\":4984:5063   */\n      tag_142\n        /* \"#utility.yul\":5059:5062   */\n      dup5\n        /* \"#utility.yul\":5051:5057   */\n      dup3\n        /* \"#utility.yul\":5044:5048   */\n      0x20\n        /* \"#utility.yul\":5036:5042   */\n      dup7\n        /* \"#utility.yul\":5032:5049   */\n      add\n        /* \"#utility.yul\":4984:5063   */\n      tag_64\n      jump\t// in\n    tag_142:\n        /* \"#utility.yul\":4975:5063   */\n      swap2\n      pop\n        /* \"#utility.yul\":4791:5069   */\n      pop\n        /* \"#utility.yul\":4729:5069   */\n      swap3\n      swap2\n      pop\n      pop\n      jump\t// out\n        /* \"#utility.yul\":5075:5197   */\n    tag_66:\n        /* \"#utility.yul\":5148:5172   */\n      tag_144\n        /* \"#utility.yul\":5166:5171   */\n      dup2\n        /* \"#utility.yul\":5148:5172   */\n      tag_55\n      jump\t// in\n    tag_144:\n        /* \"#utility.yul\":5141:5146   */\n      dup2\n        /* \"#utility.yul\":5138:5173   */\n      eq\n        /* \"#utility.yul\":5128:5191   */\n      tag_145\n      jumpi\n        /* \"#utility.yul\":5187:5188   */\n      0x00\n        /* \"#utility.yul\":5184:5185   */\n      dup1\n        /* \"#utility.yul\":5177:5189   */\n      revert\n        /* \"#utility.yul\":5128:5191   */\n    tag_145:\n        /* \"#utility.yul\":5075:5197   */\n      pop\n      jump\t// out\n        /* \"#utility.yul\":5203:5342   */\n    tag_67:\n        /* \"#utility.yul\":5249:5254   */\n      0x00\n        /* \"#utility.yul\":5287:5293   */\n      dup2\n        /* \"#utility.yul\":5274:5294   */\n      calldataload\n        /* \"#utility.yul\":5265:5294   */\n      swap1\n      pop\n        /* \"#utility.yul\":5303:5336   */\n      tag_147\n        /* \"#utility.yul\":5330:5335   */\n      dup2\n        /* \"#utility.yul\":5303:5336   */\n      tag_66\n      jump\t// in\n    tag_147:\n        /* \"#utility.yul\":5203:5342   */\n      swap3\n      swap2\n      pop\n      pop\n      jump\t// out\n        /* \"#utility.yul\":5348:6147   */\n    tag_18:\n        /* \"#utility.yul\":5435:5441   */\n      0x00\n        /* \"#utility.yul\":5443:5449   */\n      dup1\n        /* \"#utility.yul\":5451:5457   */\n      0x00\n        /* \"#utility.yul\":5500:5502   */\n      0x60\n        /* \"#utility.yul\":5488:5497   */\n      dup5\n        /* \"#utility.yul\":5479:5486   */\n      dup7\n        /* \"#utility.yul\":5475:5498   */\n      sub\n        /* \"#utility.yul\":5471:5503   */\n      slt\n        /* \"#utility.yul\":5468:5587   */\n      iszero\n      tag_149\n      jumpi\n        /* \"#utility.yul\":5506:5585   */\n      tag_150\n      tag_43\n      jump\t// in\n    tag_150:\n        /* \"#utility.yul\":5468:5587   */\n    tag_149:\n        /* \"#utility.yul\":5654:5655   */\n      0x00\n        /* \"#utility.yul\":5643:5652   */\n      dup5\n        /* \"#utility.yul\":5639:5656   */\n      add\n        /* \"#utility.yul\":5626:5657   */\n      calldataload\n        /* \"#utility.yul\":5684:5702   */\n      0xffffffffffffffff\n        /* \"#utility.yul\":5676:5682   */\n      dup2\n        /* \"#utility.yul\":5673:5703   */\n      gt\n        /* \"#utility.yul\":5670:5787   */\n      iszero\n      tag_151\n      jumpi\n        /* \"#utility.yul\":5706:5785   */\n      tag_152\n      tag_44\n      jump\t// in\n    tag_152:\n        /* \"#utility.yul\":5670:5787   */\n    tag_151:\n        /* \"#utility.yul\":5811:5874   */\n      tag_153\n        /* \"#utility.yul\":5866:5873   */\n      dup7\n        /* \"#utility.yul\":5857:5863   */\n      dup3\n        /* \"#utility.yul\":5846:5855   */\n      dup8\n        /* \"#utility.yul\":5842:5864   */\n      add\n        /* \"#utility.yul\":5811:5874   */\n      tag_65\n      jump\t// in\n    tag_153:\n        /* \"#utility.yul\":5801:5874   */\n      swap4\n      pop\n        /* \"#utility.yul\":5597:5884   */\n      pop\n        /* \"#utility.yul\":5923:5925   */\n      0x20\n        /* \"#utility.yul\":5949:6002   */\n      tag_154\n        /* \"#utility.yul\":5994:6001   */\n      dup7\n        /* \"#utility.yul\":5985:5991   */\n      dup3\n        /* \"#utility.yul\":5974:5983   */\n      dup8\n        /* \"#utility.yul\":5970:5992   */\n      add\n        /* \"#utility.yul\":5949:6002   */\n      tag_47\n      jump\t// in\n    tag_154:\n        /* \"#utility.yul\":5939:6002   */\n      swap3\n      pop\n        /* \"#utility.yul\":5894:6012   */\n      pop\n        /* \"#utility.yul\":6051:6053   */\n      0x40\n        /* \"#utility.yul\":6077:6130   */\n      tag_155\n        /* \"#utility.yul\":6122:6129   */\n      dup7\n        /* \"#utility.yul\":6113:6119   */\n      dup3\n        /* \"#utility.yul\":6102:6111   */\n      dup8\n        /* \"#utility.yul\":6098:6120   */\n      add\n        /* \"#utility.yul\":6077:6130   */\n      tag_67\n      jump\t// in\n    tag_155:\n        /* \"#utility.yul\":6067:6130   */\n      swap2\n      pop\n        /* \"#utility.yul\":6022:6140   */\n      pop\n        /* \"#utility.yul\":5348:6147   */\n      swap3\n      pop\n      swap3\n      pop\n      swap3\n      jump\t// out\n        /* \"#utility.yul\":6153:6333   */\n    tag_23:\n        /* \"#utility.yul\":6201:6278   */\n      0x4e487b7100000000000000000000000000000000000000000000000000000000\n        /* \"#utility.yul\":6198:6199   */\n      0x00\n        /* \"#utility.yul\":6191:6279   */\n      mstore\n        /* \"#utility.yul\":6298:6302   */\n      0x32\n        /* \"#utility.yul\":6295:6296   */\n      0x04\n        /* \"#utility.yul\":6288:6303   */\n      mstore\n        /* \"#utility.yul\":6322:6326   */\n      0x24\n        /* \"#utility.yul\":6319:6320   */\n      0x00\n        /* \"#utility.yul\":6312:6327   */\n      revert\n        /* \"#utility.yul\":6339:6519   */\n    tag_68:\n        /* \"#utility.yul\":6387:6464   */\n      0x4e487b7100000000000000000000000000000000000000000000000000000000\n        /* \"#utility.yul\":6384:6385   */\n      0x00\n        /* \"#utility.yul\":6377:6465   */\n      mstore\n        /* \"#utility.yul\":6484:6488   */\n      0x22\n        /* \"#utility.yul\":6481:6482   */\n      0x04\n        /* \"#utility.yul\":6474:6489   */\n      mstore\n        /* \"#utility.yul\":6508:6512   */\n      0x24\n        /* \"#utility.yul\":6505:6506   */\n      0x00\n        /* \"#utility.yul\":6498:6513   */\n      revert\n        /* \"#utility.yul\":6525:6845   */\n    tag_26:\n        /* \"#utility.yul\":6569:6575   */\n      0x00\n        /* \"#utility.yul\":6606:6607   */\n      0x02\n        /* \"#utility.yul\":6600:6604   */\n      dup3\n        /* \"#utility.yul\":6596:6608   */\n      div\n        /* \"#utility.yul\":6586:6608   */\n      swap1\n      pop\n        /* \"#utility.yul\":6653:6654   */\n      0x01\n        /* \"#utility.yul\":6647:6651   */\n      dup3\n        /* \"#utility.yul\":6643:6655   */\n      and\n        /* \"#utility.yul\":6674:6692   */\n      dup1\n        /* \"#utility.yul\":6664:6745   */\n      tag_159\n      jumpi\n        /* \"#utility.yul\":6730:6734   */\n      0x7f\n        /* \"#utility.yul\":6722:6728   */\n      dup3\n        /* \"#utility.yul\":6718:6735   */\n      and\n        /* \"#utility.yul\":6708:6735   */\n      swap2\n      pop\n        /* \"#utility.yul\":6664:6745   */\n    tag_159:\n        /* \"#utility.yul\":6792:6794   */\n      0x20\n        /* \"#utility.yul\":6784:6790   */\n      dup3\n        /* \"#utility.yul\":6781:6795   */\n      lt\n        /* \"#utility.yul\":6761:6779   */\n      dup2\n        /* \"#utility.yul\":6758:6796   */\n      sub\n        /* \"#utility.yul\":6755:6839   */\n      tag_160\n      jumpi\n        /* \"#utility.yul\":6811:6829   */\n      tag_161\n      tag_68\n      jump\t// in\n    tag_161:\n        /* \"#utility.yul\":6755:6839   */\n    tag_160:\n        /* \"#utility.yul\":6576:6845   */\n      pop\n        /* \"#utility.yul\":6525:6845   */\n      swap2\n      swap1\n      pop\n      jump\t// out\n        /* \"#utility.yul\":6851:6992   */\n    tag_69:\n        /* \"#utility.yul\":6900:6904   */\n      0x00\n        /* \"#utility.yul\":6923:6926   */\n      dup2\n        /* \"#utility.yul\":6915:6926   */\n      swap1\n      pop\n        /* \"#utility.yul\":6946:6949   */\n      dup2\n        /* \"#utility.yul\":6943:6944   */\n      0x00\n        /* \"#utility.yul\":6936:6950   */\n      mstore\n        /* \"#utility.yul\":6980:6984   */\n      0x20\n        /* \"#utility.yul\":6977:6978   */\n      0x00\n        /* \"#utility.yul\":6967:6985   */\n      keccak256\n        /* \"#utility.yul\":6959:6985   */\n      swap1\n      pop\n        /* \"#utility.yul\":6851:6992   */\n      swap2\n      swap1\n      pop\n      jump\t// out\n        /* \"#utility.yul\":6998:7091   */\n    tag_70:\n        /* \"#utility.yul\":7035:7041   */\n      0x00\n        /* \"#utility.yul\":7082:7084   */\n      0x20\n        /* \"#utility.yul\":7077:7079   */\n      0x1f\n        /* \"#utility.yul\":7070:7075   */\n      dup4\n        /* \"#utility.yul\":7066:7080   */\n      add\n        /* \"#utility.yul\":7062:7085   */\n      div\n        /* \"#utility.yul\":7052:7085   */\n      swap1\n      pop\n        /* \"#utility.yul\":6998:7091   */\n      swap2\n      swap1\n      pop\n      jump\t// out\n        /* \"#utility.yul\":7097:7204   */\n    tag_71:\n        /* \"#utility.yul\":7141:7149   */\n      0x00\n        /* \"#utility.yul\":7191:7196   */\n      dup3\n        /* \"#utility.yul\":7185:7189   */\n      dup3\n        /* \"#utility.yul\":7181:7197   */\n      shl\n        /* \"#utility.yul\":7160:7197   */\n      swap1\n      pop\n        /* \"#utility.yul\":7097:7204   */\n      swap3\n      swap2\n      pop\n      pop\n      jump\t// out\n        /* \"#utility.yul\":7210:7603   */\n    tag_72:\n        /* \"#utility.yul\":7279:7285   */\n      0x00\n        /* \"#utility.yul\":7329:7330   */\n      0x08\n        /* \"#utility.yul\":7317:7327   */\n      dup4\n        /* \"#utility.yul\":7313:7331   */\n      mul\n        /* \"#utility.yul\":7352:7449   */\n      tag_166\n        /* \"#utility.yul\":7382:7448   */\n      0xffffffffffffffffffffffffffffffffffffffffffffffffffffffffffffffff\n        /* \"#utility.yul\":7371:7380   */\n      dup3\n        /* \"#utility.yul\":7352:7449   */\n      tag_71\n      jump\t// in\n    tag_166:\n        /* \"#utility.yul\":7470:7509   */\n      tag_167\n        /* \"#utility.yul\":7500:7508   */\n      dup7\n        /* \"#utility.yul\":7489:7498   */\n      dup4\n        /* \"#utility.yul\":7470:7509   */\n      tag_71\n      jump\t// in\n    tag_167:\n        /* \"#utility.yul\":7458:7509   */\n      swap6\n      pop\n        /* \"#utility.yul\":7542:7546   */\n      dup1\n        /* \"#utility.yul\":7538:7547   */\n      not\n        /* \"#utility.yul\":7531:7536   */\n      dup5\n        /* \"#utility.yul\":7527:7548   */\n      and\n        /* \"#utility.yul\":7518:7548   */\n      swap4\n      pop\n        /* \"#utility.yul\":7591:7595   */\n      dup1\n        /* \"#utility.yul\":7581:7589   */\n      dup7\n        /* \"#utility.yul\":7577:7596   */\n      and\n        /* \"#utility.yul\":7570:7575   */\n      dup5\n        /* \"#utility.yul\":7567:7597   */\n      or\n        /* \"#utility.yul\":7557:7597   */\n      swap3\n      pop\n        /* \"#utility.yul\":7286:7603   */\n      pop\n      pop\n        /* \"#utility.yul\":7210:7603   */\n      swap4\n      swap3\n      pop\n      pop\n      pop\n      jump\t// out\n        /* \"#utility.yul\":7609:7669   */\n    tag_73:\n        /* \"#utility.yul\":7637:7640   */\n      0x00\n        /* \"#utility.yul\":7658:7663   */\n      dup2\n        /* \"#utility.yul\":7651:7663   */\n      swap1\n      pop\n        /* \"#utility.yul\":7609:7669   */\n      swap2\n      swap1\n      pop\n      jump\t// out\n        /* \"#utility.yul\":7675:7817   */\n    tag_74:\n        /* \"#utility.yul\":7725:7734   */\n      0x00\n        /* \"#utility.yul\":7758:7811   */\n      tag_170\n        /* \"#utility.yul\":7776:7810   */\n      tag_171\n        /* \"#utility.yul\":7785:7809   */\n      tag_172\n        /* \"#utility.yul\":7803:7808   */\n      dup5\n        /* \"#utility.yul\":7785:7809   */\n      tag_45\n      jump\t// in\n    tag_172:\n        /* \"#utility.yul\":7776:7810   */\n      tag_73\n      jump\t// in\n    tag_171:\n        /* \"#utility.yul\":7758:7811   */\n      tag_45\n      jump\t// in\n    tag_170:\n        /* \"#utility.yul\":7745:7811   */\n      swap1\n      pop\n        /* \"#utility.yul\":7675:7817   */\n      swap2\n      swap1\n      pop\n      jump\t// out\n        /* \"#utility.yul\":7823:7898   */\n    tag_75:\n        /* \"#utility.yul\":7866:7869   */\n      0x00\n        /* \"#utility.yul\":7887:7892   */\n      dup2\n        /* \"#utility.yul\":7880:7892   */\n      swap1\n      pop\n        /* \"#utility.yul\":7823:7898   */\n      swap2\n      swap1\n      pop\n      jump\t// out\n        /* \"#utility.yul\":7904:8173   */\n    tag_76:\n        /* \"#utility.yul\":8014:8053   */\n      tag_175\n        /* \"#utility.yul\":8045:8052   */\n      dup4\n        /* \"#utility.yul\":8014:8053   */\n      tag_74\n      jump\t// in\n    tag_175:\n        /* \"#utility.yul\":8075:8166   */\n      tag_176\n        /* \"#utility.yul\":8124:8165   */\n      tag_177\n        /* \"#utility.yul\":8148:8164   */\n      dup3\n        /* \"#utility.yul\":8124:8165   */\n      tag_75\n      jump\t// in\n    tag_177:\n        /* \"#utility.yul\":8116:8122   */\n      dup5\n        /* \"#utility.yul\":8109:8113   */\n      dup5\n        /* \"#utility.yul\":8103:8114   */\n      sload\n        /* \"#utility.yul\":8075:8166   */\n      tag_72\n      jump\t// in\n    tag_176:\n        /* \"#utility.yul\":8069:8073   */\n      dup3\n        /* \"#utility.yul\":8062:8167   */\n      sstore\n        /* \"#utility.yul\":7980:8173   */\n      pop\n        /* \"#utility.yul\":7904:8173   */\n      pop\n      pop\n      pop\n      jump\t// out\n        /* \"#utility.yul\":8179:8252   */\n    tag_77:\n        /* \"#utility.yul\":8224:8227   */\n      0x00\n        /* \"#utility.yul\":8179:8252   */\n      swap1\n      jump\t// out\n        /* \"#utility.yul\":8258:8447   */\n    tag_78:\n        /* \"#utility.yul\":8335:8367   */\n      tag_180\n      tag_77\n      jump\t// in\n    tag_180:\n        /* \"#utility.yul\":8376:8441   */\n      tag_181\n        /* \"#utility.yul\":8434:8440   */\n      dup2\n        /* \"#utility.yul\":8426:8432   */\n      dup5\n        /* \"#utility.yul\":8420:8424   */\n      dup5\n        /* \"#utility.yul\":8376:8441   */\n      tag_76\n      jump\t// in\n    tag_181:\n        /* \"#utility.yul\":8311:8447   */\n      pop\n        /* \"#utility.yul\":8258:8447   */\n      pop\n      pop\n      jump\t// out\n        /* \"#utility.yul\":8453:8639   */\n    tag_79:\n        /* \"#utility.yul\":8513:8633   */\n    tag_183:\n        /* \"#utility.yul\":8530:8533   */\n      dup2\n        /* \"#utility.yul\":8523:8528   */\n      dup2\n        /* \"#utility.yul\":8520:8534   */\n      lt\n        /* \"#utility.yul\":8513:8633   */\n      iszero\n      tag_185\n      jumpi\n        /* \"#utility.yul\":8584:8623   */\n      tag_186\n        /* \"#utility.yul\":8621:8622   */\n      0x00\n        /* \"#utility.yul\":8614:8619   */\n      dup3\n        /* \"#utility.yul\":8584:8623   */\n      tag_78\n      jump\t// in\n    tag_186:\n        /* \"#utility.yul\":8557:8558   */\n      0x01\n        /* \"#utility.yul\":8550:8555   */\n      dup2\n        /* \"#utility.yul\":8546:8559   */\n      add\n        /* \"#utility.yul\":8537:8559   */\n      swap1\n      pop\n        /* \"#utility.yul\":8513:8633   */\n      jump(tag_183)\n    tag_185:\n        /* \"#utility.yul\":8453:8639   */\n      pop\n      pop\n      jump\t// out\n        /* \"#utility.yul\":8645:9188   */\n    tag_80:\n        /* \"#utility.yul\":8746:8748   */\n      0x1f\n        /* \"#utility.yul\":8741:8744   */\n      dup3\n        /* \"#utility.yul\":8738:8749   */\n      gt\n        /* \"#utility.yul\":8735:9181   */\n      iszero\n      tag_188\n      jumpi\n        /* \"#utility.yul\":8780:8818   */\n      tag_189\n        /* \"#utility.yul\":8812:8817   */\n      dup2\n        /* \"#utility.yul\":8780:8818   */\n      tag_69\n      jump\t// in\n    tag_189:\n        /* \"#utility.yul\":8864:8893   */\n      tag_190\n        /* \"#utility.yul\":8882:8892   */\n      dup5\n        /* \"#utility.yul\":8864:8893   */\n      tag_70\n      jump\t// in\n    tag_190:\n        /* \"#utility.yul\":8854:8862   */\n      dup2\n        /* \"#utility.yul\":8850:8894   */\n      add\n        /* \"#utility.yul\":9047:9049   */\n      0x20\n        /* \"#utility.yul\":9035:9045   */\n      dup6\n        /* \"#utility.yul\":9032:9050   */\n      lt\n        /* \"#utility.yul\":9029:9078   */\n      iszero\n      tag_191\n      jumpi\n        /* \"#utility.yul\":9068:9076   */\n      dup2\n        /* \"#utility.yul\":9053:9076   */\n      swap1\n      pop\n        /* \"#utility.yul\":9029:9078   */\n    tag_191:\n        /* \"#utility.yul\":9091:9171   */\n      tag_192\n        /* \"#utility.yul\":9147:9169   */\n      tag_193\n        /* \"#utility.yul\":9165:9168   */\n      dup6\n        /* \"#utility.yul\":9147:9169   */\n      tag_70\n      jump\t// in\n    tag_193:\n        /* \"#utility.yul\":9137:9145   */\n      dup4\n        /* \"#utility.yul\":9133:9170   */\n      add\n        /* \"#utility.yul\":9120:9131   */\n      dup3\n        /* \"#utility.yul\":9091:9171   */\n      tag_79\n      jump\t// in\n    tag_192:\n        /* \"#utility.yul\":8750:9181   */\n      pop\n      pop\n        /* \"#utility.yul\":8735:9181   */\n    tag_188:\n        /* \"#utility.yul\":8645:9188   */\n      pop\n      pop\n      pop\n      jump\t// out\n        /* \"#utility.yul\":9194:9311   */\n    tag_81:\n        /* \"#utility.yul\":9248:9256   */\n      0x00\n        /* \"#utility.yul\":9298:9303   */\n      dup3\n        /* \"#utility.yul\":9292:9296   */\n      dup3\n        /* \"#utility.yul\":9288:9304   */\n      shr\n        /* \"#utility.yul\":9267:9304   */\n      swap1\n      pop\n        /* \"#utility.yul\":9194:9311   */\n      swap3\n      swap2\n      pop\n      pop\n      jump\t// out\n        /* \"#utility.yul\":9317:9486   */\n    tag_82:\n        /* \"#utility.yul\":9361:9367   */\n      0x00\n        /* \"#utility.yul\":9394:9445   */\n      tag_196\n        /* \"#utility.yul\":9442:9443   */\n      0x00\n        /* \"#utility.yul\":9438:9444   */\n      not\n        /* \"#utility.yul\":9430:9435   */\n      dup5\n        /* \"#utility.yul\":9427:9428   */\n      0x08\n        /* \"#utility.yul\":9423:9436   */\n      mul\n        /* \"#utility.yul\":9394:9445   */\n      tag_81\n      jump\t// in\n    tag_196:\n        /* \"#utility.yul\":9390:9446   */\n      not\n        /* \"#utility.yul\":9475:9479   */\n      dup1\n        /* \"#utility.yul\":9469:9473   */\n      dup4\n        /* \"#utility.yul\":9465:9480   */\n      and\n        /* \"#utility.yul\":9455:9480   */\n      swap2\n      pop\n        /* \"#utility.yul\":9368:9486   */\n      pop\n        /* \"#utility.yul\":9317:9486   */\n      swap3\n      swap2\n      pop\n      pop\n      jump\t// out\n        /* \"#utility.yul\":9491:9786   */\n    tag_83:\n        /* \"#utility.yul\":9567:9571   */\n      0x00\n        /* \"#utility.yul\":9713:9742   */\n      tag_198\n        /* \"#utility.yul\":9738:9741   */\n      dup4\n        /* \"#utility.yul\":9732:9736   */\n      dup4\n        /* \"#utility.yul\":9713:9742   */\n      tag_82\n      jump\t// in\n    tag_198:\n        /* \"#utility.yul\":9705:9742   */\n      swap2\n      pop\n        /* \"#utility.yul\":9775:9778   */\n      dup3\n        /* \"#utility.yul\":9772:9773   */\n      0x02\n        /* \"#utility.yul\":9768:9779   */\n      mul\n        /* \"#utility.yul\":9762:9766   */\n      dup3\n        /* \"#utility.yul\":9759:9780   */\n      or\n        /* \"#utility.yul\":9751:9780   */\n      swap1\n      pop\n        /* \"#utility.yul\":9491:9786   */\n      swap3\n      swap2\n      pop\n      pop\n      jump\t// out\n        /* \"#utility.yul\":9791:11186   */\n    tag_41:\n        /* \"#utility.yul\":9908:9945   */\n      tag_200\n        /* \"#utility.yul\":9941:9944   */\n      dup3\n        /* \"#utility.yul\":9908:9945   */\n      tag_48\n      jump\t// in\n    tag_200:\n        /* \"#utility.yul\":10010:10028   */\n      0xffffffffffffffff\n        /* \"#utility.yul\":10002:10008   */\n      dup2\n        /* \"#utility.yul\":9999:10029   */\n      gt\n        /* \"#utility.yul\":9996:10052   */\n      iszero\n      tag_201\n      jumpi\n        /* \"#utility.yul\":10032:10050   */\n      tag_202\n      tag_59\n      jump\t// in\n    tag_202:\n        /* \"#utility.yul\":9996:10052   */\n    tag_201:\n        /* \"#utility.yul\":10076:10114   */\n      tag_203\n        /* \"#utility.yul\":10108:10112   */\n      dup3\n        /* \"#utility.yul\":10102:10113   */\n      sload\n        /* \"#utility.yul\":10076:10114   */\n      tag_26\n      jump\t// in\n    tag_203:\n        /* \"#utility.yul\":10161:10228   */\n      tag_204\n        /* \"#utility.yul\":10221:10227   */\n      dup3\n        /* \"#utility.yul\":10213:10219   */\n      dup3\n        /* \"#utility.yul\":10207:10211   */\n      dup6\n        /* \"#utility.yul\":10161:10228   */\n      tag_80\n      jump\t// in\n    tag_204:\n        /* \"#utility.yul\":10255:10256   */\n      0x00\n        /* \"#utility.yul\":10279:10283   */\n      0x20\n        /* \"#utility.yul\":10266:10283   */\n      swap1\n      pop\n        /* \"#utility.yul\":10311:10313   */\n      0x1f\n        /* \"#utility.yul\":10303:10309   */\n      dup4\n        /* \"#utility.yul\":10300:10314   */\n      gt\n        /* \"#utility.yul\":10328:10329   */\n      0x01\n        /* \"#utility.yul\":10323:10941   */\n      dup2\n      eq\n      tag_206\n      jumpi\n        /* \"#utility.yul\":10985:10986   */\n      0x00\n        /* \"#utility.yul\":11002:11008   */\n      dup5\n        /* \"#utility.yul\":10999:11076   */\n      iszero\n      tag_207\n      jumpi\n        /* \"#utility.yul\":11051:11060   */\n      dup3\n        /* \"#utility.yul\":11046:11049   */\n      dup8\n        /* \"#utility.yul\":11042:11061   */\n      add\n        /* \"#utility.yul\":11036:11062   */\n      mload\n        /* \"#utility.yul\":11027:11062   */\n      swap1\n      pop\n        /* \"#utility.yul\":10999:11076   */\n    tag_207:\n        /* \"#utility.yul\":11102:11169   */\n      tag_208\n        /* \"#utility.yul\":11162:11168   */\n      dup6\n        /* \"#utility.yul\":11155:11160   */\n      dup3\n        /* \"#utility.yul\":11102:11169   */\n      tag_83\n      jump\t// in\n    tag_208:\n        /* \"#utility.yul\":11096:11100   */\n      dup7\n        /* \"#utility.yul\":11089:11170   */\n      sstore\n        /* \"#utility.yul\":10958:11180   */\n      pop\n        /* \"#utility.yul\":10293:11180   */\n      jump(tag_205)\n        /* \"#utility.yul\":10323:10941   */\n    tag_206:\n        /* \"#utility.yul\":10375:10379   */\n      0x1f\n        /* \"#utility.yul\":10371:10380   */\n      not\n        /* \"#utility.yul\":10363:10369   */\n      dup5\n        /* \"#utility.yul\":10359:10381   */\n      and\n        /* \"#utility.yul\":10409:10446   */\n      tag_209\n        /* \"#utility.yul\":10441:10445   */\n      dup7\n        /* \"#utility.yul\":10409:10446   */\n      tag_69\n      jump\t// in\n    tag_209:\n        /* \"#utility.yul\":10468:10469   */\n      0x00\n        /* \"#utility.yul\":10482:10690   */\n    tag_210:\n        /* \"#utility.yul\":10496:10503   */\n      dup3\n        /* \"#utility.yul\":10493:10494   */\n      dup2\n        /* \"#utility.yul\":10490:10504   */\n      lt\n        /* \"#utility.yul\":10482:10690   */\n      iszero\n      tag_212\n      jumpi\n        /* \"#utility.yul\":10575:10584   */\n      dup5\n        /* \"#utility.yul\":10570:10573   */\n      dup10\n        /* \"#utility.yul\":10566:10585   */\n      add\n        /* \"#utility.yul\":10560:10586   */\n      mload\n        /* \"#utility.yul\":10552:10558   */\n      dup3\n        /* \"#utility.yul\":10545:10587   */\n      sstore\n        /* \"#utility.yul\":10626:10627   */\n      0x01\n        /* \"#utility.yul\":10618:10624   */\n      dup3\n        /* \"#utility.yul\":10614:10628   */\n      add\n        /* \"#utility.yul\":10604:10628   */\n      swap2\n      pop\n        /* \"#utility.yul\":10673:10675   */\n      0x20\n        /* \"#utility.yul\":10662:10671   */\n      dup6\n        /* \"#utility.yul\":10658:10676   */\n      add\n        /* \"#utility.yul\":10645:10676   */\n      swap5\n      pop\n        /* \"#utility.yul\":10519:10523   */\n      0x20\n        /* \"#utility.yul\":10516:10517   */\n      dup2\n        /* \"#utility.yul\":10512:10524   */\n      add\n        /* \"#utility.yul\":10507:10524   */\n      swap1\n      pop\n        /* \"#utility.yul\":10482:10690   */\n      jump(tag_210)\n    tag_212:\n        /* \"#utility.yul\":10718:10724   */\n      dup7\n        /* \"#utility.yul\":10709:10716   */\n      dup4\n        /* \"#utility.yul\":10706:10725   */\n      lt\n        /* \"#utility.yul\":10703:10882   */\n      iszero\n      tag_213\n      jumpi\n        /* \"#utility.yul\":10776:10785   */\n      dup5\n        /* \"#utility.yul\":10771:10774   */\n      dup10\n        /* \"#utility.yul\":10767:10786   */\n      add\n        /* \"#utility.yul\":10761:10787   */\n      mload\n        /* \"#utility.yul\":10819:10867   */\n      tag_214\n        /* \"#utility.yul\":10861:10865   */\n      0x1f\n        /* \"#utility.yul\":10853:10859   */\n      dup10\n        /* \"#utility.yul\":10849:10866   */\n      and\n        /* \"#utility.yul\":10838:10847   */\n      dup3\n        /* \"#utility.yul\":10819:10867   */\n      tag_82\n      jump\t// in\n    tag_214:\n        /* \"#utility.yul\":10811:10817   */\n      dup4\n        /* \"#utility.yul\":10804:10868   */\n      sstore\n        /* \"#utility.yul\":10726:10882   */\n      pop\n        /* \"#utility.yul\":10703:10882   */\n    tag_213:\n        /* \"#utility.yul\":10928:10929   */\n      0x01\n        /* \"#utility.yul\":10924:10925   */\n      0x02\n        /* \"#utility.yul\":10916:10922   */\n      dup9\n        /* \"#utility.yul\":10912:10926   */\n      mul\n        /* \"#utility.yul\":10908:10930   */\n      add\n        /* \"#utility.yul\":10902:10906   */\n      dup9\n        /* \"#utility.yul\":10895:10931   */\n      sstore\n        /* \"#utility.yul\":10330:10941   */\n      pop\n      pop\n      pop\n        /* \"#utility.yul\":10293:11180   */\n    tag_205:\n      pop\n        /* \"#utility.yul\":9883:11186   */\n      pop\n      pop\n      pop\n        /* \"#utility.yul\":9791:11186   */\n      pop\n      pop\n      jump\t// out\n\n    auxdata: 0xa2646970667358221220579af6715daa97f6e62f82220479cb813465ca8fec1f672a6537836cf3865e2864736f6c634300081a0033\n}\n",
				"bytecode": {
					"linkReferences": {},
					"object": "6080604052348015600e575f80fd5b506109a08061001c5f395ff3fe608060405234801561000f575f80fd5b506004361061003f575f3560e01c8063246982c4146100435780639e7a13ad14610075578063e11641cf146100a7575b5f80fd5b61005d6004803603810190610058919061038d565b6100c3565b60405161006c93929190610476565b60405180910390f35b61008f600480360381019061008a919061038d565b6101ad565b60405161009e93929190610476565b60405180910390f35b6100c160048036038101906100bc9190610608565b610286565b005b60605f805f8085815481106100db576100da610674565b5b905f5260205f2090600302019050805f018160010154826002015f9054906101000a900473ffffffffffffffffffffffffffffffffffffffff16828054610121906106ce565b80601f016020809104026020016040519081016040528092919081815260200182805461014d906106ce565b80156101985780601f1061016f57610100808354040283529160200191610198565b820191905f5260205f20905b81548152906001019060200180831161017b57829003601f168201915b50505050509250935093509350509193909250565b5f81815481106101bb575f80fd5b905f5260205f2090600302015f91509050805f0180546101da906106ce565b80601f0160208091040260200160405190810160405280929190818152602001828054610206906106ce565b80156102515780601f1061022857610100808354040283529160200191610251565b820191905f5260205f20905b81548152906001019060200180831161023457829003601f168201915b505050505090806001015490806002015f9054906101000a900473ffffffffffffffffffffffffffffffffffffffff16905083565b5f60405180606001604052808581526020018481526020018373ffffffffffffffffffffffffffffffffffffffff16815250908060018154018082558091505060019003905f5260205f2090600302015f909190919091505f820151815f0190816102f1919061089b565b50602082015181600101556040820151816002015f6101000a81548173ffffffffffffffffffffffffffffffffffffffff021916908373ffffffffffffffffffffffffffffffffffffffff1602179055505050505050565b5f604051905090565b5f80fd5b5f80fd5b5f819050919050565b61036c8161035a565b8114610376575f80fd5b50565b5f8135905061038781610363565b92915050565b5f602082840312156103a2576103a1610352565b5b5f6103af84828501610379565b91505092915050565b5f81519050919050565b5f82825260208201905092915050565b8281835e5f83830152505050565b5f601f19601f8301169050919050565b5f6103fa826103b8565b61040481856103c2565b93506104148185602086016103d2565b61041d816103e0565b840191505092915050565b6104318161035a565b82525050565b5f73ffffffffffffffffffffffffffffffffffffffff82169050919050565b5f61046082610437565b9050919050565b61047081610456565b82525050565b5f6060820190508181035f83015261048e81866103f0565b905061049d6020830185610428565b6104aa6040830184610467565b949350505050565b5f80fd5b5f80fd5b7f4e487b71000000000000000000000000000000000000000000000000000000005f52604160045260245ffd5b6104f0826103e0565b810181811067ffffffffffffffff8211171561050f5761050e6104ba565b5b80604052505050565b5f610521610349565b905061052d82826104e7565b919050565b5f67ffffffffffffffff82111561054c5761054b6104ba565b5b610555826103e0565b9050602081019050919050565b828183375f83830152505050565b5f61058261057d84610532565b610518565b90508281526020810184848401111561059e5761059d6104b6565b5b6105a9848285610562565b509392505050565b5f82601f8301126105c5576105c46104b2565b5b81356105d5848260208601610570565b91505092915050565b6105e781610456565b81146105f1575f80fd5b50565b5f81359050610602816105de565b92915050565b5f805f6060848603121561061f5761061e610352565b5b5f84013567ffffffffffffffff81111561063c5761063b610356565b5b610648868287016105b1565b935050602061065986828701610379565b925050604061066a868287016105f4565b9150509250925092565b7f4e487b71000000000000000000000000000000000000000000000000000000005f52603260045260245ffd5b7f4e487b71000000000000000000000000000000000000000000000000000000005f52602260045260245ffd5b5f60028204905060018216806106e557607f821691505b6020821081036106f8576106f76106a1565b5b50919050565b5f819050815f5260205f209050919050565b5f6020601f8301049050919050565b5f82821b905092915050565b5f6008830261075a7fffffffffffffffffffffffffffffffffffffffffffffffffffffffffffffffff8261071f565b610764868361071f565b95508019841693508086168417925050509392505050565b5f819050919050565b5f61079f61079a6107958461035a565b61077c565b61035a565b9050919050565b5f819050919050565b6107b883610785565b6107cc6107c4826107a6565b84845461072b565b825550505050565b5f90565b6107e06107d4565b6107eb8184846107af565b505050565b5b8181101561080e576108035f826107d8565b6001810190506107f1565b5050565b601f82111561085357610824816106fe565b61082d84610710565b8101602085101561083c578190505b61085061084885610710565b8301826107f0565b50505b505050565b5f82821c905092915050565b5f6108735f1984600802610858565b1980831691505092915050565b5f61088b8383610864565b9150826002028217905092915050565b6108a4826103b8565b67ffffffffffffffff8111156108bd576108bc6104ba565b5b6108c782546106ce565b6108d2828285610812565b5f60209050601f831160018114610903575f84156108f1578287015190505b6108fb8582610880565b865550610962565b601f198416610911866106fe565b5f5b8281101561093857848901518255600182019150602085019450602081019050610913565b868310156109555784890151610951601f891682610864565b8355505b6001600288020188555050505b50505050505056fea2646970667358221220579af6715daa97f6e62f82220479cb813465ca8fec1f672a6537836cf3865e2864736f6c634300081a0033",
					"opcodes": "PUSH1 0x80 PUSH1 0x40 MSTORE CALLVALUE DUP1 ISZERO PUSH1 0xE JUMPI PUSH0 DUP1 REVERT JUMPDEST POP PUSH2 0x9A0 DUP1 PUSH2 0x1C PUSH0 CODECOPY PUSH0 RETURN INVALID PUSH1 0x80 PUSH1 0x40 MSTORE CALLVALUE DUP1 ISZERO PUSH2 0xF JUMPI PUSH0 DUP1 REVERT JUMPDEST POP PUSH1 0x4 CALLDATASIZE LT PUSH2 0x3F JUMPI PUSH0 CALLDATALOAD PUSH1 0xE0 SHR DUP1 PUSH4 0x246982C4 EQ PUSH2 0x43 JUMPI DUP1 PUSH4 0x9E7A13AD EQ PUSH2 0x75 JUMPI DUP1 PUSH4 0xE11641CF EQ PUSH2 0xA7 JUMPI JUMPDEST PUSH0 DUP1 REVERT JUMPDEST PUSH2 0x5D PUSH1 0x4 DUP1 CALLDATASIZE SUB DUP2 ADD SWAP1 PUSH2 0x58 SWAP2 SWAP1 PUSH2 0x38D JUMP JUMPDEST PUSH2 0xC3 JUMP JUMPDEST PUSH1 0x40 MLOAD PUSH2 0x6C SWAP4 SWAP3 SWAP2 SWAP1 PUSH2 0x476 JUMP JUMPDEST PUSH1 0x40 MLOAD DUP1 SWAP2 SUB SWAP1 RETURN JUMPDEST PUSH2 0x8F PUSH1 0x4 DUP1 CALLDATASIZE SUB DUP2 ADD SWAP1 PUSH2 0x8A SWAP2 SWAP1 PUSH2 0x38D JUMP JUMPDEST PUSH2 0x1AD JUMP JUMPDEST PUSH1 0x40 MLOAD PUSH2 0x9E SWAP4 SWAP3 SWAP2 SWAP1 PUSH2 0x476 JUMP JUMPDEST PUSH1 0x40 MLOAD DUP1 SWAP2 SUB SWAP1 RETURN JUMPDEST PUSH2 0xC1 PUSH1 0x4 DUP1 CALLDATASIZE SUB DUP2 ADD SWAP1 PUSH2 0xBC SWAP2 SWAP1 PUSH2 0x608 JUMP JUMPDEST PUSH2 0x286 JUMP JUMPDEST STOP JUMPDEST PUSH1 0x60 PUSH0 DUP1 PUSH0 DUP1 DUP6 DUP2 SLOAD DUP2 LT PUSH2 0xDB JUMPI PUSH2 0xDA PUSH2 0x674 JUMP JUMPDEST JUMPDEST SWAP1 PUSH0 MSTORE PUSH1 0x20 PUSH0 KECCAK256 SWAP1 PUSH1 0x3 MUL ADD SWAP1 POP DUP1 PUSH0 ADD DUP2 PUSH1 0x1 ADD SLOAD DUP3 PUSH1 0x2 ADD PUSH0 SWAP1 SLOAD SWAP1 PUSH2 0x100 EXP SWAP1 DIV PUSH20 0xFFFFFFFFFFFFFFFFFFFFFFFFFFFFFFFFFFFFFFFF AND DUP3 DUP1 SLOAD PUSH2 0x121 SWAP1 PUSH2 0x6CE JUMP JUMPDEST DUP1 PUSH1 0x1F ADD PUSH1 0x20 DUP1 SWAP2 DIV MUL PUSH1 0x20 ADD PUSH1 0x40 MLOAD SWAP1 DUP2 ADD PUSH1 0x40 MSTORE DUP1 SWAP3 SWAP2 SWAP1 DUP2 DUP2 MSTORE PUSH1 0x20 ADD DUP3 DUP1 SLOAD PUSH2 0x14D SWAP1 PUSH2 0x6CE JUMP JUMPDEST DUP1 ISZERO PUSH2 0x198 JUMPI DUP1 PUSH1 0x1F LT PUSH2 0x16F JUMPI PUSH2 0x100 DUP1 DUP4 SLOAD DIV MUL DUP4 MSTORE SWAP2 PUSH1 0x20 ADD SWAP2 PUSH2 0x198 JUMP JUMPDEST DUP3 ADD SWAP2 SWAP1 PUSH0 MSTORE PUSH1 0x20 PUSH0 KECCAK256 SWAP1 JUMPDEST DUP2 SLOAD DUP2 MSTORE SWAP1 PUSH1 0x1 ADD SWAP1 PUSH1 0x20 ADD DUP1 DUP4 GT PUSH2 0x17B JUMPI DUP3 SWAP1 SUB PUSH1 0x1F AND DUP3 ADD SWAP2 JUMPDEST POP POP POP POP POP SWAP3 POP SWAP4 POP SWAP4 POP SWAP4 POP POP SWAP2 SWAP4 SWAP1 SWAP3 POP JUMP JUMPDEST PUSH0 DUP2 DUP2 SLOAD DUP2 LT PUSH2 0x1BB JUMPI PUSH0 DUP1 REVERT JUMPDEST SWAP1 PUSH0 MSTORE PUSH1 0x20 PUSH0 KECCAK256 SWAP1 PUSH1 0x3 MUL ADD PUSH0 SWAP2 POP SWAP1 POP DUP1 PUSH0 ADD DUP1 SLOAD PUSH2 0x1DA SWAP1 PUSH2 0x6CE JUMP JUMPDEST DUP1 PUSH1 0x1F ADD PUSH1 0x20 DUP1 SWAP2 DIV MUL PUSH1 0x20 ADD PUSH1 0x40 MLOAD SWAP1 DUP2 ADD PUSH1 0x40 MSTORE DUP1 SWAP3 SWAP2 SWAP1 DUP2 DUP2 MSTORE PUSH1 0x20 ADD DUP3 DUP1 SLOAD PUSH2 0x206 SWAP1 PUSH2 0x6CE JUMP JUMPDEST DUP1 ISZERO PUSH2 0x251 JUMPI DUP1 PUSH1 0x1F LT PUSH2 0x228 JUMPI PUSH2 0x100 DUP1 DUP4 SLOAD DIV MUL DUP4 MSTORE SWAP2 PUSH1 0x20 ADD SWAP2 PUSH2 0x251 JUMP JUMPDEST DUP3 ADD SWAP2 SWAP1 PUSH0 MSTORE PUSH1 0x20 PUSH0 KECCAK256 SWAP1 JUMPDEST DUP2 SLOAD DUP2 MSTORE SWAP1 PUSH1 0x1 ADD SWAP1 PUSH1 0x20 ADD DUP1 DUP4 GT PUSH2 0x234 JUMPI DUP3 SWAP1 SUB PUSH1 0x1F AND DUP3 ADD SWAP2 JUMPDEST POP POP POP POP POP SWAP1 DUP1 PUSH1 0x1 ADD SLOAD SWAP1 DUP1 PUSH1 0x2 ADD PUSH0 SWAP1 SLOAD SWAP1 PUSH2 0x100 EXP SWAP1 DIV PUSH20 0xFFFFFFFFFFFFFFFFFFFFFFFFFFFFFFFFFFFFFFFF AND SWAP1 POP DUP4 JUMP JUMPDEST PUSH0 PUSH1 0x40 MLOAD DUP1 PUSH1 0x60 ADD PUSH1 0x40 MSTORE DUP1 DUP6 DUP2 MSTORE PUSH1 0x20 ADD DUP5 DUP2 MSTORE PUSH1 0x20 ADD DUP4 PUSH20 0xFFFFFFFFFFFFFFFFFFFFFFFFFFFFFFFFFFFFFFFF AND DUP2 MSTORE POP SWAP1 DUP1 PUSH1 0x1 DUP2 SLOAD ADD DUP1 DUP3 SSTORE DUP1 SWAP2 POP POP PUSH1 0x1 SWAP1 SUB SWAP1 PUSH0 MSTORE PUSH1 0x20 PUSH0 KECCAK256 SWAP1 PUSH1 0x3 MUL ADD PUSH0 SWAP1 SWAP2 SWAP1 SWAP2 SWAP1 SWAP2 POP PUSH0 DUP3 ADD MLOAD DUP2 PUSH0 ADD SWAP1 DUP2 PUSH2 0x2F1 SWAP2 SWAP1 PUSH2 0x89B JUMP JUMPDEST POP PUSH1 0x20 DUP3 ADD MLOAD DUP2 PUSH1 0x1 ADD SSTORE PUSH1 0x40 DUP3 ADD MLOAD DUP2 PUSH1 0x2 ADD PUSH0 PUSH2 0x100 EXP DUP2 SLOAD DUP2 PUSH20 0xFFFFFFFFFFFFFFFFFFFFFFFFFFFFFFFFFFFFFFFF MUL NOT AND SWAP1 DUP4 PUSH20 0xFFFFFFFFFFFFFFFFFFFFFFFFFFFFFFFFFFFFFFFF AND MUL OR SWAP1 SSTORE POP POP POP POP POP POP JUMP JUMPDEST PUSH0 PUSH1 0x40 MLOAD SWAP1 POP SWAP1 JUMP JUMPDEST PUSH0 DUP1 REVERT JUMPDEST PUSH0 DUP1 REVERT JUMPDEST PUSH0 DUP2 SWAP1 POP SWAP2 SWAP1 POP JUMP JUMPDEST PUSH2 0x36C DUP2 PUSH2 0x35A JUMP JUMPDEST DUP2 EQ PUSH2 0x376 JUMPI PUSH0 DUP1 REVERT JUMPDEST POP JUMP JUMPDEST PUSH0 DUP2 CALLDATALOAD SWAP1 POP PUSH2 0x387 DUP2 PUSH2 0x363 JUMP JUMPDEST SWAP3 SWAP2 POP POP JUMP JUMPDEST PUSH0 PUSH1 0x20 DUP3 DUP5 SUB SLT ISZERO PUSH2 0x3A2 JUMPI PUSH2 0x3A1 PUSH2 0x352 JUMP JUMPDEST JUMPDEST PUSH0 PUSH2 0x3AF DUP5 DUP3 DUP6 ADD PUSH2 0x379 JUMP JUMPDEST SWAP2 POP POP SWAP3 SWAP2 POP POP JUMP JUMPDEST PUSH0 DUP2 MLOAD SWAP1 POP SWAP2 SWAP1 POP JUMP JUMPDEST PUSH0 DUP3 DUP3 MSTORE PUSH1 0x20 DUP3 ADD SWAP1 POP SWAP3 SWAP2 POP POP JUMP JUMPDEST DUP3 DUP2 DUP4 MCOPY PUSH0 DUP4 DUP4 ADD MSTORE POP POP POP JUMP JUMPDEST PUSH0 PUSH1 0x1F NOT PUSH1 0x1F DUP4 ADD AND SWAP1 POP SWAP2 SWAP1 POP JUMP JUMPDEST PUSH0 PUSH2 0x3FA DUP3 PUSH2 0x3B8 JUMP JUMPDEST PUSH2 0x404 DUP2 DUP6 PUSH2 0x3C2 JUMP JUMPDEST SWAP4 POP PUSH2 0x414 DUP2 DUP6 PUSH1 0x20 DUP7 ADD PUSH2 0x3D2 JUMP JUMPDEST PUSH2 0x41D DUP2 PUSH2 0x3E0 JUMP JUMPDEST DUP5 ADD SWAP2 POP POP SWAP3 SWAP2 POP POP JUMP JUMPDEST PUSH2 0x431 DUP2 PUSH2 0x35A JUMP JUMPDEST DUP3 MSTORE POP POP JUMP JUMPDEST PUSH0 PUSH20 0xFFFFFFFFFFFFFFFFFFFFFFFFFFFFFFFFFFFFFFFF DUP3 AND SWAP1 POP SWAP2 SWAP1 POP JUMP JUMPDEST PUSH0 PUSH2 0x460 DUP3 PUSH2 0x437 JUMP JUMPDEST SWAP1 POP SWAP2 SWAP1 POP JUMP JUMPDEST PUSH2 0x470 DUP2 PUSH2 0x456 JUMP JUMPDEST DUP3 MSTORE POP POP JUMP JUMPDEST PUSH0 PUSH1 0x60 DUP3 ADD SWAP1 POP DUP2 DUP2 SUB PUSH0 DUP4 ADD MSTORE PUSH2 0x48E DUP2 DUP7 PUSH2 0x3F0 JUMP JUMPDEST SWAP1 POP PUSH2 0x49D PUSH1 0x20 DUP4 ADD DUP6 PUSH2 0x428 JUMP JUMPDEST PUSH2 0x4AA PUSH1 0x40 DUP4 ADD DUP5 PUSH2 0x467 JUMP JUMPDEST SWAP5 SWAP4 POP POP POP POP JUMP JUMPDEST PUSH0 DUP1 REVERT JUMPDEST PUSH0 DUP1 REVERT JUMPDEST PUSH32 0x4E487B7100000000000000000000000000000000000000000000000000000000 PUSH0 MSTORE PUSH1 0x41 PUSH1 0x4 MSTORE PUSH1 0x24 PUSH0 REVERT JUMPDEST PUSH2 0x4F0 DUP3 PUSH2 0x3E0 JUMP JUMPDEST DUP2 ADD DUP2 DUP2 LT PUSH8 0xFFFFFFFFFFFFFFFF DUP3 GT OR ISZERO PUSH2 0x50F JUMPI PUSH2 0x50E PUSH2 0x4BA JUMP JUMPDEST JUMPDEST DUP1 PUSH1 0x40 MSTORE POP POP POP JUMP JUMPDEST PUSH0 PUSH2 0x521 PUSH2 0x349 JUMP JUMPDEST SWAP1 POP PUSH2 0x52D DUP3 DUP3 PUSH2 0x4E7 JUMP JUMPDEST SWAP2 SWAP1 POP JUMP JUMPDEST PUSH0 PUSH8 0xFFFFFFFFFFFFFFFF DUP3 GT ISZERO PUSH2 0x54C JUMPI PUSH2 0x54B PUSH2 0x4BA JUMP JUMPDEST JUMPDEST PUSH2 0x555 DUP3 PUSH2 0x3E0 JUMP JUMPDEST SWAP1 POP PUSH1 0x20 DUP2 ADD SWAP1 POP SWAP2 SWAP1 POP JUMP JUMPDEST DUP3 DUP2 DUP4 CALLDATACOPY PUSH0 DUP4 DUP4 ADD MSTORE POP POP POP JUMP JUMPDEST PUSH0 PUSH2 0x582 PUSH2 0x57D DUP5 PUSH2 0x532 JUMP JUMPDEST PUSH2 0x518 JUMP JUMPDEST SWAP1 POP DUP3 DUP2 MSTORE PUSH1 0x20 DUP2 ADD DUP5 DUP5 DUP5 ADD GT ISZERO PUSH2 0x59E JUMPI PUSH2 0x59D PUSH2 0x4B6 JUMP JUMPDEST JUMPDEST PUSH2 0x5A9 DUP5 DUP3 DUP6 PUSH2 0x562 JUMP JUMPDEST POP SWAP4 SWAP3 POP POP POP JUMP JUMPDEST PUSH0 DUP3 PUSH1 0x1F DUP4 ADD SLT PUSH2 0x5C5 JUMPI PUSH2 0x5C4 PUSH2 0x4B2 JUMP JUMPDEST JUMPDEST DUP2 CALLDATALOAD PUSH2 0x5D5 DUP5 DUP3 PUSH1 0x20 DUP7 ADD PUSH2 0x570 JUMP JUMPDEST SWAP2 POP POP SWAP3 SWAP2 POP POP JUMP JUMPDEST PUSH2 0x5E7 DUP2 PUSH2 0x456 JUMP JUMPDEST DUP2 EQ PUSH2 0x5F1 JUMPI PUSH0 DUP1 REVERT JUMPDEST POP JUMP JUMPDEST PUSH0 DUP2 CALLDATALOAD SWAP1 POP PUSH2 0x602 DUP2 PUSH2 0x5DE JUMP JUMPDEST SWAP3 SWAP2 POP POP JUMP JUMPDEST PUSH0 DUP1 PUSH0 PUSH1 0x60 DUP5 DUP7 SUB SLT ISZERO PUSH2 0x61F JUMPI PUSH2 0x61E PUSH2 0x352 JUMP JUMPDEST JUMPDEST PUSH0 DUP5 ADD CALLDATALOAD PUSH8 0xFFFFFFFFFFFFFFFF DUP2 GT ISZERO PUSH2 0x63C JUMPI PUSH2 0x63B PUSH2 0x356 JUMP JUMPDEST JUMPDEST PUSH2 0x648 DUP7 DUP3 DUP8 ADD PUSH2 0x5B1 JUMP JUMPDEST SWAP4 POP POP PUSH1 0x20 PUSH2 0x659 DUP7 DUP3 DUP8 ADD PUSH2 0x379 JUMP JUMPDEST SWAP3 POP POP PUSH1 0x40 PUSH2 0x66A DUP7 DUP3 DUP8 ADD PUSH2 0x5F4 JUMP JUMPDEST SWAP2 POP POP SWAP3 POP SWAP3 POP SWAP3 JUMP JUMPDEST PUSH32 0x4E487B7100000000000000000000000000000000000000000000000000000000 PUSH0 MSTORE PUSH1 0x32 PUSH1 0x4 MSTORE PUSH1 0x24 PUSH0 REVERT JUMPDEST PUSH32 0x4E487B7100000000000000000000000000000000000000000000000000000000 PUSH0 MSTORE PUSH1 0x22 PUSH1 0x4 MSTORE PUSH1 0x24 PUSH0 REVERT JUMPDEST PUSH0 PUSH1 0x2 DUP3 DIV SWAP1 POP PUSH1 0x1 DUP3 AND DUP1 PUSH2 0x6E5 JUMPI PUSH1 0x7F DUP3 AND SWAP2 POP JUMPDEST PUSH1 0x20 DUP3 LT DUP2 SUB PUSH2 0x6F8 JUMPI PUSH2 0x6F7 PUSH2 0x6A1 JUMP JUMPDEST JUMPDEST POP SWAP2 SWAP1 POP JUMP JUMPDEST PUSH0 DUP2 SWAP1 POP DUP2 PUSH0 MSTORE PUSH1 0x20 PUSH0 KECCAK256 SWAP1 POP SWAP2 SWAP1 POP JUMP JUMPDEST PUSH0 PUSH1 0x20 PUSH1 0x1F DUP4 ADD DIV SWAP1 POP SWAP2 SWAP1 POP JUMP JUMPDEST PUSH0 DUP3 DUP3 SHL SWAP1 POP SWAP3 SWAP2 POP POP JUMP JUMPDEST PUSH0 PUSH1 0x8 DUP4 MUL PUSH2 0x75A PUSH32 0xFFFFFFFFFFFFFFFFFFFFFFFFFFFFFFFFFFFFFFFFFFFFFFFFFFFFFFFFFFFFFFFF DUP3 PUSH2 0x71F JUMP JUMPDEST PUSH2 0x764 DUP7 DUP4 PUSH2 0x71F JUMP JUMPDEST SWAP6 POP DUP1 NOT DUP5 AND SWAP4 POP DUP1 DUP7 AND DUP5 OR SWAP3 POP POP POP SWAP4 SWAP3 POP POP POP JUMP JUMPDEST PUSH0 DUP2 SWAP1 POP SWAP2 SWAP1 POP JUMP JUMPDEST PUSH0 PUSH2 0x79F PUSH2 0x79A PUSH2 0x795 DUP5 PUSH2 0x35A JUMP JUMPDEST PUSH2 0x77C JUMP JUMPDEST PUSH2 0x35A JUMP JUMPDEST SWAP1 POP SWAP2 SWAP1 POP JUMP JUMPDEST PUSH0 DUP2 SWAP1 POP SWAP2 SWAP1 POP JUMP JUMPDEST PUSH2 0x7B8 DUP4 PUSH2 0x785 JUMP JUMPDEST PUSH2 0x7CC PUSH2 0x7C4 DUP3 PUSH2 0x7A6 JUMP JUMPDEST DUP5 DUP5 SLOAD PUSH2 0x72B JUMP JUMPDEST DUP3 SSTORE POP POP POP POP JUMP JUMPDEST PUSH0 SWAP1 JUMP JUMPDEST PUSH2 0x7E0 PUSH2 0x7D4 JUMP JUMPDEST PUSH2 0x7EB DUP2 DUP5 DUP5 PUSH2 0x7AF JUMP JUMPDEST POP POP POP JUMP JUMPDEST JUMPDEST DUP2 DUP2 LT ISZERO PUSH2 0x80E JUMPI PUSH2 0x803 PUSH0 DUP3 PUSH2 0x7D8 JUMP JUMPDEST PUSH1 0x1 DUP2 ADD SWAP1 POP PUSH2 0x7F1 JUMP JUMPDEST POP POP JUMP JUMPDEST PUSH1 0x1F DUP3 GT ISZERO PUSH2 0x853 JUMPI PUSH2 0x824 DUP2 PUSH2 0x6FE JUMP JUMPDEST PUSH2 0x82D DUP5 PUSH2 0x710 JUMP JUMPDEST DUP2 ADD PUSH1 0x20 DUP6 LT ISZERO PUSH2 0x83C JUMPI DUP2 SWAP1 POP JUMPDEST PUSH2 0x850 PUSH2 0x848 DUP6 PUSH2 0x710 JUMP JUMPDEST DUP4 ADD DUP3 PUSH2 0x7F0 JUMP JUMPDEST POP POP JUMPDEST POP POP POP JUMP JUMPDEST PUSH0 DUP3 DUP3 SHR SWAP1 POP SWAP3 SWAP2 POP POP JUMP JUMPDEST PUSH0 PUSH2 0x873 PUSH0 NOT DUP5 PUSH1 0x8 MUL PUSH2 0x858 JUMP JUMPDEST NOT DUP1 DUP4 AND SWAP2 POP POP SWAP3 SWAP2 POP POP JUMP JUMPDEST PUSH0 PUSH2 0x88B DUP4 DUP4 PUSH2 0x864 JUMP JUMPDEST SWAP2 POP DUP3 PUSH1 0x2 MUL DUP3 OR SWAP1 POP SWAP3 SWAP2 POP POP JUMP JUMPDEST PUSH2 0x8A4 DUP3 PUSH2 0x3B8 JUMP JUMPDEST PUSH8 0xFFFFFFFFFFFFFFFF DUP2 GT ISZERO PUSH2 0x8BD JUMPI PUSH2 0x8BC PUSH2 0x4BA JUMP JUMPDEST JUMPDEST PUSH2 0x8C7 DUP3 SLOAD PUSH2 0x6CE JUMP JUMPDEST PUSH2 0x8D2 DUP3 DUP3 DUP6 PUSH2 0x812 JUMP JUMPDEST PUSH0 PUSH1 0x20 SWAP1 POP PUSH1 0x1F DUP4 GT PUSH1 0x1 DUP2 EQ PUSH2 0x903 JUMPI PUSH0 DUP5 ISZERO PUSH2 0x8F1 JUMPI DUP3 DUP8 ADD MLOAD SWAP1 POP JUMPDEST PUSH2 0x8FB DUP6 DUP3 PUSH2 0x880 JUMP JUMPDEST DUP7 SSTORE POP PUSH2 0x962 JUMP JUMPDEST PUSH1 0x1F NOT DUP5 AND PUSH2 0x911 DUP7 PUSH2 0x6FE JUMP JUMPDEST PUSH0 JUMPDEST DUP3 DUP2 LT ISZERO PUSH2 0x938 JUMPI DUP5 DUP10 ADD MLOAD DUP3 SSTORE PUSH1 0x1 DUP3 ADD SWAP2 POP PUSH1 0x20 DUP6 ADD SWAP5 POP PUSH1 0x20 DUP2 ADD SWAP1 POP PUSH2 0x913 JUMP JUMPDEST DUP7 DUP4 LT ISZERO PUSH2 0x955 JUMPI DUP5 DUP10 ADD MLOAD PUSH2 0x951 PUSH1 0x1F DUP10 AND DUP3 PUSH2 0x864 JUMP JUMPDEST DUP4 SSTORE POP JUMPDEST PUSH1 0x1 PUSH1 0x2 DUP9 MUL ADD DUP9 SSTORE POP POP POP JUMPDEST POP POP POP POP POP POP JUMP INVALID LOG2 PUSH5 0x6970667358 0x22 SLT KECCAK256 JUMPI SWAP11 0xF6 PUSH18 0x5DAA97F6E62F82220479CB813465CA8FEC1F PUSH8 0x2A6537836CF3865E 0x28 PUSH5 0x736F6C6343 STOP ADDMOD BYTE STOP CALLER "
				},
				"gasEstimates": {
					"creation": {
						"codeDepositCost": "492800",
						"executionCost": "522",
						"totalCost": "493322"
					},
					"external": {
						"addPerson(string,uint256,address)": "infinite",
						"getPerson(uint256)": "infinite",
						"people(uint256)": "infinite"
					}
				},
				"methodIdentifiers": {
					"addPerson(string,uint256,address)": "e11641cf",
					"getPerson(uint256)": "246982c4",
					"people(uint256)": "9e7a13ad"
				}
			},
			"storageLayout": {
				"storage": [
					{
						"astId": 12,
						"contract": "solidity/2.6/ExampleContract4.sol:ExampleContract4",
						"label": "people",
						"offset": 0,
						"slot": "0",
						"type": "t_array(t_struct(Person)8_storage)dyn_storage"
					}
				],
				"types": {
					"t_address": {
						"encoding": "inplace",
						"label": "address",
						"numberOfBytes": "20"
					},
					"t_array(t_struct(Person)8_storage)dyn_storage": {
						"base": "t_struct(Person)8_storage",
						"encoding": "dynamic_array",
						"label": "struct ExampleContract4.Person[]",
						"numberOfBytes": "32"
					},
					"t_string_storage": {
						"encoding": "bytes",
						"label": "string",
						"numberOfBytes": "32"
					},
					"t_struct(Person)8_storage": {
						"encoding": "inplace",
						"label": "struct ExampleContract4.Person",
						"members": [
							{
								"astId": 3,
								"contract": "solidity/2.6/ExampleContract4.sol:ExampleContract4",
								"label": "name",
								"offset": 0,
								"slot": "0",
								"type": "t_string_storage"
							},
							{
								"astId": 5,
								"contract": "solidity/2.6/ExampleContract4.sol:ExampleContract4",
								"label": "age",
								"offset": 0,
								"slot": "1",
								"type": "t_uint256"
							},
							{
								"astId": 7,
								"contract": "solidity/2.6/ExampleContract4.sol:ExampleContract4",
								"label": "wallet",
								"offset": 0,
								"slot": "2",
								"type": "t_address"
							}
						],
						"numberOfBytes": "96"
					},
					"t_uint256": {
						"encoding": "inplace",
						"label": "uint256",
						"numberOfBytes": "32"
					}
				}
			},
			"userdoc": {
				"kind": "user",
				"methods": {},
				"version": 1
			}
		}
	}
}