{
	"solidity/2.7/Voting.sol": {
		"Voting": {
			"abi": [
				{
					"inputs": [],
					"name": "advanceStage",
					"outputs": [],
					"stateMutability": "nonpayable",
					"type": "function"
				},
				{
					"inputs": [],
					"name": "getStage",
					"outputs": [
						{
							"internalType": "enum Voting.Stage",
							"name": "",
							"type": "uint8"
						}
					],
					"stateMutability": "view",
					"type": "function"
				},
				{
					"inputs": [],
					"name": "stage",
					"outputs": [
						{
							"internalType": "enum Voting.Stage",
							"name": "",
							"type": "uint8"
						}
					],
					"stateMutability": "view",
					"type": "function"
				}
			],
			"devdoc": {
				"kind": "dev",
				"methods": {},
				"version": 1
			},
			"evm": {
				"assembly": "    /* \"solidity/2.7/Voting.sol\":60:394  contract Voting {... */\n  mstore(0x40, 0x80)\n    /* \"solidity/2.7/Voting.sol\":146:156  Stage.Init */\n  0x00\n    /* \"solidity/2.7/Voting.sol\":125:156  Stage public stage = Stage.Init */\n  dup1\n  exp(0x0100, 0x00)\n  dup2\n  sload\n  dup2\n  0xff\n  mul\n  not\n  and\n  swap1\n  dup4\n  0x03\n  dup2\n  gt\n  iszero\n  tag_1\n  jumpi\n  tag_2\n  tag_3\n  jump\t// in\ntag_2:\ntag_1:\n  mul\n  or\n  swap1\n  sstore\n  pop\n    /* \"solidity/2.7/Voting.sol\":60:394  contract Voting {... */\n  callvalue\n  dup1\n  iszero\n  tag_4\n  jumpi\n  0x00\n  dup1\n  revert\ntag_4:\n  pop\n  jump(tag_5)\n    /* \"#utility.yul\":7:187   */\ntag_3:\n    /* \"#utility.yul\":55:132   */\n  0x4e487b7100000000000000000000000000000000000000000000000000000000\n    /* \"#utility.yul\":52:53   */\n  0x00\n    /* \"#utility.yul\":45:133   */\n  mstore\n    /* \"#utility.yul\":152:156   */\n  0x21\n    /* \"#utility.yul\":149:150   */\n  0x04\n    /* \"#utility.yul\":142:157   */\n  mstore\n    /* \"#utility.yul\":176:180   */\n  0x24\n    /* \"#utility.yul\":173:174   */\n  0x00\n    /* \"#utility.yul\":166:181   */\n  revert\n    /* \"solidity/2.7/Voting.sol\":60:394  contract Voting {... */\ntag_5:\n  dataSize(sub_0)\n  dup1\n  dataOffset(sub_0)\n  0x00\n  codecopy\n  0x00\n  return\nstop\n\nsub_0: assembly {\n        /* \"solidity/2.7/Voting.sol\":60:394  contract Voting {... */\n      mstore(0x40, 0x80)\n      callvalue\n      dup1\n      iszero\n      tag_1\n      jumpi\n      0x00\n      dup1\n      revert\n    tag_1:\n      pop\n      jumpi(tag_2, lt(calldatasize, 0x04))\n      shr(0xe0, calldataload(0x00))\n      dup1\n      0xc040e6b8\n      eq\n      tag_3\n      jumpi\n      dup1\n      0xc33f48fd\n      eq\n      tag_4\n      jumpi\n      dup1\n      0xfcaa7664\n      eq\n      tag_5\n      jumpi\n    tag_2:\n      0x00\n      dup1\n      revert\n        /* \"solidity/2.7/Voting.sol\":125:156  Stage public stage = Stage.Init */\n    tag_3:\n      tag_6\n      tag_7\n      jump\t// in\n    tag_6:\n      mload(0x40)\n      tag_8\n      swap2\n      swap1\n      tag_9\n      jump\t// in\n    tag_8:\n      mload(0x40)\n      dup1\n      swap2\n      sub\n      swap1\n      return\n        /* \"solidity/2.7/Voting.sol\":165:304  function advanceStage() public {... */\n    tag_4:\n      tag_10\n      tag_11\n      jump\t// in\n    tag_10:\n      stop\n        /* \"solidity/2.7/Voting.sol\":312:391  function getStage() public view returns (Stage) {... */\n    tag_5:\n      tag_12\n      tag_13\n      jump\t// in\n    tag_12:\n      mload(0x40)\n      tag_14\n      swap2\n      swap1\n      tag_9\n      jump\t// in\n    tag_14:\n      mload(0x40)\n      dup1\n      swap2\n      sub\n      swap1\n      return\n        /* \"solidity/2.7/Voting.sol\":125:156  Stage public stage = Stage.Init */\n    tag_7:\n      0x00\n      dup1\n      sload\n      swap1\n      0x0100\n      exp\n      swap1\n      div\n      0xff\n      and\n      dup2\n      jump\t// out\n        /* \"solidity/2.7/Voting.sol\":165:304  function advanceStage() public {... */\n    tag_11:\n        /* \"solidity/2.7/Voting.sol\":224:234  Stage.Done */\n      0x03\n        /* \"solidity/2.7/Voting.sol\":215:234  stage != Stage.Done */\n      dup1\n      dup2\n      gt\n      iszero\n      tag_16\n      jumpi\n      tag_17\n      tag_18\n      jump\t// in\n    tag_17:\n    tag_16:\n        /* \"solidity/2.7/Voting.sol\":215:220  stage */\n      0x00\n      dup1\n      sload\n      swap1\n      0x0100\n      exp\n      swap1\n      div\n      0xff\n      and\n        /* \"solidity/2.7/Voting.sol\":215:234  stage != Stage.Done */\n      0x03\n      dup2\n      gt\n      iszero\n      tag_19\n      jumpi\n      tag_20\n      tag_18\n      jump\t// in\n    tag_20:\n    tag_19:\n      sub\n        /* \"solidity/2.7/Voting.sol\":207:255  require(stage != Stage.Done, \"Voting has ended\") */\n      tag_21\n      jumpi\n      mload(0x40)\n      0x08c379a000000000000000000000000000000000000000000000000000000000\n      dup2\n      mstore\n      0x04\n      add\n      tag_22\n      swap1\n      tag_23\n      jump\t// in\n    tag_22:\n      mload(0x40)\n      dup1\n      swap2\n      sub\n      swap1\n      revert\n    tag_21:\n        /* \"solidity/2.7/Voting.sol\":294:295  1 */\n      0x01\n        /* \"solidity/2.7/Voting.sol\":285:290  stage */\n      0x00\n      dup1\n      sload\n      swap1\n      0x0100\n      exp\n      swap1\n      div\n      0xff\n      and\n        /* \"solidity/2.7/Voting.sol\":280:291  uint(stage) */\n      0x03\n      dup2\n      gt\n      iszero\n      tag_24\n      jumpi\n      tag_25\n      tag_18\n      jump\t// in\n    tag_25:\n    tag_24:\n        /* \"solidity/2.7/Voting.sol\":280:295  uint(stage) + 1 */\n      tag_26\n      swap2\n      swap1\n      tag_27\n      jump\t// in\n    tag_26:\n        /* \"solidity/2.7/Voting.sol\":274:296  Stage(uint(stage) + 1) */\n      0x03\n      dup2\n      gt\n      iszero\n      tag_28\n      jumpi\n      tag_29\n      tag_18\n      jump\t// in\n    tag_29:\n    tag_28:\n        /* \"solidity/2.7/Voting.sol\":266:271  stage */\n      0x00\n      dup1\n        /* \"solidity/2.7/Voting.sol\":266:296  stage = Stage(uint(stage) + 1) */\n      0x0100\n      exp\n      dup2\n      sload\n      dup2\n      0xff\n      mul\n      not\n      and\n      swap1\n      dup4\n      0x03\n      dup2\n      gt\n      iszero\n      tag_30\n      jumpi\n      tag_31\n      tag_18\n      jump\t// in\n    tag_31:\n    tag_30:\n      mul\n      or\n      swap1\n      sstore\n      pop\n        /* \"solidity/2.7/Voting.sol\":165:304  function advanceStage() public {... */\n      jump\t// out\n        /* \"solidity/2.7/Voting.sol\":312:391  function getStage() public view returns (Stage) {... */\n    tag_13:\n        /* \"solidity/2.7/Voting.sol\":353:358  Stage */\n      0x00\n        /* \"solidity/2.7/Voting.sol\":378:383  stage */\n      dup1\n      0x00\n      swap1\n      sload\n      swap1\n      0x0100\n      exp\n      swap1\n      div\n      0xff\n      and\n        /* \"solidity/2.7/Voting.sol\":371:383  return stage */\n      swap1\n      pop\n        /* \"solidity/2.7/Voting.sol\":312:391  function getStage() public view returns (Stage) {... */\n      swap1\n      jump\t// out\n        /* \"#utility.yul\":7:187   */\n    tag_18:\n        /* \"#utility.yul\":55:132   */\n      0x4e487b7100000000000000000000000000000000000000000000000000000000\n        /* \"#utility.yul\":52:53   */\n      0x00\n        /* \"#utility.yul\":45:133   */\n      mstore\n        /* \"#utility.yul\":152:156   */\n      0x21\n        /* \"#utility.yul\":149:150   */\n      0x04\n        /* \"#utility.yul\":142:157   */\n      mstore\n        /* \"#utility.yul\":176:180   */\n      0x24\n        /* \"#utility.yul\":173:174   */\n      0x00\n        /* \"#utility.yul\":166:181   */\n      revert\n        /* \"#utility.yul\":193:305   */\n    tag_33:\n        /* \"#utility.yul\":273:274   */\n      0x04\n        /* \"#utility.yul\":266:271   */\n      dup2\n        /* \"#utility.yul\":263:275   */\n      lt\n        /* \"#utility.yul\":253:299   */\n      tag_45\n      jumpi\n        /* \"#utility.yul\":279:297   */\n      tag_46\n      tag_18\n      jump\t// in\n    tag_46:\n        /* \"#utility.yul\":253:299   */\n    tag_45:\n        /* \"#utility.yul\":193:305   */\n      pop\n      jump\t// out\n        /* \"#utility.yul\":311:436   */\n    tag_34:\n        /* \"#utility.yul\":355:362   */\n      0x00\n        /* \"#utility.yul\":384:389   */\n      dup2\n        /* \"#utility.yul\":373:389   */\n      swap1\n      pop\n        /* \"#utility.yul\":390:430   */\n      tag_48\n        /* \"#utility.yul\":424:429   */\n      dup3\n        /* \"#utility.yul\":390:430   */\n      tag_33\n      jump\t// in\n    tag_48:\n        /* \"#utility.yul\":311:436   */\n      swap2\n      swap1\n      pop\n      jump\t// out\n        /* \"#utility.yul\":442:567   */\n    tag_35:\n        /* \"#utility.yul\":497:506   */\n      0x00\n        /* \"#utility.yul\":530:561   */\n      tag_50\n        /* \"#utility.yul\":555:560   */\n      dup3\n        /* \"#utility.yul\":530:561   */\n      tag_34\n      jump\t// in\n    tag_50:\n        /* \"#utility.yul\":517:561   */\n      swap1\n      pop\n        /* \"#utility.yul\":442:567   */\n      swap2\n      swap1\n      pop\n      jump\t// out\n        /* \"#utility.yul\":573:714   */\n    tag_36:\n        /* \"#utility.yul\":665:707   */\n      tag_52\n        /* \"#utility.yul\":701:706   */\n      dup2\n        /* \"#utility.yul\":665:707   */\n      tag_35\n      jump\t// in\n    tag_52:\n        /* \"#utility.yul\":660:663   */\n      dup3\n        /* \"#utility.yul\":653:708   */\n      mstore\n        /* \"#utility.yul\":573:714   */\n      pop\n      pop\n      jump\t// out\n        /* \"#utility.yul\":720:952   */\n    tag_9:\n        /* \"#utility.yul\":818:822   */\n      0x00\n        /* \"#utility.yul\":856:858   */\n      0x20\n        /* \"#utility.yul\":845:854   */\n      dup3\n        /* \"#utility.yul\":841:859   */\n      add\n        /* \"#utility.yul\":833:859   */\n      swap1\n      pop\n        /* \"#utility.yul\":869:945   */\n      tag_54\n        /* \"#utility.yul\":942:943   */\n      0x00\n        /* \"#utility.yul\":931:940   */\n      dup4\n        /* \"#utility.yul\":927:944   */\n      add\n        /* \"#utility.yul\":918:924   */\n      dup5\n        /* \"#utility.yul\":869:945   */\n      tag_36\n      jump\t// in\n    tag_54:\n        /* \"#utility.yul\":720:952   */\n      swap3\n      swap2\n      pop\n      pop\n      jump\t// out\n        /* \"#utility.yul\":958:1127   */\n    tag_37:\n        /* \"#utility.yul\":1042:1053   */\n      0x00\n        /* \"#utility.yul\":1076:1082   */\n      dup3\n        /* \"#utility.yul\":1071:1074   */\n      dup3\n        /* \"#utility.yul\":1064:1083   */\n      mstore\n        /* \"#utility.yul\":1116:1120   */\n      0x20\n        /* \"#utility.yul\":1111:1114   */\n      dup3\n        /* \"#utility.yul\":1107:1121   */\n      add\n        /* \"#utility.yul\":1092:1121   */\n      swap1\n      pop\n        /* \"#utility.yul\":958:1127   */\n      swap3\n      swap2\n      pop\n      pop\n      jump\t// out\n        /* \"#utility.yul\":1133:1299   */\n    tag_38:\n        /* \"#utility.yul\":1273:1291   */\n      0x566f74696e672068617320656e64656400000000000000000000000000000000\n        /* \"#utility.yul\":1269:1270   */\n      0x00\n        /* \"#utility.yul\":1261:1267   */\n      dup3\n        /* \"#utility.yul\":1257:1271   */\n      add\n        /* \"#utility.yul\":1250:1292   */\n      mstore\n        /* \"#utility.yul\":1133:1299   */\n      pop\n      jump\t// out\n        /* \"#utility.yul\":1305:1671   */\n    tag_39:\n        /* \"#utility.yul\":1447:1450   */\n      0x00\n        /* \"#utility.yul\":1468:1535   */\n      tag_58\n        /* \"#utility.yul\":1532:1534   */\n      0x10\n        /* \"#utility.yul\":1527:1530   */\n      dup4\n        /* \"#utility.yul\":1468:1535   */\n      tag_37\n      jump\t// in\n    tag_58:\n        /* \"#utility.yul\":1461:1535   */\n      swap2\n      pop\n        /* \"#utility.yul\":1544:1637   */\n      tag_59\n        /* \"#utility.yul\":1633:1636   */\n      dup3\n        /* \"#utility.yul\":1544:1637   */\n      tag_38\n      jump\t// in\n    tag_59:\n        /* \"#utility.yul\":1662:1664   */\n      0x20\n        /* \"#utility.yul\":1657:1660   */\n      dup3\n        /* \"#utility.yul\":1653:1665   */\n      add\n        /* \"#utility.yul\":1646:1665   */\n      swap1\n      pop\n        /* \"#utility.yul\":1305:1671   */\n      swap2\n      swap1\n      pop\n      jump\t// out\n        /* \"#utility.yul\":1677:2096   */\n    tag_23:\n        /* \"#utility.yul\":1843:1847   */\n      0x00\n        /* \"#utility.yul\":1881:1883   */\n      0x20\n        /* \"#utility.yul\":1870:1879   */\n      dup3\n        /* \"#utility.yul\":1866:1884   */\n      add\n        /* \"#utility.yul\":1858:1884   */\n      swap1\n      pop\n        /* \"#utility.yul\":1930:1939   */\n      dup2\n        /* \"#utility.yul\":1924:1928   */\n      dup2\n        /* \"#utility.yul\":1920:1940   */\n      sub\n        /* \"#utility.yul\":1916:1917   */\n      0x00\n        /* \"#utility.yul\":1905:1914   */\n      dup4\n        /* \"#utility.yul\":1901:1918   */\n      add\n        /* \"#utility.yul\":1894:1941   */\n      mstore\n        /* \"#utility.yul\":1958:2089   */\n      tag_61\n        /* \"#utility.yul\":2084:2088   */\n      dup2\n        /* \"#utility.yul\":1958:2089   */\n      tag_39\n      jump\t// in\n    tag_61:\n        /* \"#utility.yul\":1950:2089   */\n      swap1\n      pop\n        /* \"#utility.yul\":1677:2096   */\n      swap2\n      swap1\n      pop\n      jump\t// out\n        /* \"#utility.yul\":2102:2179   */\n    tag_40:\n        /* \"#utility.yul\":2139:2146   */\n      0x00\n        /* \"#utility.yul\":2168:2173   */\n      dup2\n        /* \"#utility.yul\":2157:2173   */\n      swap1\n      pop\n        /* \"#utility.yul\":2102:2179   */\n      swap2\n      swap1\n      pop\n      jump\t// out\n        /* \"#utility.yul\":2185:2365   */\n    tag_41:\n        /* \"#utility.yul\":2233:2310   */\n      0x4e487b7100000000000000000000000000000000000000000000000000000000\n        /* \"#utility.yul\":2230:2231   */\n      0x00\n        /* \"#utility.yul\":2223:2311   */\n      mstore\n        /* \"#utility.yul\":2330:2334   */\n      0x11\n        /* \"#utility.yul\":2327:2328   */\n      0x04\n        /* \"#utility.yul\":2320:2335   */\n      mstore\n        /* \"#utility.yul\":2354:2358   */\n      0x24\n        /* \"#utility.yul\":2351:2352   */\n      0x00\n        /* \"#utility.yul\":2344:2359   */\n      revert\n        /* \"#utility.yul\":2371:2562   */\n    tag_27:\n        /* \"#utility.yul\":2411:2414   */\n      0x00\n        /* \"#utility.yul\":2430:2450   */\n      tag_65\n        /* \"#utility.yul\":2448:2449   */\n      dup3\n        /* \"#utility.yul\":2430:2450   */\n      tag_40\n      jump\t// in\n    tag_65:\n        /* \"#utility.yul\":2425:2450   */\n      swap2\n      pop\n        /* \"#utility.yul\":2464:2484   */\n      tag_66\n        /* \"#utility.yul\":2482:2483   */\n      dup4\n        /* \"#utility.yul\":2464:2484   */\n      tag_40\n      jump\t// in\n    tag_66:\n        /* \"#utility.yul\":2459:2484   */\n      swap3\n      pop\n        /* \"#utility.yul\":2507:2508   */\n      dup3\n        /* \"#utility.yul\":2504:2505   */\n      dup3\n        /* \"#utility.yul\":2500:2509   */\n      add\n        /* \"#utility.yul\":2493:2509   */\n      swap1\n      pop\n        /* \"#utility.yul\":2528:2531   */\n      dup1\n        /* \"#utility.yul\":2525:2526   */\n      dup3\n        /* \"#utility.yul\":2522:2532   */\n      gt\n        /* \"#utility.yul\":2519:2555   */\n      iszero\n      tag_67\n      jumpi\n        /* \"#utility.yul\":2535:2553   */\n      tag_68\n      tag_41\n      jump\t// in\n    tag_68:\n        /* \"#utility.yul\":2519:2555   */\n    tag_67:\n        /* \"#utility.yul\":2371:2562   */\n      swap3\n      swap2\n      pop\n      pop\n      jump\t// out\n\n    auxdata: 0xa2646970667358221220b83714982a14c54d5688dbb7663daa242e12b0e0e4bf85ee5efbc400fade756664736f6c634300081a0033\n}\n",
				"bytecode": {
					"linkReferences": {},
					"object": "60806040525f805f6101000a81548160ff0219169083600381111560245760236038565b5b02179055503480156033575f80fd5b506065565b7f4e487b71000000000000000000000000000000000000000000000000000000005f52602160045260245ffd5b610328806100725f395ff3fe608060405234801561000f575f80fd5b506004361061003f575f3560e01c8063c040e6b814610043578063c33f48fd14610061578063fcaa76641461006b575b5f80fd5b61004b610089565b60405161005891906101f8565b60405180910390f35b610069610099565b005b610073610171565b60405161008091906101f8565b60405180910390f35b5f8054906101000a900460ff1681565b6003808111156100ac576100ab610185565b5b5f8054906101000a900460ff1660038111156100cb576100ca610185565b5b0361010b576040517f08c379a00000000000000000000000000000000000000000000000000000000081526004016101029061026b565b60405180910390fd5b60015f8054906101000a900460ff16600381111561012c5761012b610185565b5b61013691906102bf565b600381111561014857610147610185565b5b5f806101000a81548160ff0219169083600381111561016a57610169610185565b5b0217905550565b5f805f9054906101000a900460ff16905090565b7f4e487b71000000000000000000000000000000000000000000000000000000005f52602160045260245ffd5b600481106101c3576101c2610185565b5b50565b5f8190506101d3826101b2565b919050565b5f6101e2826101c6565b9050919050565b6101f2816101d8565b82525050565b5f60208201905061020b5f8301846101e9565b92915050565b5f82825260208201905092915050565b7f566f74696e672068617320656e646564000000000000000000000000000000005f82015250565b5f610255601083610211565b915061026082610221565b602082019050919050565b5f6020820190508181035f83015261028281610249565b9050919050565b5f819050919050565b7f4e487b71000000000000000000000000000000000000000000000000000000005f52601160045260245ffd5b5f6102c982610289565b91506102d483610289565b92508282019050808211156102ec576102eb610292565b5b9291505056fea2646970667358221220b83714982a14c54d5688dbb7663daa242e12b0e0e4bf85ee5efbc400fade756664736f6c634300081a0033",
					"opcodes": "PUSH1 0x80 PUSH1 0x40 MSTORE PUSH0 DUP1 PUSH0 PUSH2 0x100 EXP DUP2 SLOAD DUP2 PUSH1 0xFF MUL NOT AND SWAP1 DUP4 PUSH1 0x3 DUP2 GT ISZERO PUSH1 0x24 JUMPI PUSH1 0x23 PUSH1 0x38 JUMP JUMPDEST JUMPDEST MUL OR SWAP1 SSTORE POP CALLVALUE DUP1 ISZERO PUSH1 0x33 JUMPI PUSH0 DUP1 REVERT JUMPDEST POP PUSH1 0x65 JUMP JUMPDEST PUSH32 0x4E487B7100000000000000000000000000000000000000000000000000000000 PUSH0 MSTORE PUSH1 0x21 PUSH1 0x4 MSTORE PUSH1 0x24 PUSH0 REVERT JUMPDEST PUSH2 0x328 DUP1 PUSH2 0x72 PUSH0 CODECOPY PUSH0 RETURN INVALID PUSH1 0x80 PUSH1 0x40 MSTORE CALLVALUE DUP1 ISZERO PUSH2 0xF JUMPI PUSH0 DUP1 REVERT JUMPDEST POP PUSH1 0x4 CALLDATASIZE LT PUSH2 0x3F JUMPI PUSH0 CALLDATALOAD PUSH1 0xE0 SHR DUP1 PUSH4 0xC040E6B8 EQ PUSH2 0x43 JUMPI DUP1 PUSH4 0xC33F48FD EQ PUSH2 0x61 JUMPI DUP1 PUSH4 0xFCAA7664 EQ PUSH2 0x6B JUMPI JUMPDEST PUSH0 DUP1 REVERT JUMPDEST PUSH2 0x4B PUSH2 0x89 JUMP JUMPDEST PUSH1 0x40 MLOAD PUSH2 0x58 SWAP2 SWAP1 PUSH2 0x1F8 JUMP JUMPDEST PUSH1 0x40 MLOAD DUP1 SWAP2 SUB SWAP1 RETURN JUMPDEST PUSH2 0x69 PUSH2 0x99 JUMP JUMPDEST STOP JUMPDEST PUSH2 0x73 PUSH2 0x171 JUMP JUMPDEST PUSH1 0x40 MLOAD PUSH2 0x80 SWAP2 SWAP1 PUSH2 0x1F8 JUMP JUMPDEST PUSH1 0x40 MLOAD DUP1 SWAP2 SUB SWAP1 RETURN JUMPDEST PUSH0 DUP1 SLOAD SWAP1 PUSH2 0x100 EXP SWAP1 DIV PUSH1 0xFF AND DUP2 JUMP JUMPDEST PUSH1 0x3 DUP1 DUP2 GT ISZERO PUSH2 0xAC JUMPI PUSH2 0xAB PUSH2 0x185 JUMP JUMPDEST JUMPDEST PUSH0 DUP1 SLOAD SWAP1 PUSH2 0x100 EXP SWAP1 DIV PUSH1 0xFF AND PUSH1 0x3 DUP2 GT ISZERO PUSH2 0xCB JUMPI PUSH2 0xCA PUSH2 0x185 JUMP JUMPDEST JUMPDEST SUB PUSH2 0x10B JUMPI PUSH1 0x40 MLOAD PUSH32 0x8C379A000000000000000000000000000000000000000000000000000000000 DUP2 MSTORE PUSH1 0x4 ADD PUSH2 0x102 SWAP1 PUSH2 0x26B JUMP JUMPDEST PUSH1 0x40 MLOAD DUP1 SWAP2 SUB SWAP1 REVERT JUMPDEST PUSH1 0x1 PUSH0 DUP1 SLOAD SWAP1 PUSH2 0x100 EXP SWAP1 DIV PUSH1 0xFF AND PUSH1 0x3 DUP2 GT ISZERO PUSH2 0x12C JUMPI PUSH2 0x12B PUSH2 0x185 JUMP JUMPDEST JUMPDEST PUSH2 0x136 SWAP2 SWAP1 PUSH2 0x2BF JUMP JUMPDEST PUSH1 0x3 DUP2 GT ISZERO PUSH2 0x148 JUMPI PUSH2 0x147 PUSH2 0x185 JUMP JUMPDEST JUMPDEST PUSH0 DUP1 PUSH2 0x100 EXP DUP2 SLOAD DUP2 PUSH1 0xFF MUL NOT AND SWAP1 DUP4 PUSH1 0x3 DUP2 GT ISZERO PUSH2 0x16A JUMPI PUSH2 0x169 PUSH2 0x185 JUMP JUMPDEST JUMPDEST MUL OR SWAP1 SSTORE POP JUMP JUMPDEST PUSH0 DUP1 PUSH0 SWAP1 SLOAD SWAP1 PUSH2 0x100 EXP SWAP1 DIV PUSH1 0xFF AND SWAP1 POP SWAP1 JUMP JUMPDEST PUSH32 0x4E487B7100000000000000000000000000000000000000000000000000000000 PUSH0 MSTORE PUSH1 0x21 PUSH1 0x4 MSTORE PUSH1 0x24 PUSH0 REVERT JUMPDEST PUSH1 0x4 DUP2 LT PUSH2 0x1C3 JUMPI PUSH2 0x1C2 PUSH2 0x185 JUMP JUMPDEST JUMPDEST POP JUMP JUMPDEST PUSH0 DUP2 SWAP1 POP PUSH2 0x1D3 DUP3 PUSH2 0x1B2 JUMP JUMPDEST SWAP2 SWAP1 POP JUMP JUMPDEST PUSH0 PUSH2 0x1E2 DUP3 PUSH2 0x1C6 JUMP JUMPDEST SWAP1 POP SWAP2 SWAP1 POP JUMP JUMPDEST PUSH2 0x1F2 DUP2 PUSH2 0x1D8 JUMP JUMPDEST DUP3 MSTORE POP POP JUMP JUMPDEST PUSH0 PUSH1 0x20 DUP3 ADD SWAP1 POP PUSH2 0x20B PUSH0 DUP4 ADD DUP5 PUSH2 0x1E9 JUMP JUMPDEST SWAP3 SWAP2 POP POP JUMP JUMPDEST PUSH0 DUP3 DUP3 MSTORE PUSH1 0x20 DUP3 ADD SWAP1 POP SWAP3 SWAP2 POP POP JUMP JUMPDEST PUSH32 0x566F74696E672068617320656E64656400000000000000000000000000000000 PUSH0 DUP3 ADD MSTORE POP JUMP JUMPDEST PUSH0 PUSH2 0x255 PUSH1 0x10 DUP4 PUSH2 0x211 JUMP JUMPDEST SWAP2 POP PUSH2 0x260 DUP3 PUSH2 0x221 JUMP JUMPDEST PUSH1 0x20 DUP3 ADD SWAP1 POP SWAP2 SWAP1 POP JUMP JUMPDEST PUSH0 PUSH1 0x20 DUP3 ADD SWAP1 POP DUP2 DUP2 SUB PUSH0 DUP4 ADD MSTORE PUSH2 0x282 DUP2 PUSH2 0x249 JUMP JUMPDEST SWAP1 POP SWAP2 SWAP1 POP JUMP JUMPDEST PUSH0 DUP2 SWAP1 POP SWAP2 SWAP1 POP JUMP JUMPDEST PUSH32 0x4E487B7100000000000000000000000000000000000000000000000000000000 PUSH0 MSTORE PUSH1 0x11 PUSH1 0x4 MSTORE PUSH1 0x24 PUSH0 REVERT JUMPDEST PUSH0 PUSH2 0x2C9 DUP3 PUSH2 0x289 JUMP JUMPDEST SWAP2 POP PUSH2 0x2D4 DUP4 PUSH2 0x289 JUMP JUMPDEST SWAP3 POP DUP3 DUP3 ADD SWAP1 POP DUP1 DUP3 GT ISZERO PUSH2 0x2EC JUMPI PUSH2 0x2EB PUSH2 0x292 JUMP JUMPDEST JUMPDEST SWAP3 SWAP2 POP POP JUMP INVALID LOG2 PUSH5 0x6970667358 0x22 SLT KECCAK256 0xB8 CALLDATACOPY EQ SWAP9 0x2A EQ 0xC5 0x4D JUMP DUP9 0xDB 0xB7 PUSH7 0x3DAA242E12B0E0 0xE4 0xBF DUP6 0xEE MCOPY 0xFB 0xC4 STOP STATICCALL 0xDE PUSH22 0x6664736F6C634300081A003300000000000000000000 "
				},
				"gasEstimates": {
					"creation": {
						"codeDepositCost": "161600",
						"executionCost": "24503",
						"totalCost": "186103"
					},
					"external": {
						"advanceStage()": "infinite",
						"getStage()": "2583",
						"stage()": "2529"
					}
				},
				"methodIdentifiers": {
					"advanceStage()": "c33f48fd",
					"getStage()": "fcaa7664",
					"stage()": "c040e6b8"
				}
			},
			"storageLayout": {
				"storage": [
					{
						"astId": 11,
						"contract": "solidity/2.7/Voting.sol:Voting",
						"label": "stage",
						"offset": 0,
						"slot": "0",
						"type": "t_enum(Stage)6"
					}
				],
				"types": {
					"t_enum(Stage)6": {
						"encoding": "inplace",
						"label": "enum Voting.Stage",
						"numberOfBytes": "1"
					}
				}
			},
			"userdoc": {
				"kind": "user",
				"methods": {},
				"version": 1
			}
		}
	}
}