{
	"data": {
		"bytecode": {
			"linkReferences": {},
			"object": "6080604052348015600e575f80fd5b506102518061001c5f395ff3fe608060405234801561000f575f80fd5b5060043610610034575f3560e01c8063505fb46c14610038578063771602f714610068575b5f80fd5b610052600480360381019061004d9190610105565b610098565b60405161005f9190610164565b60405180910390f35b610082600480360381019061007d919061017d565b6100b9565b60405161008f9190610164565b60405180910390f35b5f8183856100a691906101e8565b6100b091906101e8565b90509392505050565b5f81836100c691906101e8565b905092915050565b5f80fd5b5f819050919050565b6100e4816100d2565b81146100ee575f80fd5b50565b5f813590506100ff816100db565b92915050565b5f805f6060848603121561011c5761011b6100ce565b5b5f610129868287016100f1565b935050602061013a868287016100f1565b925050604061014b868287016100f1565b9150509250925092565b61015e816100d2565b82525050565b5f6020820190506101775f830184610155565b92915050565b5f8060408385031215610193576101926100ce565b5b5f6101a0858286016100f1565b92505060206101b1858286016100f1565b9150509250929050565b7f4e487b71000000000000000000000000000000000000000000000000000000005f52601160045260245ffd5b5f6101f2826100d2565b91506101fd836100d2565b9250828201905080821115610215576102146101bb565b5b9291505056fea2646970667358221220c40efc392abe86edfc81c0bb9993363b4b7e518536387c06c32d384b3fdc282964736f6c634300081a0033",
			"opcodes": "PUSH1 0x80 PUSH1 0x40 MSTORE CALLVALUE DUP1 ISZERO PUSH1 0xE JUMPI PUSH0 DUP1 REVERT JUMPDEST POP PUSH2 0x251 DUP1 PUSH2 0x1C PUSH0 CODECOPY PUSH0 RETURN INVALID PUSH1 0x80 PUSH1 0x40 MSTORE CALLVALUE DUP1 ISZERO PUSH2 0xF JUMPI PUSH0 DUP1 REVERT JUMPDEST POP PUSH1 0x4 CALLDATASIZE LT PUSH2 0x34 JUMPI PUSH0 CALLDATALOAD PUSH1 0xE0 SHR DUP1 PUSH4 0x505FB46C EQ PUSH2 0x38 JUMPI DUP1 PUSH4 0x771602F7 EQ PUSH2 0x68 JUMPI JUMPDEST PUSH0 DUP1 REVERT JUMPDEST PUSH2 0x52 PUSH1 0x4 DUP1 CALLDATASIZE SUB DUP2 ADD SWAP1 PUSH2 0x4D SWAP2 SWAP1 PUSH2 0x105 JUMP JUMPDEST PUSH2 0x98 JUMP JUMPDEST PUSH1 0x40 MLOAD PUSH2 0x5F SWAP2 SWAP1 PUSH2 0x164 JUMP JUMPDEST PUSH1 0x40 MLOAD DUP1 SWAP2 SUB SWAP1 RETURN JUMPDEST PUSH2 0x82 PUSH1 0x4 DUP1 CALLDATASIZE SUB DUP2 ADD SWAP1 PUSH2 0x7D SWAP2 SWAP1 PUSH2 0x17D JUMP JUMPDEST PUSH2 0xB9 JUMP JUMPDEST PUSH1 0x40 MLOAD PUSH2 0x8F SWAP2 SWAP1 PUSH2 0x164 JUMP JUMPDEST PUSH1 0x40 MLOAD DUP1 SWAP2 SUB SWAP1 RETURN JUMPDEST PUSH0 DUP2 DUP4 DUP6 PUSH2 0xA6 SWAP2 SWAP1 PUSH2 0x1E8 JUMP JUMPDEST PUSH2 0xB0 SWAP2 SWAP1 PUSH2 0x1E8 JUMP JUMPDEST SWAP1 POP SWAP4 SWAP3 POP POP POP JUMP JUMPDEST PUSH0 DUP2 DUP4 PUSH2 0xC6 SWAP2 SWAP1 PUSH2 0x1E8 JUMP JUMPDEST SWAP1 POP SWAP3 SWAP2 POP POP JUMP JUMPDEST PUSH0 DUP1 REVERT JUMPDEST PUSH0 DUP2 SWAP1 POP SWAP2 SWAP1 POP JUMP JUMPDEST PUSH2 0xE4 DUP2 PUSH2 0xD2 JUMP JUMPDEST DUP2 EQ PUSH2 0xEE JUMPI PUSH0 DUP1 REVERT JUMPDEST POP JUMP JUMPDEST PUSH0 DUP2 CALLDATALOAD SWAP1 POP PUSH2 0xFF DUP2 PUSH2 0xDB JUMP JUMPDEST SWAP3 SWAP2 POP POP JUMP JUMPDEST PUSH0 DUP1 PUSH0 PUSH1 0x60 DUP5 DUP7 SUB SLT ISZERO PUSH2 0x11C JUMPI PUSH2 0x11B PUSH2 0xCE JUMP JUMPDEST JUMPDEST PUSH0 PUSH2 0x129 DUP7 DUP3 DUP8 ADD PUSH2 0xF1 JUMP JUMPDEST SWAP4 POP POP PUSH1 0x20 PUSH2 0x13A DUP7 DUP3 DUP8 ADD PUSH2 0xF1 JUMP JUMPDEST SWAP3 POP POP PUSH1 0x40 PUSH2 0x14B DUP7 DUP3 DUP8 ADD PUSH2 0xF1 JUMP JUMPDEST SWAP2 POP POP SWAP3 POP SWAP3 POP SWAP3 JUMP JUMPDEST PUSH2 0x15E DUP2 PUSH2 0xD2 JUMP JUMPDEST DUP3 MSTORE POP POP JUMP JUMPDEST PUSH0 PUSH1 0x20 DUP3 ADD SWAP1 POP PUSH2 0x177 PUSH0 DUP4 ADD DUP5 PUSH2 0x155 JUMP JUMPDEST SWAP3 SWAP2 POP POP JUMP JUMPDEST PUSH0 DUP1 PUSH1 0x40 DUP4 DUP6 SUB SLT ISZERO PUSH2 0x193 JUMPI PUSH2 0x192 PUSH2 0xCE JUMP JUMPDEST JUMPDEST PUSH0 PUSH2 0x1A0 DUP6 DUP3 DUP7 ADD PUSH2 0xF1 JUMP JUMPDEST SWAP3 POP POP PUSH1 0x20 PUSH2 0x1B1 DUP6 DUP3 DUP7 ADD PUSH2 0xF1 JUMP JUMPDEST SWAP2 POP POP SWAP3 POP SWAP3 SWAP1 POP JUMP JUMPDEST PUSH32 0x4E487B7100000000000000000000000000000000000000000000000000000000 PUSH0 MSTORE PUSH1 0x11 PUSH1 0x4 MSTORE PUSH1 0x24 PUSH0 REVERT JUMPDEST PUSH0 PUSH2 0x1F2 DUP3 PUSH2 0xD2 JUMP JUMPDEST SWAP2 POP PUSH2 0x1FD DUP4 PUSH2 0xD2 JUMP JUMPDEST SWAP3 POP DUP3 DUP3 ADD SWAP1 POP DUP1 DUP3 GT ISZERO PUSH2 0x215 JUMPI PUSH2 0x214 PUSH2 0x1BB JUMP JUMPDEST JUMPDEST SWAP3 SWAP2 POP POP JUMP INVALID LOG2 PUSH5 0x6970667358 0x22 SLT KECCAK256 0xC4 0xE 0xFC CODECOPY 0x2A 0xBE DUP7 0xED 0xFC DUP2 0xC0 0xBB SWAP10 SWAP4 CALLDATASIZE EXTCODESIZE 0x4B PUSH31 0x518536387C06C32D384B3FDC282964736F6C634300081A0033000000000000 "
		},
		"gasEstimates": {
			"creation": {
				"codeDepositCost": "118600",
				"executionCost": "163",
				"totalCost": "118763"
			},
			"external": {
				"add(uint256,uint256)": "infinite",
				"add(uint256,uint256,uint256)": "infinite"
			}
		},
		"methodIdentifiers": {
			"add(uint256,uint256)": "771602f7",
			"add(uint256,uint256,uint256)": "505fb46c"
		}
	},
	"abi": [
		{
			"inputs": [
				{
					"internalType": "uint256",
					"name": "a",
					"type": "uint256"
				},
				{
					"internalType": "uint256",
					"name": "b",
					"type": "uint256"
				},
				{
					"internalType": "uint256",
					"name": "c",
					"type": "uint256"
				}
			],
			"name": "add",
			"outputs": [
				{
					"internalType": "uint256",
					"name": "",
					"type": "uint256"
				}
			],
			"stateMutability": "pure",
			"type": "function"
		},
		{
			"inputs": [
				{
					"internalType": "uint256",
					"name": "a",
					"type": "uint256"
				},
				{
					"internalType": "uint256",
					"name": "b",
					"type": "uint256"
				}
			],
			"name": "add",
			"outputs": [
				{
					"internalType": "uint256",
					"name": "",
					"type": "uint256"
				}
			],
			"stateMutability": "pure",
			"type": "function"
		}
	]
}